{
	"data": {
		"bytecode": {
			"linkReferences": {},
			"object": "608060405260016005553480156200001657600080fd5b50600160008190555073ad19042402ba0892b0bab9ae28c475183d624a75600760006101000a81548173ffffffffffffffffffffffffffffffffffffffff021916908373ffffffffffffffffffffffffffffffffffffffff160217905550620000846200014660201b60201c565b733a56ae4a2831c3d3514b5d7af5578e45ebdb7a40600b60006101000a81548173ffffffffffffffffffffffffffffffffffffffff021916908373ffffffffffffffffffffffffffffffffffffffff1602179055507f3362376361306434386337613462326461393236383435363636356431316165600c81905550662386f26fc10000600d819055506040518060800160405280605181526020016200368160519139601190805190602001906200013f92919062000232565b50620003e3565b620001ec73c89bd4e1632d3a43cb03aaad5262cbe4038bc57173ffffffffffffffffffffffffffffffffffffffff166338cc48316040518163ffffffff1660e01b815260040160206040518083038186803b158015620001a557600080fd5b505afa158015620001ba573d6000803e3d6000fd5b505050506040513d601f19601f82011682018060405250810190620001e09190620002f9565b620001ee60201b60201c565b565b80600360006101000a81548173ffffffffffffffffffffffffffffffffffffffff021916908373ffffffffffffffffffffffffffffffffffffffff16021790555050565b82805462000240906200035f565b90600052602060002090601f016020900481019282620002645760008555620002b0565b82601f106200027f57805160ff1916838001178555620002b0565b82800160010185558215620002b0579182015b82811115620002af57825182559160200191906001019062000292565b5b509050620002bf9190620002c3565b5090565b5b80821115620002de576000816000905550600101620002c4565b5090565b600081519050620002f381620003c9565b92915050565b600060208284031215620003125762000311620003c4565b5b60006200032284828501620002e2565b91505092915050565b600062000338826200033f565b9050919050565b600073ffffffffffffffffffffffffffffffffffffffff82169050919050565b600060028204905060018216806200037857607f821691505b602082108114156200038f576200038e62000395565b5b50919050565b7f4e487b7100000000000000000000000000000000000000000000000000000000600052602260045260246000fd5b600080fd5b620003d4816200032b565b8114620003e057600080fd5b50565b61328e80620003f36000396000f3fe608060405234801561001057600080fd5b50600436106100885760003560e01c8063c618a1e41161005b578063c618a1e414610125578063c67bbc2414610143578063d0becb3914610161578063e4128fb31461019157610088565b80634357855e1461008d5780634fa933ef146100a95780638e27d719146100d95780639df09d92146100f5575b600080fd5b6100a760048036038101906100a29190612072565b6101af565b005b6100c360048036038101906100be91906120b2565b6105f7565b6040516100d091906128bb565b60405180910390f35b6100f360048036038101906100ee91906120ff565b610821565b005b61010f600480360381019061010a91906120ff565b610c62565b60405161011c9190612780565b60405180910390f35b61012d610f33565b60405161013a91906128dd565b60405180910390f35b61014b610f39565b60405161015891906128dd565b60405180910390f35b61017b600480360381019061017691906120b2565b610f43565b60405161018891906128bb565b60405180910390f35b61019961116d565b6040516101a69190612614565b60405180910390f35b816006600082815260200190815260200160002060009054906101000a900473ffffffffffffffffffffffffffffffffffffffff1673ffffffffffffffffffffffffffffffffffffffff163373ffffffffffffffffffffffffffffffffffffffff1614610251576040517f08c379a00000000000000000000000000000000000000000000000000000000081526004016102489061283b565b60405180910390fd5b6006600082815260200190815260200160002060006101000a81549073ffffffffffffffffffffffffffffffffffffffff0219169055807f7cc135e0cebb02c3480ae5d74d377283180a2601f8f644edf7987b009316c63a60405160405180910390a281600a819055506001600a5414610300576040517f08c379a00000000000000000000000000000000000000000000000000000000081526004016102f79061287b565b60405180910390fd5b60006040518060800160405280600f805461031a90612daf565b80601f016020809104026020016040519081016040528092919081815260200182805461034690612daf565b80156103935780601f1061036857610100808354040283529160200191610393565b820191906000526020600020905b81548152906001019060200180831161037657829003601f168201915b50505050508152602001600e5481526020016040518060400160405280600381526020017f64656300000000000000000000000000000000000000000000000000000000008152508152602001601060009054906101000a900473ffffffffffffffffffffffffffffffffffffffff1673ffffffffffffffffffffffffffffffffffffffff168152509050806009600f604051610430919061259a565b9081526020016040518091039020600082015181600001908051906020019061045a929190611dad565b50602082015181600101556040820151816002019080519060200190610481929190611dad565b5060608201518160030160006101000a81548173ffffffffffffffffffffffffffffffffffffffff021916908373ffffffffffffffffffffffffffffffffffffffff1602179055509050506000600760009054906101000a900473ffffffffffffffffffffffffffffffffffffffff1690508073ffffffffffffffffffffffffffffffffffffffff1663a9059cbb601060009054906101000a900473ffffffffffffffffffffffffffffffffffffffff16670de0b6b3a7640000600e546105489190612bc1565b6040518363ffffffff1660e01b8152600401610565929190612666565b602060405180830381600087803b15801561057f57600080fd5b505af1158015610593573d6000803e3d6000fd5b505050506040513d601f19601f820116820180604052508101906105b79190612045565b507fa73f1bd2ba7f3ba7b9afa2290230606f097d953d6ec43d5d3644574dbc6052de60016040516105e89190612752565b60405180910390a15050505050565b6105ff611e33565b8282600060098383604051610615929190612581565b9081526020016040518091039020600101541415610668576040517f08c379a000000000000000000000000000000000000000000000000000000000815260040161065f906127db565b60405180910390fd5b6009858560405161067a929190612581565b90815260200160405180910390206040518060800160405290816000820180546106a390612daf565b80601f01602080910402602001604051908101604052809291908181526020018280546106cf90612daf565b801561071c5780601f106106f15761010080835404028352916020019161071c565b820191906000526020600020905b8154815290600101906020018083116106ff57829003601f168201915b505050505081526020016001820154815260200160028201805461073f90612daf565b80601f016020809104026020016040519081016040528092919081815260200182805461076b90612daf565b80156107b85780601f1061078d576101008083540402835291602001916107b8565b820191906000526020600020905b81548152906001019060200180831161079b57829003601f168201915b505050505081526020016003820160009054906101000a900473ffffffffffffffffffffffffffffffffffffffff1673ffffffffffffffffffffffffffffffffffffffff1673ffffffffffffffffffffffffffffffffffffffff16815250509250505092915050565b806000600760009054906101000a900473ffffffffffffffffffffffffffffffffffffffff1673ffffffffffffffffffffffffffffffffffffffff166370a08231336040518263ffffffff1660e01b815260040161087f9190612614565b60206040518083038186803b15801561089757600080fd5b505afa1580156108ab573d6000803e3d6000fd5b505050506040513d601f19601f820116820180604052508101906108cf919061215f565b90506000670de0b6b3a7640000836108e79190612bc1565b90508082101580156108fa575060008114155b610939576040517f08c379a00000000000000000000000000000000000000000000000000000000081526004016109309061279b565b60405180910390fd5b858560006008838360405161094f929190612581565b908152602001604051809103902060010154146109a1576040517f08c379a00000000000000000000000000000000000000000000000000000000081526004016109989061285b565b60405180910390fd5b600260005414156109e7576040517f08c379a00000000000000000000000000000000000000000000000000000000081526004016109de9061289b565b60405180910390fd5b6002600081905550600760009054906101000a900473ffffffffffffffffffffffffffffffffffffffff1673ffffffffffffffffffffffffffffffffffffffff166323b872dd3330670de0b6b3a76400008a610a439190612bc1565b6040518463ffffffff1660e01b8152600401610a619392919061262f565b602060405180830381600087803b158015610a7b57600080fd5b505af1158015610a8f573d6000803e3d6000fd5b505050506040513d601f19601f82011682018060405250810190610ab39190612045565b50600060405180608001604052808a8a8080601f016020809104026020016040519081016040528093929190818152602001838380828437600081840152601f19601f8201169050808301925050505050505081526020018881526020016040518060400160405280600381526020017f696e63000000000000000000000000000000000000000000000000000000000081525081526020013373ffffffffffffffffffffffffffffffffffffffff1681525090508060088a8a604051610b7b929190612581565b90815260200160405180910390206000820151816000019080519060200190610ba5929190611dad565b50602082015181600101556040820151816002019080519060200190610bcc929190611dad565b5060608201518160030160006101000a81548173ffffffffffffffffffffffffffffffffffffffff021916908373ffffffffffffffffffffffffffffffffffffffff1602179055509050507fa73f1bd2ba7f3ba7b9afa2290230606f097d953d6ec43d5d3644574dbc6052de6001604051610c479190612752565b60405180910390a15060016000819055505050505050505050565b60008383600060098383604051610c7a929190612581565b90815260200160405180910390206001015414610ccc576040517f08c379a0000000000000000000000000000000000000000000000000000000008152600401610cc3906127fb565b60405180910390fd5b60026000541415610d12576040517f08c379a0000000000000000000000000000000000000000000000000000000008152600401610d099061289b565b60405180910390fd5b600260008190555083600e819055508585600f9190610d32929190611e71565b5033601060006101000a81548173ffffffffffffffffffffffffffffffffffffffff021916908373ffffffffffffffffffffffffffffffffffffffff1602179055506000610e0c600f8054610d8690612daf565b80601f0160208091040260200160405190810160405280929190818152602001828054610db290612daf565b8015610dff5780601f10610dd457610100808354040283529160200191610dff565b820191906000526020600020905b815481529060010190602001808311610de257829003601f168201915b5050505050600e54611175565b90506000610e24600c5430634357855e60e01b611235565b9050610e706040518060400160405280600381526020017f676574000000000000000000000000000000000000000000000000000000000081525083836112669092919063ffffffff16565b610eef6040518060400160405280600481526020017f70617468000000000000000000000000000000000000000000000000000000008152506040518060400160405280600681526020017f7374617475730000000000000000000000000000000000000000000000000000815250836112669092919063ffffffff16565b610f1e600b60009054906101000a900473ffffffffffffffffffffffffffffffffffffffff1682600d54611299565b94505050600160008190555050509392505050565b600a5481565b6000600a54905090565b610f4b611e33565b8282600060088383604051610f61929190612581565b9081526020016040518091039020600101541415610fb4576040517f08c379a0000000000000000000000000000000000000000000000000000000008152600401610fab9061281b565b60405180910390fd5b60088585604051610fc6929190612581565b9081526020016040518091039020604051806080016040529081600082018054610fef90612daf565b80601f016020809104026020016040519081016040528092919081815260200182805461101b90612daf565b80156110685780601f1061103d57610100808354040283529160200191611068565b820191906000526020600020905b81548152906001019060200180831161104b57829003601f168201915b505050505081526020016001820154815260200160028201805461108b90612daf565b80601f01602080910402602001604051908101604052809291908181526020018280546110b790612daf565b80156111045780601f106110d957610100808354040283529160200191611104565b820191906000526020600020905b8154815290600101906020018083116110e757829003601f168201915b505050505081526020016003820160009054906101000a900473ffffffffffffffffffffffffffffffffffffffff1673ffffffffffffffffffffffffffffffffffffffff1673ffffffffffffffffffffffffffffffffffffffff16815250509250505092915050565b600033905090565b606060006040518060400160405280601f81526020017f26747970653d5749544844524157414c267075626c6963416464726573733d00815250905060006111bb611365565b905060006040518060400160405280601681526020017f266f7065726174696f6e3d44454326616d6f756e743d0000000000000000000081525090506011868484846112068a611526565b60405160200161121b969594939291906125b1565b604051602081830303815290604052935050505092915050565b61123d611ef7565b611245611ef7565b61125c85858584611687909392919063ffffffff16565b9150509392505050565b61127d82846080015161173790919063ffffffff16565b61129481846080015161173790919063ffffffff16565b505050565b60008060055490506001816112ae9190612961565b6005819055506000634042994660e01b60008087600001513089604001518760018c60800151600001516040516024016112ef98979695949392919061268f565b604051602081830303815290604052907bffffffffffffffffffffffffffffffffffffffffffffffffffffffff19166020820180517bffffffffffffffffffffffffffffffffffffffffffffffffffffffff8381831617835250505050905061135a8683868461175c565b925050509392505050565b60606000602867ffffffffffffffff81111561138457611383612f45565b5b6040519080825280601f01601f1916602001820160405280156113b65781602001600182028036833780820191505090505b50905060005b601481101561151e5760008160136113d49190612c56565b60086113e09190612bc1565b60026113ec9190612aa3565b3373ffffffffffffffffffffffffffffffffffffffff1661140d91906129ee565b60f81b9050600060108260f81c6114249190612a1f565b60f81b905060008160f81c601061143b9190612c1b565b8360f81c6114499190612c8a565b60f81b905061145782611900565b858560026114659190612bc1565b8151811061147657611475612f16565b5b60200101907effffffffffffffffffffffffffffffffffffffffffffffffffffffffffffff1916908160001a9053506114ae81611900565b8560018660026114be9190612bc1565b6114c89190612961565b815181106114d9576114d8612f16565b5b60200101907effffffffffffffffffffffffffffffffffffffffffffffffffffffffffffff1916908160001a905350505050808061151690612de1565b9150506113bc565b508091505090565b6060600082141561156e576040518060400160405280600181526020017f30000000000000000000000000000000000000000000000000000000000000008152509050611682565b600082905060005b600082146115a057808061158990612de1565b915050600a8261159991906129ee565b9150611576565b60008167ffffffffffffffff8111156115bc576115bb612f45565b5b6040519080825280601f01601f1916602001820160405280156115ee5781602001600182028036833780820191505090505b5090505b6000851461167b576001826116079190612c56565b9150600a856116169190612e58565b60306116229190612961565b60f81b81838151811061163857611637612f16565b5b60200101907effffffffffffffffffffffffffffffffffffffffffffffffffffffffffffff1916908160001a905350600a8561167491906129ee565b94506115f2565b8093505050505b919050565b61168f611ef7565b61169f8560800151610100611946565b508385600001818152505082856020019073ffffffffffffffffffffffffffffffffffffffff16908173ffffffffffffffffffffffffffffffffffffffff16815250508185604001907bffffffffffffffffffffffffffffffffffffffffffffffffffffffff191690817bffffffffffffffffffffffffffffffffffffffffffffffffffffffff191681525050849050949350505050565b61174482600383516119b0565b6117578183611b3590919063ffffffff16565b505050565b60003084604051602001611771929190612555565b604051602081830303815290604052805190602001209050846006600083815260200190815260200160002060006101000a81548173ffffffffffffffffffffffffffffffffffffffff021916908373ffffffffffffffffffffffffffffffffffffffff160217905550807fb5e6e01e79f91267dc17b4e6314d5d4d03593d2ceee0fbb452b750bd70ea5af960405160405180910390a2600360009054906101000a900473ffffffffffffffffffffffffffffffffffffffff1673ffffffffffffffffffffffffffffffffffffffff16634000aea08685856040518463ffffffff1660e01b815260040161186793929190612714565b602060405180830381600087803b15801561188157600080fd5b505af1158015611895573d6000803e3d6000fd5b505050506040513d601f19601f820116820180604052508101906118b99190612045565b6118f8576040517f08c379a00000000000000000000000000000000000000000000000000000000081526004016118ef906127bb565b60405180910390fd5b949350505050565b6000600a8260f81c60ff16101561192b5760308260f81c61192191906129b7565b60f81b9050611941565b60578260f81c61193b91906129b7565b60f81b90505b919050565b61194e611f64565b600060208361195d9190612e58565b146119895760208261196f9190612e58565b602061197b9190612c56565b826119869190612961565b91505b81836020018181525050604051808452600081528281016020016040525082905092915050565b60178167ffffffffffffffff16116119e7576119e18160058460ff16901b60ff161784611b5790919063ffffffff16565b50611b30565b60ff8167ffffffffffffffff1611611a3d57611a16601860058460ff16901b1784611b5790919063ffffffff16565b50611a378167ffffffffffffffff16600185611b779092919063ffffffff16565b50611b2f565b61ffff8167ffffffffffffffff1611611a9457611a6d601960058460ff16901b1784611b5790919063ffffffff16565b50611a8e8167ffffffffffffffff16600285611b779092919063ffffffff16565b50611b2e565b63ffffffff8167ffffffffffffffff1611611aed57611ac6601a60058460ff16901b1784611b5790919063ffffffff16565b50611ae78167ffffffffffffffff16600485611b779092919063ffffffff16565b50611b2d565b611b0a601b60058460ff16901b1784611b5790919063ffffffff16565b50611b2b8167ffffffffffffffff16600885611b779092919063ffffffff16565b505b5b5b5b505050565b611b3d611f64565b611b4f83846000015151848551611b99565b905092915050565b611b5f611f64565b611b6f8384600001515184611c88565b905092915050565b611b7f611f64565b611b90848560000151518585611cdf565b90509392505050565b611ba1611f64565b8251821115611baf57600080fd5b84602001518285611bc09190612961565b1115611bf557611bf4856002611be588602001518887611be09190612961565b611d6d565b611bef9190612bc1565b611d89565b5b600080865180518760208301019350808887011115611c145787860182525b60208701925050505b60208410611c5b5780518252602082611c369190612961565b9150602081611c459190612961565b9050602084611c549190612c56565b9350611c1d565b60006001856020036101000a03905080198251168184511681811785525050508692505050949350505050565b611c90611f64565b83602001518310611cb657611cb58460028660200151611cb09190612bc1565b611d89565b5b8351805160208583010184815381861415611cd2576001820183525b5050508390509392505050565b611ce7611f64565b84602001518483611cf89190612961565b1115611d2057611d1f8560028685611d109190612961565b611d1a9190612bc1565b611d89565b5b6000600183610100611d329190612aa3565b611d3c9190612c56565b90508551838682010185831982511617815281518588011115611d5f5784870182525b505085915050949350505050565b600081831115611d7f57829050611d83565b8190505b92915050565b600082600001519050611d9c8383611946565b50611da78382611b35565b50505050565b828054611db990612daf565b90600052602060002090601f016020900481019282611ddb5760008555611e22565b82601f10611df457805160ff1916838001178555611e22565b82800160010185558215611e22579182015b82811115611e21578251825591602001919060010190611e06565b5b509050611e2f9190611f7e565b5090565b6040518060800160405280606081526020016000815260200160608152602001600073ffffffffffffffffffffffffffffffffffffffff1681525090565b828054611e7d90612daf565b90600052602060002090601f016020900481019282611e9f5760008555611ee6565b82601f10611eb857803560ff1916838001178555611ee6565b82800160010185558215611ee6579182015b82811115611ee5578235825591602001919060010190611eca565b5b509050611ef39190611f7e565b5090565b6040518060a0016040528060008019168152602001600073ffffffffffffffffffffffffffffffffffffffff16815260200160007bffffffffffffffffffffffffffffffffffffffffffffffffffffffff1916815260200160008152602001611f5e611f64565b81525090565b604051806040016040528060608152602001600081525090565b5b80821115611f97576000816000905550600101611f7f565b5090565b600081519050611faa81613213565b92915050565b600081359050611fbf8161322a565b92915050565b60008083601f840112611fdb57611fda612f79565b5b8235905067ffffffffffffffff811115611ff857611ff7612f74565b5b60208301915083600182028301111561201457612013612f7e565b5b9250929050565b60008135905061202a81613241565b92915050565b60008151905061203f81613241565b92915050565b60006020828403121561205b5761205a612f88565b5b600061206984828501611f9b565b91505092915050565b6000806040838503121561208957612088612f88565b5b600061209785828601611fb0565b92505060206120a88582860161201b565b9150509250929050565b600080602083850312156120c9576120c8612f88565b5b600083013567ffffffffffffffff8111156120e7576120e6612f83565b5b6120f385828601611fc5565b92509250509250929050565b60008060006040848603121561211857612117612f88565b5b600084013567ffffffffffffffff81111561213657612135612f83565b5b61214286828701611fc5565b935093505060206121558682870161201b565b9150509250925092565b60006020828403121561217557612174612f88565b5b600061218384828501612030565b91505092915050565b61219581612cbe565b82525050565b6121a481612cbe565b82525050565b6121b381612cd0565b82525050565b6121c281612cdc565b82525050565b6121d181612ce6565b82525050565b60006121e28261290d565b6121ec8185612923565b93506121fc818560208601612d7c565b61220581612f8d565b840191505092915050565b61222161221c82612d49565b612e2a565b82525050565b60006122338385612956565b9350612240838584612d6d565b82840190509392505050565b600061225782612918565b6122618185612934565b9350612271818560208601612d7c565b61227a81612f8d565b840191505092915050565b600061229082612918565b61229a8185612956565b93506122aa818560208601612d7c565b80840191505092915050565b600081546122c381612daf565b6122cd8186612956565b945060018216600081146122e857600181146122f95761232c565b60ff1983168652818601935061232c565b612302856128f8565b60005b8381101561232457815481890152600182019150602081019050612305565b838801955050505b50505092915050565b6000612342601c83612945565b915061234d82612fb8565b602082019050919050565b6000612365600283612956565b915061237082612fe1565b600282019050919050565b6000612388602383612945565b91506123938261300a565b604082019050919050565b60006123ab602083612945565b91506123b682613059565b602082019050919050565b60006123ce602583612945565b91506123d982613082565b604082019050919050565b60006123f1600983612945565b91506123fc826130d1565b602082019050919050565b6000612414601e83612945565b915061241f826130fa565b602082019050919050565b6000612437602883612945565b915061244282613123565b604082019050919050565b600061245a602283612945565b915061246582613172565b604082019050919050565b600061247d601483612945565b9150612488826131c1565b602082019050919050565b60006124a0601f83612945565b91506124ab826131ea565b602082019050919050565b600060808301600083015184820360008601526124d3828261224c565b91505060208301516124e86020860182612520565b5060408301518482036040860152612500828261224c565b9150506060830151612515606086018261218c565b508091505092915050565b61252981612d32565b82525050565b61253881612d32565b82525050565b61254f61254a82612d32565b612e4e565b82525050565b60006125618285612210565b601482019150612571828461253e565b6020820191508190509392505050565b600061258e828486612227565b91508190509392505050565b60006125a682846122b6565b915081905092915050565b60006125bd82896122b6565b91506125c98288612285565b91506125d58287612285565b91506125e082612358565b91506125ec8286612285565b91506125f88285612285565b91506126048284612285565b9150819050979650505050505050565b6000602082019050612629600083018461219b565b92915050565b6000606082019050612644600083018661219b565b612651602083018561219b565b61265e604083018461252f565b949350505050565b600060408201905061267b600083018561219b565b612688602083018461252f565b9392505050565b6000610100820190506126a5600083018b61219b565b6126b2602083018a61252f565b6126bf60408301896121b9565b6126cc606083018861219b565b6126d960808301876121c8565b6126e660a083018661252f565b6126f360c083018561252f565b81810360e083015261270581846121d7565b90509998505050505050505050565b6000606082019050612729600083018661219b565b612736602083018561252f565b818103604083015261274881846121d7565b9050949350505050565b600060408201905061276760008301846121aa565b8181036020830152612778816123e4565b905092915050565b600060208201905061279560008301846121b9565b92915050565b600060208201905081810360008301526127b481612335565b9050919050565b600060208201905081810360008301526127d48161237b565b9050919050565b600060208201905081810360008301526127f48161239e565b9050919050565b60006020820190508181036000830152612814816123c1565b9050919050565b6000602082019050818103600083015261283481612407565b9050919050565b600060208201905081810360008301526128548161242a565b9050919050565b600060208201905081810360008301526128748161244d565b9050919050565b6000602082019050818103600083015261289481612470565b9050919050565b600060208201905081810360008301526128b481612493565b9050919050565b600060208201905081810360008301526128d581846124b6565b905092915050565b60006020820190506128f2600083018461252f565b92915050565b60008190508160005260206000209050919050565b600081519050919050565b600081519050919050565b600082825260208201905092915050565b600082825260208201905092915050565b600082825260208201905092915050565b600081905092915050565b600061296c82612d32565b915061297783612d32565b9250827fffffffffffffffffffffffffffffffffffffffffffffffffffffffffffffffff038211156129ac576129ab612e89565b5b828201905092915050565b60006129c282612d3c565b91506129cd83612d3c565b92508260ff038211156129e3576129e2612e89565b5b828201905092915050565b60006129f982612d32565b9150612a0483612d32565b925082612a1457612a13612eb8565b5b828204905092915050565b6000612a2a82612d3c565b9150612a3583612d3c565b925082612a4557612a44612eb8565b5b828204905092915050565b6000808291508390505b6001851115612a9a57808604811115612a7657612a75612e89565b5b6001851615612a855780820291505b8081029050612a9385612fab565b9450612a5a565b94509492505050565b6000612aae82612d32565b9150612ab983612d32565b9250612ae67fffffffffffffffffffffffffffffffffffffffffffffffffffffffffffffffff8484612aee565b905092915050565b600082612afe5760019050612bba565b81612b0c5760009050612bba565b8160018114612b225760028114612b2c57612b5b565b6001915050612bba565b60ff841115612b3e57612b3d612e89565b5b8360020a915084821115612b5557612b54612e89565b5b50612bba565b5060208310610133831016604e8410600b8410161715612b905782820a905083811115612b8b57612b8a612e89565b5b612bba565b612b9d8484846001612a50565b92509050818404811115612bb457612bb3612e89565b5b81810290505b9392505050565b6000612bcc82612d32565b9150612bd783612d32565b9250817fffffffffffffffffffffffffffffffffffffffffffffffffffffffffffffffff0483118215151615612c1057612c0f612e89565b5b828202905092915050565b6000612c2682612d3c565b9150612c3183612d3c565b92508160ff0483118215151615612c4b57612c4a612e89565b5b828202905092915050565b6000612c6182612d32565b9150612c6c83612d32565b925082821015612c7f57612c7e612e89565b5b828203905092915050565b6000612c9582612d3c565b9150612ca083612d3c565b925082821015612cb357612cb2612e89565b5b828203905092915050565b6000612cc982612d12565b9050919050565b60008115159050919050565b6000819050919050565b60007fffffffff0000000000000000000000000000000000000000000000000000000082169050919050565b600073ffffffffffffffffffffffffffffffffffffffff82169050919050565b6000819050919050565b600060ff82169050919050565b6000612d5482612d5b565b9050919050565b6000612d6682612d12565b9050919050565b82818337600083830152505050565b60005b83811015612d9a578082015181840152602081019050612d7f565b83811115612da9576000848401525b50505050565b60006002820490506001821680612dc757607f821691505b60208210811415612ddb57612dda612ee7565b5b50919050565b6000612dec82612d32565b91507fffffffffffffffffffffffffffffffffffffffffffffffffffffffffffffffff821415612e1f57612e1e612e89565b5b600182019050919050565b6000612e3582612e3c565b9050919050565b6000612e4782612f9e565b9050919050565b6000819050919050565b6000612e6382612d32565b9150612e6e83612d32565b925082612e7e57612e7d612eb8565b5b828206905092915050565b7f4e487b7100000000000000000000000000000000000000000000000000000000600052601160045260246000fd5b7f4e487b7100000000000000000000000000000000000000000000000000000000600052601260045260246000fd5b7f4e487b7100000000000000000000000000000000000000000000000000000000600052602260045260246000fd5b7f4e487b7100000000000000000000000000000000000000000000000000000000600052603260045260246000fd5b7f4e487b7100000000000000000000000000000000000000000000000000000000600052604160045260246000fd5b600080fd5b600080fd5b600080fd5b600080fd5b600080fd5b6000601f19601f8301169050919050565b60008160601b9050919050565b60008160011c9050919050565b7f596f7520646f6e74206861766520656e6f7567682062616c616e636500000000600082015250565b7f3078000000000000000000000000000000000000000000000000000000000000600082015250565b7f756e61626c6520746f207472616e73666572416e6443616c6c20746f206f726160008201527f636c650000000000000000000000000000000000000000000000000000000000602082015250565b7f5769746864726177616c207472616e73616374696f6e206e6f7420666f756e64600082015250565b7f5769746864726177616c207472616e73616374696f6e20616c7265616479206560008201527f7869737473000000000000000000000000000000000000000000000000000000602082015250565b7f436f6e6669726d65640000000000000000000000000000000000000000000000600082015250565b7f4465706f736974207472616e73616374696f6e73206e6f7420666f756e640000600082015250565b7f536f75726365206d75737420626520746865206f7261636c65206f662074686560008201527f2072657175657374000000000000000000000000000000000000000000000000602082015250565b7f4465706f736974207472616e73616374696f6e20616c7265616479206578697360008201527f7473000000000000000000000000000000000000000000000000000000000000602082015250565b7f6e6f742076616c6964207769746864726177616c000000000000000000000000600082015250565b7f5265656e7472616e637947756172643a207265656e7472616e742063616c6c00600082015250565b61321c81612cd0565b811461322757600080fd5b50565b61323381612cdc565b811461323e57600080fd5b50565b61324a81612d32565b811461325557600080fd5b5056fea264697066735822122026b29d216d5b2f216ba8a2d3c1ad053018b76186c1aef376d37ab1a6b82dde7a64736f6c6343000806003368747470733a2f2f62757374616269742d6170692e6b6179616b2d73747564696f2e636f6d2f6170692f76312f7472616e73616374696f6e732f76616c69646174653f7472616e73616374696f6e49643d",
			"opcodes": "PUSH1 0x80 PUSH1 0x40 MSTORE PUSH1 0x1 PUSH1 0x5 SSTORE CALLVALUE DUP1 ISZERO PUSH3 0x16 JUMPI PUSH1 0x0 DUP1 REVERT JUMPDEST POP PUSH1 0x1 PUSH1 0x0 DUP2 SWAP1 SSTORE POP PUSH20 0xAD19042402BA0892B0BAB9AE28C475183D624A75 PUSH1 0x7 PUSH1 0x0 PUSH2 0x100 EXP DUP2 SLOAD DUP2 PUSH20 0xFFFFFFFFFFFFFFFFFFFFFFFFFFFFFFFFFFFFFFFF MUL NOT AND SWAP1 DUP4 PUSH20 0xFFFFFFFFFFFFFFFFFFFFFFFFFFFFFFFFFFFFFFFF AND MUL OR SWAP1 SSTORE POP PUSH3 0x84 PUSH3 0x146 PUSH1 0x20 SHL PUSH1 0x20 SHR JUMP JUMPDEST PUSH20 0x3A56AE4A2831C3D3514B5D7AF5578E45EBDB7A40 PUSH1 0xB PUSH1 0x0 PUSH2 0x100 EXP DUP2 SLOAD DUP2 PUSH20 0xFFFFFFFFFFFFFFFFFFFFFFFFFFFFFFFFFFFFFFFF MUL NOT AND SWAP1 DUP4 PUSH20 0xFFFFFFFFFFFFFFFFFFFFFFFFFFFFFFFFFFFFFFFF AND MUL OR SWAP1 SSTORE POP PUSH32 0x3362376361306434386337613462326461393236383435363636356431316165 PUSH1 0xC DUP2 SWAP1 SSTORE POP PUSH7 0x2386F26FC10000 PUSH1 0xD DUP2 SWAP1 SSTORE POP PUSH1 0x40 MLOAD DUP1 PUSH1 0x80 ADD PUSH1 0x40 MSTORE DUP1 PUSH1 0x51 DUP2 MSTORE PUSH1 0x20 ADD PUSH3 0x3681 PUSH1 0x51 SWAP2 CODECOPY PUSH1 0x11 SWAP1 DUP1 MLOAD SWAP1 PUSH1 0x20 ADD SWAP1 PUSH3 0x13F SWAP3 SWAP2 SWAP1 PUSH3 0x232 JUMP JUMPDEST POP PUSH3 0x3E3 JUMP JUMPDEST PUSH3 0x1EC PUSH20 0xC89BD4E1632D3A43CB03AAAD5262CBE4038BC571 PUSH20 0xFFFFFFFFFFFFFFFFFFFFFFFFFFFFFFFFFFFFFFFF AND PUSH4 0x38CC4831 PUSH1 0x40 MLOAD DUP2 PUSH4 0xFFFFFFFF AND PUSH1 0xE0 SHL DUP2 MSTORE PUSH1 0x4 ADD PUSH1 0x20 PUSH1 0x40 MLOAD DUP1 DUP4 SUB DUP2 DUP7 DUP1 EXTCODESIZE ISZERO DUP1 ISZERO PUSH3 0x1A5 JUMPI PUSH1 0x0 DUP1 REVERT JUMPDEST POP GAS STATICCALL ISZERO DUP1 ISZERO PUSH3 0x1BA JUMPI RETURNDATASIZE PUSH1 0x0 DUP1 RETURNDATACOPY RETURNDATASIZE PUSH1 0x0 REVERT JUMPDEST POP POP POP POP PUSH1 0x40 MLOAD RETURNDATASIZE PUSH1 0x1F NOT PUSH1 0x1F DUP3 ADD AND DUP3 ADD DUP1 PUSH1 0x40 MSTORE POP DUP2 ADD SWAP1 PUSH3 0x1E0 SWAP2 SWAP1 PUSH3 0x2F9 JUMP JUMPDEST PUSH3 0x1EE PUSH1 0x20 SHL PUSH1 0x20 SHR JUMP JUMPDEST JUMP JUMPDEST DUP1 PUSH1 0x3 PUSH1 0x0 PUSH2 0x100 EXP DUP2 SLOAD DUP2 PUSH20 0xFFFFFFFFFFFFFFFFFFFFFFFFFFFFFFFFFFFFFFFF MUL NOT AND SWAP1 DUP4 PUSH20 0xFFFFFFFFFFFFFFFFFFFFFFFFFFFFFFFFFFFFFFFF AND MUL OR SWAP1 SSTORE POP POP JUMP JUMPDEST DUP3 DUP1 SLOAD PUSH3 0x240 SWAP1 PUSH3 0x35F JUMP JUMPDEST SWAP1 PUSH1 0x0 MSTORE PUSH1 0x20 PUSH1 0x0 KECCAK256 SWAP1 PUSH1 0x1F ADD PUSH1 0x20 SWAP1 DIV DUP2 ADD SWAP3 DUP3 PUSH3 0x264 JUMPI PUSH1 0x0 DUP6 SSTORE PUSH3 0x2B0 JUMP JUMPDEST DUP3 PUSH1 0x1F LT PUSH3 0x27F JUMPI DUP1 MLOAD PUSH1 0xFF NOT AND DUP4 DUP1 ADD OR DUP6 SSTORE PUSH3 0x2B0 JUMP JUMPDEST DUP3 DUP1 ADD PUSH1 0x1 ADD DUP6 SSTORE DUP3 ISZERO PUSH3 0x2B0 JUMPI SWAP2 DUP3 ADD JUMPDEST DUP3 DUP2 GT ISZERO PUSH3 0x2AF JUMPI DUP3 MLOAD DUP3 SSTORE SWAP2 PUSH1 0x20 ADD SWAP2 SWAP1 PUSH1 0x1 ADD SWAP1 PUSH3 0x292 JUMP JUMPDEST JUMPDEST POP SWAP1 POP PUSH3 0x2BF SWAP2 SWAP1 PUSH3 0x2C3 JUMP JUMPDEST POP SWAP1 JUMP JUMPDEST JUMPDEST DUP1 DUP3 GT ISZERO PUSH3 0x2DE JUMPI PUSH1 0x0 DUP2 PUSH1 0x0 SWAP1 SSTORE POP PUSH1 0x1 ADD PUSH3 0x2C4 JUMP JUMPDEST POP SWAP1 JUMP JUMPDEST PUSH1 0x0 DUP2 MLOAD SWAP1 POP PUSH3 0x2F3 DUP2 PUSH3 0x3C9 JUMP JUMPDEST SWAP3 SWAP2 POP POP JUMP JUMPDEST PUSH1 0x0 PUSH1 0x20 DUP3 DUP5 SUB SLT ISZERO PUSH3 0x312 JUMPI PUSH3 0x311 PUSH3 0x3C4 JUMP JUMPDEST JUMPDEST PUSH1 0x0 PUSH3 0x322 DUP5 DUP3 DUP6 ADD PUSH3 0x2E2 JUMP JUMPDEST SWAP2 POP POP SWAP3 SWAP2 POP POP JUMP JUMPDEST PUSH1 0x0 PUSH3 0x338 DUP3 PUSH3 0x33F JUMP JUMPDEST SWAP1 POP SWAP2 SWAP1 POP JUMP JUMPDEST PUSH1 0x0 PUSH20 0xFFFFFFFFFFFFFFFFFFFFFFFFFFFFFFFFFFFFFFFF DUP3 AND SWAP1 POP SWAP2 SWAP1 POP JUMP JUMPDEST PUSH1 0x0 PUSH1 0x2 DUP3 DIV SWAP1 POP PUSH1 0x1 DUP3 AND DUP1 PUSH3 0x378 JUMPI PUSH1 0x7F DUP3 AND SWAP2 POP JUMPDEST PUSH1 0x20 DUP3 LT DUP2 EQ ISZERO PUSH3 0x38F JUMPI PUSH3 0x38E PUSH3 0x395 JUMP JUMPDEST JUMPDEST POP SWAP2 SWAP1 POP JUMP JUMPDEST PUSH32 0x4E487B7100000000000000000000000000000000000000000000000000000000 PUSH1 0x0 MSTORE PUSH1 0x22 PUSH1 0x4 MSTORE PUSH1 0x24 PUSH1 0x0 REVERT JUMPDEST PUSH1 0x0 DUP1 REVERT JUMPDEST PUSH3 0x3D4 DUP2 PUSH3 0x32B JUMP JUMPDEST DUP2 EQ PUSH3 0x3E0 JUMPI PUSH1 0x0 DUP1 REVERT JUMPDEST POP JUMP JUMPDEST PUSH2 0x328E DUP1 PUSH3 0x3F3 PUSH1 0x0 CODECOPY PUSH1 0x0 RETURN INVALID PUSH1 0x80 PUSH1 0x40 MSTORE CALLVALUE DUP1 ISZERO PUSH2 0x10 JUMPI PUSH1 0x0 DUP1 REVERT JUMPDEST POP PUSH1 0x4 CALLDATASIZE LT PUSH2 0x88 JUMPI PUSH1 0x0 CALLDATALOAD PUSH1 0xE0 SHR DUP1 PUSH4 0xC618A1E4 GT PUSH2 0x5B JUMPI DUP1 PUSH4 0xC618A1E4 EQ PUSH2 0x125 JUMPI DUP1 PUSH4 0xC67BBC24 EQ PUSH2 0x143 JUMPI DUP1 PUSH4 0xD0BECB39 EQ PUSH2 0x161 JUMPI DUP1 PUSH4 0xE4128FB3 EQ PUSH2 0x191 JUMPI PUSH2 0x88 JUMP JUMPDEST DUP1 PUSH4 0x4357855E EQ PUSH2 0x8D JUMPI DUP1 PUSH4 0x4FA933EF EQ PUSH2 0xA9 JUMPI DUP1 PUSH4 0x8E27D719 EQ PUSH2 0xD9 JUMPI DUP1 PUSH4 0x9DF09D92 EQ PUSH2 0xF5 JUMPI JUMPDEST PUSH1 0x0 DUP1 REVERT JUMPDEST PUSH2 0xA7 PUSH1 0x4 DUP1 CALLDATASIZE SUB DUP2 ADD SWAP1 PUSH2 0xA2 SWAP2 SWAP1 PUSH2 0x2072 JUMP JUMPDEST PUSH2 0x1AF JUMP JUMPDEST STOP JUMPDEST PUSH2 0xC3 PUSH1 0x4 DUP1 CALLDATASIZE SUB DUP2 ADD SWAP1 PUSH2 0xBE SWAP2 SWAP1 PUSH2 0x20B2 JUMP JUMPDEST PUSH2 0x5F7 JUMP JUMPDEST PUSH1 0x40 MLOAD PUSH2 0xD0 SWAP2 SWAP1 PUSH2 0x28BB JUMP JUMPDEST PUSH1 0x40 MLOAD DUP1 SWAP2 SUB SWAP1 RETURN JUMPDEST PUSH2 0xF3 PUSH1 0x4 DUP1 CALLDATASIZE SUB DUP2 ADD SWAP1 PUSH2 0xEE SWAP2 SWAP1 PUSH2 0x20FF JUMP JUMPDEST PUSH2 0x821 JUMP JUMPDEST STOP JUMPDEST PUSH2 0x10F PUSH1 0x4 DUP1 CALLDATASIZE SUB DUP2 ADD SWAP1 PUSH2 0x10A SWAP2 SWAP1 PUSH2 0x20FF JUMP JUMPDEST PUSH2 0xC62 JUMP JUMPDEST PUSH1 0x40 MLOAD PUSH2 0x11C SWAP2 SWAP1 PUSH2 0x2780 JUMP JUMPDEST PUSH1 0x40 MLOAD DUP1 SWAP2 SUB SWAP1 RETURN JUMPDEST PUSH2 0x12D PUSH2 0xF33 JUMP JUMPDEST PUSH1 0x40 MLOAD PUSH2 0x13A SWAP2 SWAP1 PUSH2 0x28DD JUMP JUMPDEST PUSH1 0x40 MLOAD DUP1 SWAP2 SUB SWAP1 RETURN JUMPDEST PUSH2 0x14B PUSH2 0xF39 JUMP JUMPDEST PUSH1 0x40 MLOAD PUSH2 0x158 SWAP2 SWAP1 PUSH2 0x28DD JUMP JUMPDEST PUSH1 0x40 MLOAD DUP1 SWAP2 SUB SWAP1 RETURN JUMPDEST PUSH2 0x17B PUSH1 0x4 DUP1 CALLDATASIZE SUB DUP2 ADD SWAP1 PUSH2 0x176 SWAP2 SWAP1 PUSH2 0x20B2 JUMP JUMPDEST PUSH2 0xF43 JUMP JUMPDEST PUSH1 0x40 MLOAD PUSH2 0x188 SWAP2 SWAP1 PUSH2 0x28BB JUMP JUMPDEST PUSH1 0x40 MLOAD DUP1 SWAP2 SUB SWAP1 RETURN JUMPDEST PUSH2 0x199 PUSH2 0x116D JUMP JUMPDEST PUSH1 0x40 MLOAD PUSH2 0x1A6 SWAP2 SWAP1 PUSH2 0x2614 JUMP JUMPDEST PUSH1 0x40 MLOAD DUP1 SWAP2 SUB SWAP1 RETURN JUMPDEST DUP2 PUSH1 0x6 PUSH1 0x0 DUP3 DUP2 MSTORE PUSH1 0x20 ADD SWAP1 DUP2 MSTORE PUSH1 0x20 ADD PUSH1 0x0 KECCAK256 PUSH1 0x0 SWAP1 SLOAD SWAP1 PUSH2 0x100 EXP SWAP1 DIV PUSH20 0xFFFFFFFFFFFFFFFFFFFFFFFFFFFFFFFFFFFFFFFF AND PUSH20 0xFFFFFFFFFFFFFFFFFFFFFFFFFFFFFFFFFFFFFFFF AND CALLER PUSH20 0xFFFFFFFFFFFFFFFFFFFFFFFFFFFFFFFFFFFFFFFF AND EQ PUSH2 0x251 JUMPI PUSH1 0x40 MLOAD PUSH32 0x8C379A000000000000000000000000000000000000000000000000000000000 DUP2 MSTORE PUSH1 0x4 ADD PUSH2 0x248 SWAP1 PUSH2 0x283B JUMP JUMPDEST PUSH1 0x40 MLOAD DUP1 SWAP2 SUB SWAP1 REVERT JUMPDEST PUSH1 0x6 PUSH1 0x0 DUP3 DUP2 MSTORE PUSH1 0x20 ADD SWAP1 DUP2 MSTORE PUSH1 0x20 ADD PUSH1 0x0 KECCAK256 PUSH1 0x0 PUSH2 0x100 EXP DUP2 SLOAD SWAP1 PUSH20 0xFFFFFFFFFFFFFFFFFFFFFFFFFFFFFFFFFFFFFFFF MUL NOT AND SWAP1 SSTORE DUP1 PUSH32 0x7CC135E0CEBB02C3480AE5D74D377283180A2601F8F644EDF7987B009316C63A PUSH1 0x40 MLOAD PUSH1 0x40 MLOAD DUP1 SWAP2 SUB SWAP1 LOG2 DUP2 PUSH1 0xA DUP2 SWAP1 SSTORE POP PUSH1 0x1 PUSH1 0xA SLOAD EQ PUSH2 0x300 JUMPI PUSH1 0x40 MLOAD PUSH32 0x8C379A000000000000000000000000000000000000000000000000000000000 DUP2 MSTORE PUSH1 0x4 ADD PUSH2 0x2F7 SWAP1 PUSH2 0x287B JUMP JUMPDEST PUSH1 0x40 MLOAD DUP1 SWAP2 SUB SWAP1 REVERT JUMPDEST PUSH1 0x0 PUSH1 0x40 MLOAD DUP1 PUSH1 0x80 ADD PUSH1 0x40 MSTORE DUP1 PUSH1 0xF DUP1 SLOAD PUSH2 0x31A SWAP1 PUSH2 0x2DAF JUMP JUMPDEST DUP1 PUSH1 0x1F ADD PUSH1 0x20 DUP1 SWAP2 DIV MUL PUSH1 0x20 ADD PUSH1 0x40 MLOAD SWAP1 DUP2 ADD PUSH1 0x40 MSTORE DUP1 SWAP3 SWAP2 SWAP1 DUP2 DUP2 MSTORE PUSH1 0x20 ADD DUP3 DUP1 SLOAD PUSH2 0x346 SWAP1 PUSH2 0x2DAF JUMP JUMPDEST DUP1 ISZERO PUSH2 0x393 JUMPI DUP1 PUSH1 0x1F LT PUSH2 0x368 JUMPI PUSH2 0x100 DUP1 DUP4 SLOAD DIV MUL DUP4 MSTORE SWAP2 PUSH1 0x20 ADD SWAP2 PUSH2 0x393 JUMP JUMPDEST DUP3 ADD SWAP2 SWAP1 PUSH1 0x0 MSTORE PUSH1 0x20 PUSH1 0x0 KECCAK256 SWAP1 JUMPDEST DUP2 SLOAD DUP2 MSTORE SWAP1 PUSH1 0x1 ADD SWAP1 PUSH1 0x20 ADD DUP1 DUP4 GT PUSH2 0x376 JUMPI DUP3 SWAP1 SUB PUSH1 0x1F AND DUP3 ADD SWAP2 JUMPDEST POP POP POP POP POP DUP2 MSTORE PUSH1 0x20 ADD PUSH1 0xE SLOAD DUP2 MSTORE PUSH1 0x20 ADD PUSH1 0x40 MLOAD DUP1 PUSH1 0x40 ADD PUSH1 0x40 MSTORE DUP1 PUSH1 0x3 DUP2 MSTORE PUSH1 0x20 ADD PUSH32 0x6465630000000000000000000000000000000000000000000000000000000000 DUP2 MSTORE POP DUP2 MSTORE PUSH1 0x20 ADD PUSH1 0x10 PUSH1 0x0 SWAP1 SLOAD SWAP1 PUSH2 0x100 EXP SWAP1 DIV PUSH20 0xFFFFFFFFFFFFFFFFFFFFFFFFFFFFFFFFFFFFFFFF AND PUSH20 0xFFFFFFFFFFFFFFFFFFFFFFFFFFFFFFFFFFFFFFFF AND DUP2 MSTORE POP SWAP1 POP DUP1 PUSH1 0x9 PUSH1 0xF PUSH1 0x40 MLOAD PUSH2 0x430 SWAP2 SWAP1 PUSH2 0x259A JUMP JUMPDEST SWAP1 DUP2 MSTORE PUSH1 0x20 ADD PUSH1 0x40 MLOAD DUP1 SWAP2 SUB SWAP1 KECCAK256 PUSH1 0x0 DUP3 ADD MLOAD DUP2 PUSH1 0x0 ADD SWAP1 DUP1 MLOAD SWAP1 PUSH1 0x20 ADD SWAP1 PUSH2 0x45A SWAP3 SWAP2 SWAP1 PUSH2 0x1DAD JUMP JUMPDEST POP PUSH1 0x20 DUP3 ADD MLOAD DUP2 PUSH1 0x1 ADD SSTORE PUSH1 0x40 DUP3 ADD MLOAD DUP2 PUSH1 0x2 ADD SWAP1 DUP1 MLOAD SWAP1 PUSH1 0x20 ADD SWAP1 PUSH2 0x481 SWAP3 SWAP2 SWAP1 PUSH2 0x1DAD JUMP JUMPDEST POP PUSH1 0x60 DUP3 ADD MLOAD DUP2 PUSH1 0x3 ADD PUSH1 0x0 PUSH2 0x100 EXP DUP2 SLOAD DUP2 PUSH20 0xFFFFFFFFFFFFFFFFFFFFFFFFFFFFFFFFFFFFFFFF MUL NOT AND SWAP1 DUP4 PUSH20 0xFFFFFFFFFFFFFFFFFFFFFFFFFFFFFFFFFFFFFFFF AND MUL OR SWAP1 SSTORE POP SWAP1 POP POP PUSH1 0x0 PUSH1 0x7 PUSH1 0x0 SWAP1 SLOAD SWAP1 PUSH2 0x100 EXP SWAP1 DIV PUSH20 0xFFFFFFFFFFFFFFFFFFFFFFFFFFFFFFFFFFFFFFFF AND SWAP1 POP DUP1 PUSH20 0xFFFFFFFFFFFFFFFFFFFFFFFFFFFFFFFFFFFFFFFF AND PUSH4 0xA9059CBB PUSH1 0x10 PUSH1 0x0 SWAP1 SLOAD SWAP1 PUSH2 0x100 EXP SWAP1 DIV PUSH20 0xFFFFFFFFFFFFFFFFFFFFFFFFFFFFFFFFFFFFFFFF AND PUSH8 0xDE0B6B3A7640000 PUSH1 0xE SLOAD PUSH2 0x548 SWAP2 SWAP1 PUSH2 0x2BC1 JUMP JUMPDEST PUSH1 0x40 MLOAD DUP4 PUSH4 0xFFFFFFFF AND PUSH1 0xE0 SHL DUP2 MSTORE PUSH1 0x4 ADD PUSH2 0x565 SWAP3 SWAP2 SWAP1 PUSH2 0x2666 JUMP JUMPDEST PUSH1 0x20 PUSH1 0x40 MLOAD DUP1 DUP4 SUB DUP2 PUSH1 0x0 DUP8 DUP1 EXTCODESIZE ISZERO DUP1 ISZERO PUSH2 0x57F JUMPI PUSH1 0x0 DUP1 REVERT JUMPDEST POP GAS CALL ISZERO DUP1 ISZERO PUSH2 0x593 JUMPI RETURNDATASIZE PUSH1 0x0 DUP1 RETURNDATACOPY RETURNDATASIZE PUSH1 0x0 REVERT JUMPDEST POP POP POP POP PUSH1 0x40 MLOAD RETURNDATASIZE PUSH1 0x1F NOT PUSH1 0x1F DUP3 ADD AND DUP3 ADD DUP1 PUSH1 0x40 MSTORE POP DUP2 ADD SWAP1 PUSH2 0x5B7 SWAP2 SWAP1 PUSH2 0x2045 JUMP JUMPDEST POP PUSH32 0xA73F1BD2BA7F3BA7B9AFA2290230606F097D953D6EC43D5D3644574DBC6052DE PUSH1 0x1 PUSH1 0x40 MLOAD PUSH2 0x5E8 SWAP2 SWAP1 PUSH2 0x2752 JUMP JUMPDEST PUSH1 0x40 MLOAD DUP1 SWAP2 SUB SWAP1 LOG1 POP POP POP POP POP JUMP JUMPDEST PUSH2 0x5FF PUSH2 0x1E33 JUMP JUMPDEST DUP3 DUP3 PUSH1 0x0 PUSH1 0x9 DUP4 DUP4 PUSH1 0x40 MLOAD PUSH2 0x615 SWAP3 SWAP2 SWAP1 PUSH2 0x2581 JUMP JUMPDEST SWAP1 DUP2 MSTORE PUSH1 0x20 ADD PUSH1 0x40 MLOAD DUP1 SWAP2 SUB SWAP1 KECCAK256 PUSH1 0x1 ADD SLOAD EQ ISZERO PUSH2 0x668 JUMPI PUSH1 0x40 MLOAD PUSH32 0x8C379A000000000000000000000000000000000000000000000000000000000 DUP2 MSTORE PUSH1 0x4 ADD PUSH2 0x65F SWAP1 PUSH2 0x27DB JUMP JUMPDEST PUSH1 0x40 MLOAD DUP1 SWAP2 SUB SWAP1 REVERT JUMPDEST PUSH1 0x9 DUP6 DUP6 PUSH1 0x40 MLOAD PUSH2 0x67A SWAP3 SWAP2 SWAP1 PUSH2 0x2581 JUMP JUMPDEST SWAP1 DUP2 MSTORE PUSH1 0x20 ADD PUSH1 0x40 MLOAD DUP1 SWAP2 SUB SWAP1 KECCAK256 PUSH1 0x40 MLOAD DUP1 PUSH1 0x80 ADD PUSH1 0x40 MSTORE SWAP1 DUP2 PUSH1 0x0 DUP3 ADD DUP1 SLOAD PUSH2 0x6A3 SWAP1 PUSH2 0x2DAF JUMP JUMPDEST DUP1 PUSH1 0x1F ADD PUSH1 0x20 DUP1 SWAP2 DIV MUL PUSH1 0x20 ADD PUSH1 0x40 MLOAD SWAP1 DUP2 ADD PUSH1 0x40 MSTORE DUP1 SWAP3 SWAP2 SWAP1 DUP2 DUP2 MSTORE PUSH1 0x20 ADD DUP3 DUP1 SLOAD PUSH2 0x6CF SWAP1 PUSH2 0x2DAF JUMP JUMPDEST DUP1 ISZERO PUSH2 0x71C JUMPI DUP1 PUSH1 0x1F LT PUSH2 0x6F1 JUMPI PUSH2 0x100 DUP1 DUP4 SLOAD DIV MUL DUP4 MSTORE SWAP2 PUSH1 0x20 ADD SWAP2 PUSH2 0x71C JUMP JUMPDEST DUP3 ADD SWAP2 SWAP1 PUSH1 0x0 MSTORE PUSH1 0x20 PUSH1 0x0 KECCAK256 SWAP1 JUMPDEST DUP2 SLOAD DUP2 MSTORE SWAP1 PUSH1 0x1 ADD SWAP1 PUSH1 0x20 ADD DUP1 DUP4 GT PUSH2 0x6FF JUMPI DUP3 SWAP1 SUB PUSH1 0x1F AND DUP3 ADD SWAP2 JUMPDEST POP POP POP POP POP DUP2 MSTORE PUSH1 0x20 ADD PUSH1 0x1 DUP3 ADD SLOAD DUP2 MSTORE PUSH1 0x20 ADD PUSH1 0x2 DUP3 ADD DUP1 SLOAD PUSH2 0x73F SWAP1 PUSH2 0x2DAF JUMP JUMPDEST DUP1 PUSH1 0x1F ADD PUSH1 0x20 DUP1 SWAP2 DIV MUL PUSH1 0x20 ADD PUSH1 0x40 MLOAD SWAP1 DUP2 ADD PUSH1 0x40 MSTORE DUP1 SWAP3 SWAP2 SWAP1 DUP2 DUP2 MSTORE PUSH1 0x20 ADD DUP3 DUP1 SLOAD PUSH2 0x76B SWAP1 PUSH2 0x2DAF JUMP JUMPDEST DUP1 ISZERO PUSH2 0x7B8 JUMPI DUP1 PUSH1 0x1F LT PUSH2 0x78D JUMPI PUSH2 0x100 DUP1 DUP4 SLOAD DIV MUL DUP4 MSTORE SWAP2 PUSH1 0x20 ADD SWAP2 PUSH2 0x7B8 JUMP JUMPDEST DUP3 ADD SWAP2 SWAP1 PUSH1 0x0 MSTORE PUSH1 0x20 PUSH1 0x0 KECCAK256 SWAP1 JUMPDEST DUP2 SLOAD DUP2 MSTORE SWAP1 PUSH1 0x1 ADD SWAP1 PUSH1 0x20 ADD DUP1 DUP4 GT PUSH2 0x79B JUMPI DUP3 SWAP1 SUB PUSH1 0x1F AND DUP3 ADD SWAP2 JUMPDEST POP POP POP POP POP DUP2 MSTORE PUSH1 0x20 ADD PUSH1 0x3 DUP3 ADD PUSH1 0x0 SWAP1 SLOAD SWAP1 PUSH2 0x100 EXP SWAP1 DIV PUSH20 0xFFFFFFFFFFFFFFFFFFFFFFFFFFFFFFFFFFFFFFFF AND PUSH20 0xFFFFFFFFFFFFFFFFFFFFFFFFFFFFFFFFFFFFFFFF AND PUSH20 0xFFFFFFFFFFFFFFFFFFFFFFFFFFFFFFFFFFFFFFFF AND DUP2 MSTORE POP POP SWAP3 POP POP POP SWAP3 SWAP2 POP POP JUMP JUMPDEST DUP1 PUSH1 0x0 PUSH1 0x7 PUSH1 0x0 SWAP1 SLOAD SWAP1 PUSH2 0x100 EXP SWAP1 DIV PUSH20 0xFFFFFFFFFFFFFFFFFFFFFFFFFFFFFFFFFFFFFFFF AND PUSH20 0xFFFFFFFFFFFFFFFFFFFFFFFFFFFFFFFFFFFFFFFF AND PUSH4 0x70A08231 CALLER PUSH1 0x40 MLOAD DUP3 PUSH4 0xFFFFFFFF AND PUSH1 0xE0 SHL DUP2 MSTORE PUSH1 0x4 ADD PUSH2 0x87F SWAP2 SWAP1 PUSH2 0x2614 JUMP JUMPDEST PUSH1 0x20 PUSH1 0x40 MLOAD DUP1 DUP4 SUB DUP2 DUP7 DUP1 EXTCODESIZE ISZERO DUP1 ISZERO PUSH2 0x897 JUMPI PUSH1 0x0 DUP1 REVERT JUMPDEST POP GAS STATICCALL ISZERO DUP1 ISZERO PUSH2 0x8AB JUMPI RETURNDATASIZE PUSH1 0x0 DUP1 RETURNDATACOPY RETURNDATASIZE PUSH1 0x0 REVERT JUMPDEST POP POP POP POP PUSH1 0x40 MLOAD RETURNDATASIZE PUSH1 0x1F NOT PUSH1 0x1F DUP3 ADD AND DUP3 ADD DUP1 PUSH1 0x40 MSTORE POP DUP2 ADD SWAP1 PUSH2 0x8CF SWAP2 SWAP1 PUSH2 0x215F JUMP JUMPDEST SWAP1 POP PUSH1 0x0 PUSH8 0xDE0B6B3A7640000 DUP4 PUSH2 0x8E7 SWAP2 SWAP1 PUSH2 0x2BC1 JUMP JUMPDEST SWAP1 POP DUP1 DUP3 LT ISZERO DUP1 ISZERO PUSH2 0x8FA JUMPI POP PUSH1 0x0 DUP2 EQ ISZERO JUMPDEST PUSH2 0x939 JUMPI PUSH1 0x40 MLOAD PUSH32 0x8C379A000000000000000000000000000000000000000000000000000000000 DUP2 MSTORE PUSH1 0x4 ADD PUSH2 0x930 SWAP1 PUSH2 0x279B JUMP JUMPDEST PUSH1 0x40 MLOAD DUP1 SWAP2 SUB SWAP1 REVERT JUMPDEST DUP6 DUP6 PUSH1 0x0 PUSH1 0x8 DUP4 DUP4 PUSH1 0x40 MLOAD PUSH2 0x94F SWAP3 SWAP2 SWAP1 PUSH2 0x2581 JUMP JUMPDEST SWAP1 DUP2 MSTORE PUSH1 0x20 ADD PUSH1 0x40 MLOAD DUP1 SWAP2 SUB SWAP1 KECCAK256 PUSH1 0x1 ADD SLOAD EQ PUSH2 0x9A1 JUMPI PUSH1 0x40 MLOAD PUSH32 0x8C379A000000000000000000000000000000000000000000000000000000000 DUP2 MSTORE PUSH1 0x4 ADD PUSH2 0x998 SWAP1 PUSH2 0x285B JUMP JUMPDEST PUSH1 0x40 MLOAD DUP1 SWAP2 SUB SWAP1 REVERT JUMPDEST PUSH1 0x2 PUSH1 0x0 SLOAD EQ ISZERO PUSH2 0x9E7 JUMPI PUSH1 0x40 MLOAD PUSH32 0x8C379A000000000000000000000000000000000000000000000000000000000 DUP2 MSTORE PUSH1 0x4 ADD PUSH2 0x9DE SWAP1 PUSH2 0x289B JUMP JUMPDEST PUSH1 0x40 MLOAD DUP1 SWAP2 SUB SWAP1 REVERT JUMPDEST PUSH1 0x2 PUSH1 0x0 DUP2 SWAP1 SSTORE POP PUSH1 0x7 PUSH1 0x0 SWAP1 SLOAD SWAP1 PUSH2 0x100 EXP SWAP1 DIV PUSH20 0xFFFFFFFFFFFFFFFFFFFFFFFFFFFFFFFFFFFFFFFF AND PUSH20 0xFFFFFFFFFFFFFFFFFFFFFFFFFFFFFFFFFFFFFFFF AND PUSH4 0x23B872DD CALLER ADDRESS PUSH8 0xDE0B6B3A7640000 DUP11 PUSH2 0xA43 SWAP2 SWAP1 PUSH2 0x2BC1 JUMP JUMPDEST PUSH1 0x40 MLOAD DUP5 PUSH4 0xFFFFFFFF AND PUSH1 0xE0 SHL DUP2 MSTORE PUSH1 0x4 ADD PUSH2 0xA61 SWAP4 SWAP3 SWAP2 SWAP1 PUSH2 0x262F JUMP JUMPDEST PUSH1 0x20 PUSH1 0x40 MLOAD DUP1 DUP4 SUB DUP2 PUSH1 0x0 DUP8 DUP1 EXTCODESIZE ISZERO DUP1 ISZERO PUSH2 0xA7B JUMPI PUSH1 0x0 DUP1 REVERT JUMPDEST POP GAS CALL ISZERO DUP1 ISZERO PUSH2 0xA8F JUMPI RETURNDATASIZE PUSH1 0x0 DUP1 RETURNDATACOPY RETURNDATASIZE PUSH1 0x0 REVERT JUMPDEST POP POP POP POP PUSH1 0x40 MLOAD RETURNDATASIZE PUSH1 0x1F NOT PUSH1 0x1F DUP3 ADD AND DUP3 ADD DUP1 PUSH1 0x40 MSTORE POP DUP2 ADD SWAP1 PUSH2 0xAB3 SWAP2 SWAP1 PUSH2 0x2045 JUMP JUMPDEST POP PUSH1 0x0 PUSH1 0x40 MLOAD DUP1 PUSH1 0x80 ADD PUSH1 0x40 MSTORE DUP1 DUP11 DUP11 DUP1 DUP1 PUSH1 0x1F ADD PUSH1 0x20 DUP1 SWAP2 DIV MUL PUSH1 0x20 ADD PUSH1 0x40 MLOAD SWAP1 DUP2 ADD PUSH1 0x40 MSTORE DUP1 SWAP4 SWAP3 SWAP2 SWAP1 DUP2 DUP2 MSTORE PUSH1 0x20 ADD DUP4 DUP4 DUP1 DUP3 DUP5 CALLDATACOPY PUSH1 0x0 DUP2 DUP5 ADD MSTORE PUSH1 0x1F NOT PUSH1 0x1F DUP3 ADD AND SWAP1 POP DUP1 DUP4 ADD SWAP3 POP POP POP POP POP POP POP DUP2 MSTORE PUSH1 0x20 ADD DUP9 DUP2 MSTORE PUSH1 0x20 ADD PUSH1 0x40 MLOAD DUP1 PUSH1 0x40 ADD PUSH1 0x40 MSTORE DUP1 PUSH1 0x3 DUP2 MSTORE PUSH1 0x20 ADD PUSH32 0x696E630000000000000000000000000000000000000000000000000000000000 DUP2 MSTORE POP DUP2 MSTORE PUSH1 0x20 ADD CALLER PUSH20 0xFFFFFFFFFFFFFFFFFFFFFFFFFFFFFFFFFFFFFFFF AND DUP2 MSTORE POP SWAP1 POP DUP1 PUSH1 0x8 DUP11 DUP11 PUSH1 0x40 MLOAD PUSH2 0xB7B SWAP3 SWAP2 SWAP1 PUSH2 0x2581 JUMP JUMPDEST SWAP1 DUP2 MSTORE PUSH1 0x20 ADD PUSH1 0x40 MLOAD DUP1 SWAP2 SUB SWAP1 KECCAK256 PUSH1 0x0 DUP3 ADD MLOAD DUP2 PUSH1 0x0 ADD SWAP1 DUP1 MLOAD SWAP1 PUSH1 0x20 ADD SWAP1 PUSH2 0xBA5 SWAP3 SWAP2 SWAP1 PUSH2 0x1DAD JUMP JUMPDEST POP PUSH1 0x20 DUP3 ADD MLOAD DUP2 PUSH1 0x1 ADD SSTORE PUSH1 0x40 DUP3 ADD MLOAD DUP2 PUSH1 0x2 ADD SWAP1 DUP1 MLOAD SWAP1 PUSH1 0x20 ADD SWAP1 PUSH2 0xBCC SWAP3 SWAP2 SWAP1 PUSH2 0x1DAD JUMP JUMPDEST POP PUSH1 0x60 DUP3 ADD MLOAD DUP2 PUSH1 0x3 ADD PUSH1 0x0 PUSH2 0x100 EXP DUP2 SLOAD DUP2 PUSH20 0xFFFFFFFFFFFFFFFFFFFFFFFFFFFFFFFFFFFFFFFF MUL NOT AND SWAP1 DUP4 PUSH20 0xFFFFFFFFFFFFFFFFFFFFFFFFFFFFFFFFFFFFFFFF AND MUL OR SWAP1 SSTORE POP SWAP1 POP POP PUSH32 0xA73F1BD2BA7F3BA7B9AFA2290230606F097D953D6EC43D5D3644574DBC6052DE PUSH1 0x1 PUSH1 0x40 MLOAD PUSH2 0xC47 SWAP2 SWAP1 PUSH2 0x2752 JUMP JUMPDEST PUSH1 0x40 MLOAD DUP1 SWAP2 SUB SWAP1 LOG1 POP PUSH1 0x1 PUSH1 0x0 DUP2 SWAP1 SSTORE POP POP POP POP POP POP POP POP POP JUMP JUMPDEST PUSH1 0x0 DUP4 DUP4 PUSH1 0x0 PUSH1 0x9 DUP4 DUP4 PUSH1 0x40 MLOAD PUSH2 0xC7A SWAP3 SWAP2 SWAP1 PUSH2 0x2581 JUMP JUMPDEST SWAP1 DUP2 MSTORE PUSH1 0x20 ADD PUSH1 0x40 MLOAD DUP1 SWAP2 SUB SWAP1 KECCAK256 PUSH1 0x1 ADD SLOAD EQ PUSH2 0xCCC JUMPI PUSH1 0x40 MLOAD PUSH32 0x8C379A000000000000000000000000000000000000000000000000000000000 DUP2 MSTORE PUSH1 0x4 ADD PUSH2 0xCC3 SWAP1 PUSH2 0x27FB JUMP JUMPDEST PUSH1 0x40 MLOAD DUP1 SWAP2 SUB SWAP1 REVERT JUMPDEST PUSH1 0x2 PUSH1 0x0 SLOAD EQ ISZERO PUSH2 0xD12 JUMPI PUSH1 0x40 MLOAD PUSH32 0x8C379A000000000000000000000000000000000000000000000000000000000 DUP2 MSTORE PUSH1 0x4 ADD PUSH2 0xD09 SWAP1 PUSH2 0x289B JUMP JUMPDEST PUSH1 0x40 MLOAD DUP1 SWAP2 SUB SWAP1 REVERT JUMPDEST PUSH1 0x2 PUSH1 0x0 DUP2 SWAP1 SSTORE POP DUP4 PUSH1 0xE DUP2 SWAP1 SSTORE POP DUP6 DUP6 PUSH1 0xF SWAP2 SWAP1 PUSH2 0xD32 SWAP3 SWAP2 SWAP1 PUSH2 0x1E71 JUMP JUMPDEST POP CALLER PUSH1 0x10 PUSH1 0x0 PUSH2 0x100 EXP DUP2 SLOAD DUP2 PUSH20 0xFFFFFFFFFFFFFFFFFFFFFFFFFFFFFFFFFFFFFFFF MUL NOT AND SWAP1 DUP4 PUSH20 0xFFFFFFFFFFFFFFFFFFFFFFFFFFFFFFFFFFFFFFFF AND MUL OR SWAP1 SSTORE POP PUSH1 0x0 PUSH2 0xE0C PUSH1 0xF DUP1 SLOAD PUSH2 0xD86 SWAP1 PUSH2 0x2DAF JUMP JUMPDEST DUP1 PUSH1 0x1F ADD PUSH1 0x20 DUP1 SWAP2 DIV MUL PUSH1 0x20 ADD PUSH1 0x40 MLOAD SWAP1 DUP2 ADD PUSH1 0x40 MSTORE DUP1 SWAP3 SWAP2 SWAP1 DUP2 DUP2 MSTORE PUSH1 0x20 ADD DUP3 DUP1 SLOAD PUSH2 0xDB2 SWAP1 PUSH2 0x2DAF JUMP JUMPDEST DUP1 ISZERO PUSH2 0xDFF JUMPI DUP1 PUSH1 0x1F LT PUSH2 0xDD4 JUMPI PUSH2 0x100 DUP1 DUP4 SLOAD DIV MUL DUP4 MSTORE SWAP2 PUSH1 0x20 ADD SWAP2 PUSH2 0xDFF JUMP JUMPDEST DUP3 ADD SWAP2 SWAP1 PUSH1 0x0 MSTORE PUSH1 0x20 PUSH1 0x0 KECCAK256 SWAP1 JUMPDEST DUP2 SLOAD DUP2 MSTORE SWAP1 PUSH1 0x1 ADD SWAP1 PUSH1 0x20 ADD DUP1 DUP4 GT PUSH2 0xDE2 JUMPI DUP3 SWAP1 SUB PUSH1 0x1F AND DUP3 ADD SWAP2 JUMPDEST POP POP POP POP POP PUSH1 0xE SLOAD PUSH2 0x1175 JUMP JUMPDEST SWAP1 POP PUSH1 0x0 PUSH2 0xE24 PUSH1 0xC SLOAD ADDRESS PUSH4 0x4357855E PUSH1 0xE0 SHL PUSH2 0x1235 JUMP JUMPDEST SWAP1 POP PUSH2 0xE70 PUSH1 0x40 MLOAD DUP1 PUSH1 0x40 ADD PUSH1 0x40 MSTORE DUP1 PUSH1 0x3 DUP2 MSTORE PUSH1 0x20 ADD PUSH32 0x6765740000000000000000000000000000000000000000000000000000000000 DUP2 MSTORE POP DUP4 DUP4 PUSH2 0x1266 SWAP1 SWAP3 SWAP2 SWAP1 PUSH4 0xFFFFFFFF AND JUMP JUMPDEST PUSH2 0xEEF PUSH1 0x40 MLOAD DUP1 PUSH1 0x40 ADD PUSH1 0x40 MSTORE DUP1 PUSH1 0x4 DUP2 MSTORE PUSH1 0x20 ADD PUSH32 0x7061746800000000000000000000000000000000000000000000000000000000 DUP2 MSTORE POP PUSH1 0x40 MLOAD DUP1 PUSH1 0x40 ADD PUSH1 0x40 MSTORE DUP1 PUSH1 0x6 DUP2 MSTORE PUSH1 0x20 ADD PUSH32 0x7374617475730000000000000000000000000000000000000000000000000000 DUP2 MSTORE POP DUP4 PUSH2 0x1266 SWAP1 SWAP3 SWAP2 SWAP1 PUSH4 0xFFFFFFFF AND JUMP JUMPDEST PUSH2 0xF1E PUSH1 0xB PUSH1 0x0 SWAP1 SLOAD SWAP1 PUSH2 0x100 EXP SWAP1 DIV PUSH20 0xFFFFFFFFFFFFFFFFFFFFFFFFFFFFFFFFFFFFFFFF AND DUP3 PUSH1 0xD SLOAD PUSH2 0x1299 JUMP JUMPDEST SWAP5 POP POP POP PUSH1 0x1 PUSH1 0x0 DUP2 SWAP1 SSTORE POP POP POP SWAP4 SWAP3 POP POP POP JUMP JUMPDEST PUSH1 0xA SLOAD DUP2 JUMP JUMPDEST PUSH1 0x0 PUSH1 0xA SLOAD SWAP1 POP SWAP1 JUMP JUMPDEST PUSH2 0xF4B PUSH2 0x1E33 JUMP JUMPDEST DUP3 DUP3 PUSH1 0x0 PUSH1 0x8 DUP4 DUP4 PUSH1 0x40 MLOAD PUSH2 0xF61 SWAP3 SWAP2 SWAP1 PUSH2 0x2581 JUMP JUMPDEST SWAP1 DUP2 MSTORE PUSH1 0x20 ADD PUSH1 0x40 MLOAD DUP1 SWAP2 SUB SWAP1 KECCAK256 PUSH1 0x1 ADD SLOAD EQ ISZERO PUSH2 0xFB4 JUMPI PUSH1 0x40 MLOAD PUSH32 0x8C379A000000000000000000000000000000000000000000000000000000000 DUP2 MSTORE PUSH1 0x4 ADD PUSH2 0xFAB SWAP1 PUSH2 0x281B JUMP JUMPDEST PUSH1 0x40 MLOAD DUP1 SWAP2 SUB SWAP1 REVERT JUMPDEST PUSH1 0x8 DUP6 DUP6 PUSH1 0x40 MLOAD PUSH2 0xFC6 SWAP3 SWAP2 SWAP1 PUSH2 0x2581 JUMP JUMPDEST SWAP1 DUP2 MSTORE PUSH1 0x20 ADD PUSH1 0x40 MLOAD DUP1 SWAP2 SUB SWAP1 KECCAK256 PUSH1 0x40 MLOAD DUP1 PUSH1 0x80 ADD PUSH1 0x40 MSTORE SWAP1 DUP2 PUSH1 0x0 DUP3 ADD DUP1 SLOAD PUSH2 0xFEF SWAP1 PUSH2 0x2DAF JUMP JUMPDEST DUP1 PUSH1 0x1F ADD PUSH1 0x20 DUP1 SWAP2 DIV MUL PUSH1 0x20 ADD PUSH1 0x40 MLOAD SWAP1 DUP2 ADD PUSH1 0x40 MSTORE DUP1 SWAP3 SWAP2 SWAP1 DUP2 DUP2 MSTORE PUSH1 0x20 ADD DUP3 DUP1 SLOAD PUSH2 0x101B SWAP1 PUSH2 0x2DAF JUMP JUMPDEST DUP1 ISZERO PUSH2 0x1068 JUMPI DUP1 PUSH1 0x1F LT PUSH2 0x103D JUMPI PUSH2 0x100 DUP1 DUP4 SLOAD DIV MUL DUP4 MSTORE SWAP2 PUSH1 0x20 ADD SWAP2 PUSH2 0x1068 JUMP JUMPDEST DUP3 ADD SWAP2 SWAP1 PUSH1 0x0 MSTORE PUSH1 0x20 PUSH1 0x0 KECCAK256 SWAP1 JUMPDEST DUP2 SLOAD DUP2 MSTORE SWAP1 PUSH1 0x1 ADD SWAP1 PUSH1 0x20 ADD DUP1 DUP4 GT PUSH2 0x104B JUMPI DUP3 SWAP1 SUB PUSH1 0x1F AND DUP3 ADD SWAP2 JUMPDEST POP POP POP POP POP DUP2 MSTORE PUSH1 0x20 ADD PUSH1 0x1 DUP3 ADD SLOAD DUP2 MSTORE PUSH1 0x20 ADD PUSH1 0x2 DUP3 ADD DUP1 SLOAD PUSH2 0x108B SWAP1 PUSH2 0x2DAF JUMP JUMPDEST DUP1 PUSH1 0x1F ADD PUSH1 0x20 DUP1 SWAP2 DIV MUL PUSH1 0x20 ADD PUSH1 0x40 MLOAD SWAP1 DUP2 ADD PUSH1 0x40 MSTORE DUP1 SWAP3 SWAP2 SWAP1 DUP2 DUP2 MSTORE PUSH1 0x20 ADD DUP3 DUP1 SLOAD PUSH2 0x10B7 SWAP1 PUSH2 0x2DAF JUMP JUMPDEST DUP1 ISZERO PUSH2 0x1104 JUMPI DUP1 PUSH1 0x1F LT PUSH2 0x10D9 JUMPI PUSH2 0x100 DUP1 DUP4 SLOAD DIV MUL DUP4 MSTORE SWAP2 PUSH1 0x20 ADD SWAP2 PUSH2 0x1104 JUMP JUMPDEST DUP3 ADD SWAP2 SWAP1 PUSH1 0x0 MSTORE PUSH1 0x20 PUSH1 0x0 KECCAK256 SWAP1 JUMPDEST DUP2 SLOAD DUP2 MSTORE SWAP1 PUSH1 0x1 ADD SWAP1 PUSH1 0x20 ADD DUP1 DUP4 GT PUSH2 0x10E7 JUMPI DUP3 SWAP1 SUB PUSH1 0x1F AND DUP3 ADD SWAP2 JUMPDEST POP POP POP POP POP DUP2 MSTORE PUSH1 0x20 ADD PUSH1 0x3 DUP3 ADD PUSH1 0x0 SWAP1 SLOAD SWAP1 PUSH2 0x100 EXP SWAP1 DIV PUSH20 0xFFFFFFFFFFFFFFFFFFFFFFFFFFFFFFFFFFFFFFFF AND PUSH20 0xFFFFFFFFFFFFFFFFFFFFFFFFFFFFFFFFFFFFFFFF AND PUSH20 0xFFFFFFFFFFFFFFFFFFFFFFFFFFFFFFFFFFFFFFFF AND DUP2 MSTORE POP POP SWAP3 POP POP POP SWAP3 SWAP2 POP POP JUMP JUMPDEST PUSH1 0x0 CALLER SWAP1 POP SWAP1 JUMP JUMPDEST PUSH1 0x60 PUSH1 0x0 PUSH1 0x40 MLOAD DUP1 PUSH1 0x40 ADD PUSH1 0x40 MSTORE DUP1 PUSH1 0x1F DUP2 MSTORE PUSH1 0x20 ADD PUSH32 0x26747970653D5749544844524157414C267075626C6963416464726573733D00 DUP2 MSTORE POP SWAP1 POP PUSH1 0x0 PUSH2 0x11BB PUSH2 0x1365 JUMP JUMPDEST SWAP1 POP PUSH1 0x0 PUSH1 0x40 MLOAD DUP1 PUSH1 0x40 ADD PUSH1 0x40 MSTORE DUP1 PUSH1 0x16 DUP2 MSTORE PUSH1 0x20 ADD PUSH32 0x266F7065726174696F6E3D44454326616D6F756E743D00000000000000000000 DUP2 MSTORE POP SWAP1 POP PUSH1 0x11 DUP7 DUP5 DUP5 DUP5 PUSH2 0x1206 DUP11 PUSH2 0x1526 JUMP JUMPDEST PUSH1 0x40 MLOAD PUSH1 0x20 ADD PUSH2 0x121B SWAP7 SWAP6 SWAP5 SWAP4 SWAP3 SWAP2 SWAP1 PUSH2 0x25B1 JUMP JUMPDEST PUSH1 0x40 MLOAD PUSH1 0x20 DUP2 DUP4 SUB SUB DUP2 MSTORE SWAP1 PUSH1 0x40 MSTORE SWAP4 POP POP POP POP SWAP3 SWAP2 POP POP JUMP JUMPDEST PUSH2 0x123D PUSH2 0x1EF7 JUMP JUMPDEST PUSH2 0x1245 PUSH2 0x1EF7 JUMP JUMPDEST PUSH2 0x125C DUP6 DUP6 DUP6 DUP5 PUSH2 0x1687 SWAP1 SWAP4 SWAP3 SWAP2 SWAP1 PUSH4 0xFFFFFFFF AND JUMP JUMPDEST SWAP2 POP POP SWAP4 SWAP3 POP POP POP JUMP JUMPDEST PUSH2 0x127D DUP3 DUP5 PUSH1 0x80 ADD MLOAD PUSH2 0x1737 SWAP1 SWAP2 SWAP1 PUSH4 0xFFFFFFFF AND JUMP JUMPDEST PUSH2 0x1294 DUP2 DUP5 PUSH1 0x80 ADD MLOAD PUSH2 0x1737 SWAP1 SWAP2 SWAP1 PUSH4 0xFFFFFFFF AND JUMP JUMPDEST POP POP POP JUMP JUMPDEST PUSH1 0x0 DUP1 PUSH1 0x5 SLOAD SWAP1 POP PUSH1 0x1 DUP2 PUSH2 0x12AE SWAP2 SWAP1 PUSH2 0x2961 JUMP JUMPDEST PUSH1 0x5 DUP2 SWAP1 SSTORE POP PUSH1 0x0 PUSH4 0x40429946 PUSH1 0xE0 SHL PUSH1 0x0 DUP1 DUP8 PUSH1 0x0 ADD MLOAD ADDRESS DUP10 PUSH1 0x40 ADD MLOAD DUP8 PUSH1 0x1 DUP13 PUSH1 0x80 ADD MLOAD PUSH1 0x0 ADD MLOAD PUSH1 0x40 MLOAD PUSH1 0x24 ADD PUSH2 0x12EF SWAP9 SWAP8 SWAP7 SWAP6 SWAP5 SWAP4 SWAP3 SWAP2 SWAP1 PUSH2 0x268F JUMP JUMPDEST PUSH1 0x40 MLOAD PUSH1 0x20 DUP2 DUP4 SUB SUB DUP2 MSTORE SWAP1 PUSH1 0x40 MSTORE SWAP1 PUSH28 0xFFFFFFFFFFFFFFFFFFFFFFFFFFFFFFFFFFFFFFFFFFFFFFFFFFFFFFFF NOT AND PUSH1 0x20 DUP3 ADD DUP1 MLOAD PUSH28 0xFFFFFFFFFFFFFFFFFFFFFFFFFFFFFFFFFFFFFFFFFFFFFFFFFFFFFFFF DUP4 DUP2 DUP4 AND OR DUP4 MSTORE POP POP POP POP SWAP1 POP PUSH2 0x135A DUP7 DUP4 DUP7 DUP5 PUSH2 0x175C JUMP JUMPDEST SWAP3 POP POP POP SWAP4 SWAP3 POP POP POP JUMP JUMPDEST PUSH1 0x60 PUSH1 0x0 PUSH1 0x28 PUSH8 0xFFFFFFFFFFFFFFFF DUP2 GT ISZERO PUSH2 0x1384 JUMPI PUSH2 0x1383 PUSH2 0x2F45 JUMP JUMPDEST JUMPDEST PUSH1 0x40 MLOAD SWAP1 DUP1 DUP3 MSTORE DUP1 PUSH1 0x1F ADD PUSH1 0x1F NOT AND PUSH1 0x20 ADD DUP3 ADD PUSH1 0x40 MSTORE DUP1 ISZERO PUSH2 0x13B6 JUMPI DUP2 PUSH1 0x20 ADD PUSH1 0x1 DUP3 MUL DUP1 CALLDATASIZE DUP4 CALLDATACOPY DUP1 DUP3 ADD SWAP2 POP POP SWAP1 POP JUMPDEST POP SWAP1 POP PUSH1 0x0 JUMPDEST PUSH1 0x14 DUP2 LT ISZERO PUSH2 0x151E JUMPI PUSH1 0x0 DUP2 PUSH1 0x13 PUSH2 0x13D4 SWAP2 SWAP1 PUSH2 0x2C56 JUMP JUMPDEST PUSH1 0x8 PUSH2 0x13E0 SWAP2 SWAP1 PUSH2 0x2BC1 JUMP JUMPDEST PUSH1 0x2 PUSH2 0x13EC SWAP2 SWAP1 PUSH2 0x2AA3 JUMP JUMPDEST CALLER PUSH20 0xFFFFFFFFFFFFFFFFFFFFFFFFFFFFFFFFFFFFFFFF AND PUSH2 0x140D SWAP2 SWAP1 PUSH2 0x29EE JUMP JUMPDEST PUSH1 0xF8 SHL SWAP1 POP PUSH1 0x0 PUSH1 0x10 DUP3 PUSH1 0xF8 SHR PUSH2 0x1424 SWAP2 SWAP1 PUSH2 0x2A1F JUMP JUMPDEST PUSH1 0xF8 SHL SWAP1 POP PUSH1 0x0 DUP2 PUSH1 0xF8 SHR PUSH1 0x10 PUSH2 0x143B SWAP2 SWAP1 PUSH2 0x2C1B JUMP JUMPDEST DUP4 PUSH1 0xF8 SHR PUSH2 0x1449 SWAP2 SWAP1 PUSH2 0x2C8A JUMP JUMPDEST PUSH1 0xF8 SHL SWAP1 POP PUSH2 0x1457 DUP3 PUSH2 0x1900 JUMP JUMPDEST DUP6 DUP6 PUSH1 0x2 PUSH2 0x1465 SWAP2 SWAP1 PUSH2 0x2BC1 JUMP JUMPDEST DUP2 MLOAD DUP2 LT PUSH2 0x1476 JUMPI PUSH2 0x1475 PUSH2 0x2F16 JUMP JUMPDEST JUMPDEST PUSH1 0x20 ADD ADD SWAP1 PUSH31 0xFFFFFFFFFFFFFFFFFFFFFFFFFFFFFFFFFFFFFFFFFFFFFFFFFFFFFFFFFFFFFF NOT AND SWAP1 DUP2 PUSH1 0x0 BYTE SWAP1 MSTORE8 POP PUSH2 0x14AE DUP2 PUSH2 0x1900 JUMP JUMPDEST DUP6 PUSH1 0x1 DUP7 PUSH1 0x2 PUSH2 0x14BE SWAP2 SWAP1 PUSH2 0x2BC1 JUMP JUMPDEST PUSH2 0x14C8 SWAP2 SWAP1 PUSH2 0x2961 JUMP JUMPDEST DUP2 MLOAD DUP2 LT PUSH2 0x14D9 JUMPI PUSH2 0x14D8 PUSH2 0x2F16 JUMP JUMPDEST JUMPDEST PUSH1 0x20 ADD ADD SWAP1 PUSH31 0xFFFFFFFFFFFFFFFFFFFFFFFFFFFFFFFFFFFFFFFFFFFFFFFFFFFFFFFFFFFFFF NOT AND SWAP1 DUP2 PUSH1 0x0 BYTE SWAP1 MSTORE8 POP POP POP POP DUP1 DUP1 PUSH2 0x1516 SWAP1 PUSH2 0x2DE1 JUMP JUMPDEST SWAP2 POP POP PUSH2 0x13BC JUMP JUMPDEST POP DUP1 SWAP2 POP POP SWAP1 JUMP JUMPDEST PUSH1 0x60 PUSH1 0x0 DUP3 EQ ISZERO PUSH2 0x156E JUMPI PUSH1 0x40 MLOAD DUP1 PUSH1 0x40 ADD PUSH1 0x40 MSTORE DUP1 PUSH1 0x1 DUP2 MSTORE PUSH1 0x20 ADD PUSH32 0x3000000000000000000000000000000000000000000000000000000000000000 DUP2 MSTORE POP SWAP1 POP PUSH2 0x1682 JUMP JUMPDEST PUSH1 0x0 DUP3 SWAP1 POP PUSH1 0x0 JUMPDEST PUSH1 0x0 DUP3 EQ PUSH2 0x15A0 JUMPI DUP1 DUP1 PUSH2 0x1589 SWAP1 PUSH2 0x2DE1 JUMP JUMPDEST SWAP2 POP POP PUSH1 0xA DUP3 PUSH2 0x1599 SWAP2 SWAP1 PUSH2 0x29EE JUMP JUMPDEST SWAP2 POP PUSH2 0x1576 JUMP JUMPDEST PUSH1 0x0 DUP2 PUSH8 0xFFFFFFFFFFFFFFFF DUP2 GT ISZERO PUSH2 0x15BC JUMPI PUSH2 0x15BB PUSH2 0x2F45 JUMP JUMPDEST JUMPDEST PUSH1 0x40 MLOAD SWAP1 DUP1 DUP3 MSTORE DUP1 PUSH1 0x1F ADD PUSH1 0x1F NOT AND PUSH1 0x20 ADD DUP3 ADD PUSH1 0x40 MSTORE DUP1 ISZERO PUSH2 0x15EE JUMPI DUP2 PUSH1 0x20 ADD PUSH1 0x1 DUP3 MUL DUP1 CALLDATASIZE DUP4 CALLDATACOPY DUP1 DUP3 ADD SWAP2 POP POP SWAP1 POP JUMPDEST POP SWAP1 POP JUMPDEST PUSH1 0x0 DUP6 EQ PUSH2 0x167B JUMPI PUSH1 0x1 DUP3 PUSH2 0x1607 SWAP2 SWAP1 PUSH2 0x2C56 JUMP JUMPDEST SWAP2 POP PUSH1 0xA DUP6 PUSH2 0x1616 SWAP2 SWAP1 PUSH2 0x2E58 JUMP JUMPDEST PUSH1 0x30 PUSH2 0x1622 SWAP2 SWAP1 PUSH2 0x2961 JUMP JUMPDEST PUSH1 0xF8 SHL DUP2 DUP4 DUP2 MLOAD DUP2 LT PUSH2 0x1638 JUMPI PUSH2 0x1637 PUSH2 0x2F16 JUMP JUMPDEST JUMPDEST PUSH1 0x20 ADD ADD SWAP1 PUSH31 0xFFFFFFFFFFFFFFFFFFFFFFFFFFFFFFFFFFFFFFFFFFFFFFFFFFFFFFFFFFFFFF NOT AND SWAP1 DUP2 PUSH1 0x0 BYTE SWAP1 MSTORE8 POP PUSH1 0xA DUP6 PUSH2 0x1674 SWAP2 SWAP1 PUSH2 0x29EE JUMP JUMPDEST SWAP5 POP PUSH2 0x15F2 JUMP JUMPDEST DUP1 SWAP4 POP POP POP POP JUMPDEST SWAP2 SWAP1 POP JUMP JUMPDEST PUSH2 0x168F PUSH2 0x1EF7 JUMP JUMPDEST PUSH2 0x169F DUP6 PUSH1 0x80 ADD MLOAD PUSH2 0x100 PUSH2 0x1946 JUMP JUMPDEST POP DUP4 DUP6 PUSH1 0x0 ADD DUP2 DUP2 MSTORE POP POP DUP3 DUP6 PUSH1 0x20 ADD SWAP1 PUSH20 0xFFFFFFFFFFFFFFFFFFFFFFFFFFFFFFFFFFFFFFFF AND SWAP1 DUP2 PUSH20 0xFFFFFFFFFFFFFFFFFFFFFFFFFFFFFFFFFFFFFFFF AND DUP2 MSTORE POP POP DUP2 DUP6 PUSH1 0x40 ADD SWAP1 PUSH28 0xFFFFFFFFFFFFFFFFFFFFFFFFFFFFFFFFFFFFFFFFFFFFFFFFFFFFFFFF NOT AND SWAP1 DUP2 PUSH28 0xFFFFFFFFFFFFFFFFFFFFFFFFFFFFFFFFFFFFFFFFFFFFFFFFFFFFFFFF NOT AND DUP2 MSTORE POP POP DUP5 SWAP1 POP SWAP5 SWAP4 POP POP POP POP JUMP JUMPDEST PUSH2 0x1744 DUP3 PUSH1 0x3 DUP4 MLOAD PUSH2 0x19B0 JUMP JUMPDEST PUSH2 0x1757 DUP2 DUP4 PUSH2 0x1B35 SWAP1 SWAP2 SWAP1 PUSH4 0xFFFFFFFF AND JUMP JUMPDEST POP POP POP JUMP JUMPDEST PUSH1 0x0 ADDRESS DUP5 PUSH1 0x40 MLOAD PUSH1 0x20 ADD PUSH2 0x1771 SWAP3 SWAP2 SWAP1 PUSH2 0x2555 JUMP JUMPDEST PUSH1 0x40 MLOAD PUSH1 0x20 DUP2 DUP4 SUB SUB DUP2 MSTORE SWAP1 PUSH1 0x40 MSTORE DUP1 MLOAD SWAP1 PUSH1 0x20 ADD KECCAK256 SWAP1 POP DUP5 PUSH1 0x6 PUSH1 0x0 DUP4 DUP2 MSTORE PUSH1 0x20 ADD SWAP1 DUP2 MSTORE PUSH1 0x20 ADD PUSH1 0x0 KECCAK256 PUSH1 0x0 PUSH2 0x100 EXP DUP2 SLOAD DUP2 PUSH20 0xFFFFFFFFFFFFFFFFFFFFFFFFFFFFFFFFFFFFFFFF MUL NOT AND SWAP1 DUP4 PUSH20 0xFFFFFFFFFFFFFFFFFFFFFFFFFFFFFFFFFFFFFFFF AND MUL OR SWAP1 SSTORE POP DUP1 PUSH32 0xB5E6E01E79F91267DC17B4E6314D5D4D03593D2CEEE0FBB452B750BD70EA5AF9 PUSH1 0x40 MLOAD PUSH1 0x40 MLOAD DUP1 SWAP2 SUB SWAP1 LOG2 PUSH1 0x3 PUSH1 0x0 SWAP1 SLOAD SWAP1 PUSH2 0x100 EXP SWAP1 DIV PUSH20 0xFFFFFFFFFFFFFFFFFFFFFFFFFFFFFFFFFFFFFFFF AND PUSH20 0xFFFFFFFFFFFFFFFFFFFFFFFFFFFFFFFFFFFFFFFF AND PUSH4 0x4000AEA0 DUP7 DUP6 DUP6 PUSH1 0x40 MLOAD DUP5 PUSH4 0xFFFFFFFF AND PUSH1 0xE0 SHL DUP2 MSTORE PUSH1 0x4 ADD PUSH2 0x1867 SWAP4 SWAP3 SWAP2 SWAP1 PUSH2 0x2714 JUMP JUMPDEST PUSH1 0x20 PUSH1 0x40 MLOAD DUP1 DUP4 SUB DUP2 PUSH1 0x0 DUP8 DUP1 EXTCODESIZE ISZERO DUP1 ISZERO PUSH2 0x1881 JUMPI PUSH1 0x0 DUP1 REVERT JUMPDEST POP GAS CALL ISZERO DUP1 ISZERO PUSH2 0x1895 JUMPI RETURNDATASIZE PUSH1 0x0 DUP1 RETURNDATACOPY RETURNDATASIZE PUSH1 0x0 REVERT JUMPDEST POP POP POP POP PUSH1 0x40 MLOAD RETURNDATASIZE PUSH1 0x1F NOT PUSH1 0x1F DUP3 ADD AND DUP3 ADD DUP1 PUSH1 0x40 MSTORE POP DUP2 ADD SWAP1 PUSH2 0x18B9 SWAP2 SWAP1 PUSH2 0x2045 JUMP JUMPDEST PUSH2 0x18F8 JUMPI PUSH1 0x40 MLOAD PUSH32 0x8C379A000000000000000000000000000000000000000000000000000000000 DUP2 MSTORE PUSH1 0x4 ADD PUSH2 0x18EF SWAP1 PUSH2 0x27BB JUMP JUMPDEST PUSH1 0x40 MLOAD DUP1 SWAP2 SUB SWAP1 REVERT JUMPDEST SWAP5 SWAP4 POP POP POP POP JUMP JUMPDEST PUSH1 0x0 PUSH1 0xA DUP3 PUSH1 0xF8 SHR PUSH1 0xFF AND LT ISZERO PUSH2 0x192B JUMPI PUSH1 0x30 DUP3 PUSH1 0xF8 SHR PUSH2 0x1921 SWAP2 SWAP1 PUSH2 0x29B7 JUMP JUMPDEST PUSH1 0xF8 SHL SWAP1 POP PUSH2 0x1941 JUMP JUMPDEST PUSH1 0x57 DUP3 PUSH1 0xF8 SHR PUSH2 0x193B SWAP2 SWAP1 PUSH2 0x29B7 JUMP JUMPDEST PUSH1 0xF8 SHL SWAP1 POP JUMPDEST SWAP2 SWAP1 POP JUMP JUMPDEST PUSH2 0x194E PUSH2 0x1F64 JUMP JUMPDEST PUSH1 0x0 PUSH1 0x20 DUP4 PUSH2 0x195D SWAP2 SWAP1 PUSH2 0x2E58 JUMP JUMPDEST EQ PUSH2 0x1989 JUMPI PUSH1 0x20 DUP3 PUSH2 0x196F SWAP2 SWAP1 PUSH2 0x2E58 JUMP JUMPDEST PUSH1 0x20 PUSH2 0x197B SWAP2 SWAP1 PUSH2 0x2C56 JUMP JUMPDEST DUP3 PUSH2 0x1986 SWAP2 SWAP1 PUSH2 0x2961 JUMP JUMPDEST SWAP2 POP JUMPDEST DUP2 DUP4 PUSH1 0x20 ADD DUP2 DUP2 MSTORE POP POP PUSH1 0x40 MLOAD DUP1 DUP5 MSTORE PUSH1 0x0 DUP2 MSTORE DUP3 DUP2 ADD PUSH1 0x20 ADD PUSH1 0x40 MSTORE POP DUP3 SWAP1 POP SWAP3 SWAP2 POP POP JUMP JUMPDEST PUSH1 0x17 DUP2 PUSH8 0xFFFFFFFFFFFFFFFF AND GT PUSH2 0x19E7 JUMPI PUSH2 0x19E1 DUP2 PUSH1 0x5 DUP5 PUSH1 0xFF AND SWAP1 SHL PUSH1 0xFF AND OR DUP5 PUSH2 0x1B57 SWAP1 SWAP2 SWAP1 PUSH4 0xFFFFFFFF AND JUMP JUMPDEST POP PUSH2 0x1B30 JUMP JUMPDEST PUSH1 0xFF DUP2 PUSH8 0xFFFFFFFFFFFFFFFF AND GT PUSH2 0x1A3D JUMPI PUSH2 0x1A16 PUSH1 0x18 PUSH1 0x5 DUP5 PUSH1 0xFF AND SWAP1 SHL OR DUP5 PUSH2 0x1B57 SWAP1 SWAP2 SWAP1 PUSH4 0xFFFFFFFF AND JUMP JUMPDEST POP PUSH2 0x1A37 DUP2 PUSH8 0xFFFFFFFFFFFFFFFF AND PUSH1 0x1 DUP6 PUSH2 0x1B77 SWAP1 SWAP3 SWAP2 SWAP1 PUSH4 0xFFFFFFFF AND JUMP JUMPDEST POP PUSH2 0x1B2F JUMP JUMPDEST PUSH2 0xFFFF DUP2 PUSH8 0xFFFFFFFFFFFFFFFF AND GT PUSH2 0x1A94 JUMPI PUSH2 0x1A6D PUSH1 0x19 PUSH1 0x5 DUP5 PUSH1 0xFF AND SWAP1 SHL OR DUP5 PUSH2 0x1B57 SWAP1 SWAP2 SWAP1 PUSH4 0xFFFFFFFF AND JUMP JUMPDEST POP PUSH2 0x1A8E DUP2 PUSH8 0xFFFFFFFFFFFFFFFF AND PUSH1 0x2 DUP6 PUSH2 0x1B77 SWAP1 SWAP3 SWAP2 SWAP1 PUSH4 0xFFFFFFFF AND JUMP JUMPDEST POP PUSH2 0x1B2E JUMP JUMPDEST PUSH4 0xFFFFFFFF DUP2 PUSH8 0xFFFFFFFFFFFFFFFF AND GT PUSH2 0x1AED JUMPI PUSH2 0x1AC6 PUSH1 0x1A PUSH1 0x5 DUP5 PUSH1 0xFF AND SWAP1 SHL OR DUP5 PUSH2 0x1B57 SWAP1 SWAP2 SWAP1 PUSH4 0xFFFFFFFF AND JUMP JUMPDEST POP PUSH2 0x1AE7 DUP2 PUSH8 0xFFFFFFFFFFFFFFFF AND PUSH1 0x4 DUP6 PUSH2 0x1B77 SWAP1 SWAP3 SWAP2 SWAP1 PUSH4 0xFFFFFFFF AND JUMP JUMPDEST POP PUSH2 0x1B2D JUMP JUMPDEST PUSH2 0x1B0A PUSH1 0x1B PUSH1 0x5 DUP5 PUSH1 0xFF AND SWAP1 SHL OR DUP5 PUSH2 0x1B57 SWAP1 SWAP2 SWAP1 PUSH4 0xFFFFFFFF AND JUMP JUMPDEST POP PUSH2 0x1B2B DUP2 PUSH8 0xFFFFFFFFFFFFFFFF AND PUSH1 0x8 DUP6 PUSH2 0x1B77 SWAP1 SWAP3 SWAP2 SWAP1 PUSH4 0xFFFFFFFF AND JUMP JUMPDEST POP JUMPDEST JUMPDEST JUMPDEST JUMPDEST POP POP POP JUMP JUMPDEST PUSH2 0x1B3D PUSH2 0x1F64 JUMP JUMPDEST PUSH2 0x1B4F DUP4 DUP5 PUSH1 0x0 ADD MLOAD MLOAD DUP5 DUP6 MLOAD PUSH2 0x1B99 JUMP JUMPDEST SWAP1 POP SWAP3 SWAP2 POP POP JUMP JUMPDEST PUSH2 0x1B5F PUSH2 0x1F64 JUMP JUMPDEST PUSH2 0x1B6F DUP4 DUP5 PUSH1 0x0 ADD MLOAD MLOAD DUP5 PUSH2 0x1C88 JUMP JUMPDEST SWAP1 POP SWAP3 SWAP2 POP POP JUMP JUMPDEST PUSH2 0x1B7F PUSH2 0x1F64 JUMP JUMPDEST PUSH2 0x1B90 DUP5 DUP6 PUSH1 0x0 ADD MLOAD MLOAD DUP6 DUP6 PUSH2 0x1CDF JUMP JUMPDEST SWAP1 POP SWAP4 SWAP3 POP POP POP JUMP JUMPDEST PUSH2 0x1BA1 PUSH2 0x1F64 JUMP JUMPDEST DUP3 MLOAD DUP3 GT ISZERO PUSH2 0x1BAF JUMPI PUSH1 0x0 DUP1 REVERT JUMPDEST DUP5 PUSH1 0x20 ADD MLOAD DUP3 DUP6 PUSH2 0x1BC0 SWAP2 SWAP1 PUSH2 0x2961 JUMP JUMPDEST GT ISZERO PUSH2 0x1BF5 JUMPI PUSH2 0x1BF4 DUP6 PUSH1 0x2 PUSH2 0x1BE5 DUP9 PUSH1 0x20 ADD MLOAD DUP9 DUP8 PUSH2 0x1BE0 SWAP2 SWAP1 PUSH2 0x2961 JUMP JUMPDEST PUSH2 0x1D6D JUMP JUMPDEST PUSH2 0x1BEF SWAP2 SWAP1 PUSH2 0x2BC1 JUMP JUMPDEST PUSH2 0x1D89 JUMP JUMPDEST JUMPDEST PUSH1 0x0 DUP1 DUP7 MLOAD DUP1 MLOAD DUP8 PUSH1 0x20 DUP4 ADD ADD SWAP4 POP DUP1 DUP9 DUP8 ADD GT ISZERO PUSH2 0x1C14 JUMPI DUP8 DUP7 ADD DUP3 MSTORE JUMPDEST PUSH1 0x20 DUP8 ADD SWAP3 POP POP POP JUMPDEST PUSH1 0x20 DUP5 LT PUSH2 0x1C5B JUMPI DUP1 MLOAD DUP3 MSTORE PUSH1 0x20 DUP3 PUSH2 0x1C36 SWAP2 SWAP1 PUSH2 0x2961 JUMP JUMPDEST SWAP2 POP PUSH1 0x20 DUP2 PUSH2 0x1C45 SWAP2 SWAP1 PUSH2 0x2961 JUMP JUMPDEST SWAP1 POP PUSH1 0x20 DUP5 PUSH2 0x1C54 SWAP2 SWAP1 PUSH2 0x2C56 JUMP JUMPDEST SWAP4 POP PUSH2 0x1C1D JUMP JUMPDEST PUSH1 0x0 PUSH1 0x1 DUP6 PUSH1 0x20 SUB PUSH2 0x100 EXP SUB SWAP1 POP DUP1 NOT DUP3 MLOAD AND DUP2 DUP5 MLOAD AND DUP2 DUP2 OR DUP6 MSTORE POP POP POP DUP7 SWAP3 POP POP POP SWAP5 SWAP4 POP POP POP POP JUMP JUMPDEST PUSH2 0x1C90 PUSH2 0x1F64 JUMP JUMPDEST DUP4 PUSH1 0x20 ADD MLOAD DUP4 LT PUSH2 0x1CB6 JUMPI PUSH2 0x1CB5 DUP5 PUSH1 0x2 DUP7 PUSH1 0x20 ADD MLOAD PUSH2 0x1CB0 SWAP2 SWAP1 PUSH2 0x2BC1 JUMP JUMPDEST PUSH2 0x1D89 JUMP JUMPDEST JUMPDEST DUP4 MLOAD DUP1 MLOAD PUSH1 0x20 DUP6 DUP4 ADD ADD DUP5 DUP2 MSTORE8 DUP2 DUP7 EQ ISZERO PUSH2 0x1CD2 JUMPI PUSH1 0x1 DUP3 ADD DUP4 MSTORE JUMPDEST POP POP POP DUP4 SWAP1 POP SWAP4 SWAP3 POP POP POP JUMP JUMPDEST PUSH2 0x1CE7 PUSH2 0x1F64 JUMP JUMPDEST DUP5 PUSH1 0x20 ADD MLOAD DUP5 DUP4 PUSH2 0x1CF8 SWAP2 SWAP1 PUSH2 0x2961 JUMP JUMPDEST GT ISZERO PUSH2 0x1D20 JUMPI PUSH2 0x1D1F DUP6 PUSH1 0x2 DUP7 DUP6 PUSH2 0x1D10 SWAP2 SWAP1 PUSH2 0x2961 JUMP JUMPDEST PUSH2 0x1D1A SWAP2 SWAP1 PUSH2 0x2BC1 JUMP JUMPDEST PUSH2 0x1D89 JUMP JUMPDEST JUMPDEST PUSH1 0x0 PUSH1 0x1 DUP4 PUSH2 0x100 PUSH2 0x1D32 SWAP2 SWAP1 PUSH2 0x2AA3 JUMP JUMPDEST PUSH2 0x1D3C SWAP2 SWAP1 PUSH2 0x2C56 JUMP JUMPDEST SWAP1 POP DUP6 MLOAD DUP4 DUP7 DUP3 ADD ADD DUP6 DUP4 NOT DUP3 MLOAD AND OR DUP2 MSTORE DUP2 MLOAD DUP6 DUP9 ADD GT ISZERO PUSH2 0x1D5F JUMPI DUP5 DUP8 ADD DUP3 MSTORE JUMPDEST POP POP DUP6 SWAP2 POP POP SWAP5 SWAP4 POP POP POP POP JUMP JUMPDEST PUSH1 0x0 DUP2 DUP4 GT ISZERO PUSH2 0x1D7F JUMPI DUP3 SWAP1 POP PUSH2 0x1D83 JUMP JUMPDEST DUP2 SWAP1 POP JUMPDEST SWAP3 SWAP2 POP POP JUMP JUMPDEST PUSH1 0x0 DUP3 PUSH1 0x0 ADD MLOAD SWAP1 POP PUSH2 0x1D9C DUP4 DUP4 PUSH2 0x1946 JUMP JUMPDEST POP PUSH2 0x1DA7 DUP4 DUP3 PUSH2 0x1B35 JUMP JUMPDEST POP POP POP POP JUMP JUMPDEST DUP3 DUP1 SLOAD PUSH2 0x1DB9 SWAP1 PUSH2 0x2DAF JUMP JUMPDEST SWAP1 PUSH1 0x0 MSTORE PUSH1 0x20 PUSH1 0x0 KECCAK256 SWAP1 PUSH1 0x1F ADD PUSH1 0x20 SWAP1 DIV DUP2 ADD SWAP3 DUP3 PUSH2 0x1DDB JUMPI PUSH1 0x0 DUP6 SSTORE PUSH2 0x1E22 JUMP JUMPDEST DUP3 PUSH1 0x1F LT PUSH2 0x1DF4 JUMPI DUP1 MLOAD PUSH1 0xFF NOT AND DUP4 DUP1 ADD OR DUP6 SSTORE PUSH2 0x1E22 JUMP JUMPDEST DUP3 DUP1 ADD PUSH1 0x1 ADD DUP6 SSTORE DUP3 ISZERO PUSH2 0x1E22 JUMPI SWAP2 DUP3 ADD JUMPDEST DUP3 DUP2 GT ISZERO PUSH2 0x1E21 JUMPI DUP3 MLOAD DUP3 SSTORE SWAP2 PUSH1 0x20 ADD SWAP2 SWAP1 PUSH1 0x1 ADD SWAP1 PUSH2 0x1E06 JUMP JUMPDEST JUMPDEST POP SWAP1 POP PUSH2 0x1E2F SWAP2 SWAP1 PUSH2 0x1F7E JUMP JUMPDEST POP SWAP1 JUMP JUMPDEST PUSH1 0x40 MLOAD DUP1 PUSH1 0x80 ADD PUSH1 0x40 MSTORE DUP1 PUSH1 0x60 DUP2 MSTORE PUSH1 0x20 ADD PUSH1 0x0 DUP2 MSTORE PUSH1 0x20 ADD PUSH1 0x60 DUP2 MSTORE PUSH1 0x20 ADD PUSH1 0x0 PUSH20 0xFFFFFFFFFFFFFFFFFFFFFFFFFFFFFFFFFFFFFFFF AND DUP2 MSTORE POP SWAP1 JUMP JUMPDEST DUP3 DUP1 SLOAD PUSH2 0x1E7D SWAP1 PUSH2 0x2DAF JUMP JUMPDEST SWAP1 PUSH1 0x0 MSTORE PUSH1 0x20 PUSH1 0x0 KECCAK256 SWAP1 PUSH1 0x1F ADD PUSH1 0x20 SWAP1 DIV DUP2 ADD SWAP3 DUP3 PUSH2 0x1E9F JUMPI PUSH1 0x0 DUP6 SSTORE PUSH2 0x1EE6 JUMP JUMPDEST DUP3 PUSH1 0x1F LT PUSH2 0x1EB8 JUMPI DUP1 CALLDATALOAD PUSH1 0xFF NOT AND DUP4 DUP1 ADD OR DUP6 SSTORE PUSH2 0x1EE6 JUMP JUMPDEST DUP3 DUP1 ADD PUSH1 0x1 ADD DUP6 SSTORE DUP3 ISZERO PUSH2 0x1EE6 JUMPI SWAP2 DUP3 ADD JUMPDEST DUP3 DUP2 GT ISZERO PUSH2 0x1EE5 JUMPI DUP3 CALLDATALOAD DUP3 SSTORE SWAP2 PUSH1 0x20 ADD SWAP2 SWAP1 PUSH1 0x1 ADD SWAP1 PUSH2 0x1ECA JUMP JUMPDEST JUMPDEST POP SWAP1 POP PUSH2 0x1EF3 SWAP2 SWAP1 PUSH2 0x1F7E JUMP JUMPDEST POP SWAP1 JUMP JUMPDEST PUSH1 0x40 MLOAD DUP1 PUSH1 0xA0 ADD PUSH1 0x40 MSTORE DUP1 PUSH1 0x0 DUP1 NOT AND DUP2 MSTORE PUSH1 0x20 ADD PUSH1 0x0 PUSH20 0xFFFFFFFFFFFFFFFFFFFFFFFFFFFFFFFFFFFFFFFF AND DUP2 MSTORE PUSH1 0x20 ADD PUSH1 0x0 PUSH28 0xFFFFFFFFFFFFFFFFFFFFFFFFFFFFFFFFFFFFFFFFFFFFFFFFFFFFFFFF NOT AND DUP2 MSTORE PUSH1 0x20 ADD PUSH1 0x0 DUP2 MSTORE PUSH1 0x20 ADD PUSH2 0x1F5E PUSH2 0x1F64 JUMP JUMPDEST DUP2 MSTORE POP SWAP1 JUMP JUMPDEST PUSH1 0x40 MLOAD DUP1 PUSH1 0x40 ADD PUSH1 0x40 MSTORE DUP1 PUSH1 0x60 DUP2 MSTORE PUSH1 0x20 ADD PUSH1 0x0 DUP2 MSTORE POP SWAP1 JUMP JUMPDEST JUMPDEST DUP1 DUP3 GT ISZERO PUSH2 0x1F97 JUMPI PUSH1 0x0 DUP2 PUSH1 0x0 SWAP1 SSTORE POP PUSH1 0x1 ADD PUSH2 0x1F7F JUMP JUMPDEST POP SWAP1 JUMP JUMPDEST PUSH1 0x0 DUP2 MLOAD SWAP1 POP PUSH2 0x1FAA DUP2 PUSH2 0x3213 JUMP JUMPDEST SWAP3 SWAP2 POP POP JUMP JUMPDEST PUSH1 0x0 DUP2 CALLDATALOAD SWAP1 POP PUSH2 0x1FBF DUP2 PUSH2 0x322A JUMP JUMPDEST SWAP3 SWAP2 POP POP JUMP JUMPDEST PUSH1 0x0 DUP1 DUP4 PUSH1 0x1F DUP5 ADD SLT PUSH2 0x1FDB JUMPI PUSH2 0x1FDA PUSH2 0x2F79 JUMP JUMPDEST JUMPDEST DUP3 CALLDATALOAD SWAP1 POP PUSH8 0xFFFFFFFFFFFFFFFF DUP2 GT ISZERO PUSH2 0x1FF8 JUMPI PUSH2 0x1FF7 PUSH2 0x2F74 JUMP JUMPDEST JUMPDEST PUSH1 0x20 DUP4 ADD SWAP2 POP DUP4 PUSH1 0x1 DUP3 MUL DUP4 ADD GT ISZERO PUSH2 0x2014 JUMPI PUSH2 0x2013 PUSH2 0x2F7E JUMP JUMPDEST JUMPDEST SWAP3 POP SWAP3 SWAP1 POP JUMP JUMPDEST PUSH1 0x0 DUP2 CALLDATALOAD SWAP1 POP PUSH2 0x202A DUP2 PUSH2 0x3241 JUMP JUMPDEST SWAP3 SWAP2 POP POP JUMP JUMPDEST PUSH1 0x0 DUP2 MLOAD SWAP1 POP PUSH2 0x203F DUP2 PUSH2 0x3241 JUMP JUMPDEST SWAP3 SWAP2 POP POP JUMP JUMPDEST PUSH1 0x0 PUSH1 0x20 DUP3 DUP5 SUB SLT ISZERO PUSH2 0x205B JUMPI PUSH2 0x205A PUSH2 0x2F88 JUMP JUMPDEST JUMPDEST PUSH1 0x0 PUSH2 0x2069 DUP5 DUP3 DUP6 ADD PUSH2 0x1F9B JUMP JUMPDEST SWAP2 POP POP SWAP3 SWAP2 POP POP JUMP JUMPDEST PUSH1 0x0 DUP1 PUSH1 0x40 DUP4 DUP6 SUB SLT ISZERO PUSH2 0x2089 JUMPI PUSH2 0x2088 PUSH2 0x2F88 JUMP JUMPDEST JUMPDEST PUSH1 0x0 PUSH2 0x2097 DUP6 DUP3 DUP7 ADD PUSH2 0x1FB0 JUMP JUMPDEST SWAP3 POP POP PUSH1 0x20 PUSH2 0x20A8 DUP6 DUP3 DUP7 ADD PUSH2 0x201B JUMP JUMPDEST SWAP2 POP POP SWAP3 POP SWAP3 SWAP1 POP JUMP JUMPDEST PUSH1 0x0 DUP1 PUSH1 0x20 DUP4 DUP6 SUB SLT ISZERO PUSH2 0x20C9 JUMPI PUSH2 0x20C8 PUSH2 0x2F88 JUMP JUMPDEST JUMPDEST PUSH1 0x0 DUP4 ADD CALLDATALOAD PUSH8 0xFFFFFFFFFFFFFFFF DUP2 GT ISZERO PUSH2 0x20E7 JUMPI PUSH2 0x20E6 PUSH2 0x2F83 JUMP JUMPDEST JUMPDEST PUSH2 0x20F3 DUP6 DUP3 DUP7 ADD PUSH2 0x1FC5 JUMP JUMPDEST SWAP3 POP SWAP3 POP POP SWAP3 POP SWAP3 SWAP1 POP JUMP JUMPDEST PUSH1 0x0 DUP1 PUSH1 0x0 PUSH1 0x40 DUP5 DUP7 SUB SLT ISZERO PUSH2 0x2118 JUMPI PUSH2 0x2117 PUSH2 0x2F88 JUMP JUMPDEST JUMPDEST PUSH1 0x0 DUP5 ADD CALLDATALOAD PUSH8 0xFFFFFFFFFFFFFFFF DUP2 GT ISZERO PUSH2 0x2136 JUMPI PUSH2 0x2135 PUSH2 0x2F83 JUMP JUMPDEST JUMPDEST PUSH2 0x2142 DUP7 DUP3 DUP8 ADD PUSH2 0x1FC5 JUMP JUMPDEST SWAP4 POP SWAP4 POP POP PUSH1 0x20 PUSH2 0x2155 DUP7 DUP3 DUP8 ADD PUSH2 0x201B JUMP JUMPDEST SWAP2 POP POP SWAP3 POP SWAP3 POP SWAP3 JUMP JUMPDEST PUSH1 0x0 PUSH1 0x20 DUP3 DUP5 SUB SLT ISZERO PUSH2 0x2175 JUMPI PUSH2 0x2174 PUSH2 0x2F88 JUMP JUMPDEST JUMPDEST PUSH1 0x0 PUSH2 0x2183 DUP5 DUP3 DUP6 ADD PUSH2 0x2030 JUMP JUMPDEST SWAP2 POP POP SWAP3 SWAP2 POP POP JUMP JUMPDEST PUSH2 0x2195 DUP2 PUSH2 0x2CBE JUMP JUMPDEST DUP3 MSTORE POP POP JUMP JUMPDEST PUSH2 0x21A4 DUP2 PUSH2 0x2CBE JUMP JUMPDEST DUP3 MSTORE POP POP JUMP JUMPDEST PUSH2 0x21B3 DUP2 PUSH2 0x2CD0 JUMP JUMPDEST DUP3 MSTORE POP POP JUMP JUMPDEST PUSH2 0x21C2 DUP2 PUSH2 0x2CDC JUMP JUMPDEST DUP3 MSTORE POP POP JUMP JUMPDEST PUSH2 0x21D1 DUP2 PUSH2 0x2CE6 JUMP JUMPDEST DUP3 MSTORE POP POP JUMP JUMPDEST PUSH1 0x0 PUSH2 0x21E2 DUP3 PUSH2 0x290D JUMP JUMPDEST PUSH2 0x21EC DUP2 DUP6 PUSH2 0x2923 JUMP JUMPDEST SWAP4 POP PUSH2 0x21FC DUP2 DUP6 PUSH1 0x20 DUP7 ADD PUSH2 0x2D7C JUMP JUMPDEST PUSH2 0x2205 DUP2 PUSH2 0x2F8D JUMP JUMPDEST DUP5 ADD SWAP2 POP POP SWAP3 SWAP2 POP POP JUMP JUMPDEST PUSH2 0x2221 PUSH2 0x221C DUP3 PUSH2 0x2D49 JUMP JUMPDEST PUSH2 0x2E2A JUMP JUMPDEST DUP3 MSTORE POP POP JUMP JUMPDEST PUSH1 0x0 PUSH2 0x2233 DUP4 DUP6 PUSH2 0x2956 JUMP JUMPDEST SWAP4 POP PUSH2 0x2240 DUP4 DUP6 DUP5 PUSH2 0x2D6D JUMP JUMPDEST DUP3 DUP5 ADD SWAP1 POP SWAP4 SWAP3 POP POP POP JUMP JUMPDEST PUSH1 0x0 PUSH2 0x2257 DUP3 PUSH2 0x2918 JUMP JUMPDEST PUSH2 0x2261 DUP2 DUP6 PUSH2 0x2934 JUMP JUMPDEST SWAP4 POP PUSH2 0x2271 DUP2 DUP6 PUSH1 0x20 DUP7 ADD PUSH2 0x2D7C JUMP JUMPDEST PUSH2 0x227A DUP2 PUSH2 0x2F8D JUMP JUMPDEST DUP5 ADD SWAP2 POP POP SWAP3 SWAP2 POP POP JUMP JUMPDEST PUSH1 0x0 PUSH2 0x2290 DUP3 PUSH2 0x2918 JUMP JUMPDEST PUSH2 0x229A DUP2 DUP6 PUSH2 0x2956 JUMP JUMPDEST SWAP4 POP PUSH2 0x22AA DUP2 DUP6 PUSH1 0x20 DUP7 ADD PUSH2 0x2D7C JUMP JUMPDEST DUP1 DUP5 ADD SWAP2 POP POP SWAP3 SWAP2 POP POP JUMP JUMPDEST PUSH1 0x0 DUP2 SLOAD PUSH2 0x22C3 DUP2 PUSH2 0x2DAF JUMP JUMPDEST PUSH2 0x22CD DUP2 DUP7 PUSH2 0x2956 JUMP JUMPDEST SWAP5 POP PUSH1 0x1 DUP3 AND PUSH1 0x0 DUP2 EQ PUSH2 0x22E8 JUMPI PUSH1 0x1 DUP2 EQ PUSH2 0x22F9 JUMPI PUSH2 0x232C JUMP JUMPDEST PUSH1 0xFF NOT DUP4 AND DUP7 MSTORE DUP2 DUP7 ADD SWAP4 POP PUSH2 0x232C JUMP JUMPDEST PUSH2 0x2302 DUP6 PUSH2 0x28F8 JUMP JUMPDEST PUSH1 0x0 JUMPDEST DUP4 DUP2 LT ISZERO PUSH2 0x2324 JUMPI DUP2 SLOAD DUP2 DUP10 ADD MSTORE PUSH1 0x1 DUP3 ADD SWAP2 POP PUSH1 0x20 DUP2 ADD SWAP1 POP PUSH2 0x2305 JUMP JUMPDEST DUP4 DUP9 ADD SWAP6 POP POP POP JUMPDEST POP POP POP SWAP3 SWAP2 POP POP JUMP JUMPDEST PUSH1 0x0 PUSH2 0x2342 PUSH1 0x1C DUP4 PUSH2 0x2945 JUMP JUMPDEST SWAP2 POP PUSH2 0x234D DUP3 PUSH2 0x2FB8 JUMP JUMPDEST PUSH1 0x20 DUP3 ADD SWAP1 POP SWAP2 SWAP1 POP JUMP JUMPDEST PUSH1 0x0 PUSH2 0x2365 PUSH1 0x2 DUP4 PUSH2 0x2956 JUMP JUMPDEST SWAP2 POP PUSH2 0x2370 DUP3 PUSH2 0x2FE1 JUMP JUMPDEST PUSH1 0x2 DUP3 ADD SWAP1 POP SWAP2 SWAP1 POP JUMP JUMPDEST PUSH1 0x0 PUSH2 0x2388 PUSH1 0x23 DUP4 PUSH2 0x2945 JUMP JUMPDEST SWAP2 POP PUSH2 0x2393 DUP3 PUSH2 0x300A JUMP JUMPDEST PUSH1 0x40 DUP3 ADD SWAP1 POP SWAP2 SWAP1 POP JUMP JUMPDEST PUSH1 0x0 PUSH2 0x23AB PUSH1 0x20 DUP4 PUSH2 0x2945 JUMP JUMPDEST SWAP2 POP PUSH2 0x23B6 DUP3 PUSH2 0x3059 JUMP JUMPDEST PUSH1 0x20 DUP3 ADD SWAP1 POP SWAP2 SWAP1 POP JUMP JUMPDEST PUSH1 0x0 PUSH2 0x23CE PUSH1 0x25 DUP4 PUSH2 0x2945 JUMP JUMPDEST SWAP2 POP PUSH2 0x23D9 DUP3 PUSH2 0x3082 JUMP JUMPDEST PUSH1 0x40 DUP3 ADD SWAP1 POP SWAP2 SWAP1 POP JUMP JUMPDEST PUSH1 0x0 PUSH2 0x23F1 PUSH1 0x9 DUP4 PUSH2 0x2945 JUMP JUMPDEST SWAP2 POP PUSH2 0x23FC DUP3 PUSH2 0x30D1 JUMP JUMPDEST PUSH1 0x20 DUP3 ADD SWAP1 POP SWAP2 SWAP1 POP JUMP JUMPDEST PUSH1 0x0 PUSH2 0x2414 PUSH1 0x1E DUP4 PUSH2 0x2945 JUMP JUMPDEST SWAP2 POP PUSH2 0x241F DUP3 PUSH2 0x30FA JUMP JUMPDEST PUSH1 0x20 DUP3 ADD SWAP1 POP SWAP2 SWAP1 POP JUMP JUMPDEST PUSH1 0x0 PUSH2 0x2437 PUSH1 0x28 DUP4 PUSH2 0x2945 JUMP JUMPDEST SWAP2 POP PUSH2 0x2442 DUP3 PUSH2 0x3123 JUMP JUMPDEST PUSH1 0x40 DUP3 ADD SWAP1 POP SWAP2 SWAP1 POP JUMP JUMPDEST PUSH1 0x0 PUSH2 0x245A PUSH1 0x22 DUP4 PUSH2 0x2945 JUMP JUMPDEST SWAP2 POP PUSH2 0x2465 DUP3 PUSH2 0x3172 JUMP JUMPDEST PUSH1 0x40 DUP3 ADD SWAP1 POP SWAP2 SWAP1 POP JUMP JUMPDEST PUSH1 0x0 PUSH2 0x247D PUSH1 0x14 DUP4 PUSH2 0x2945 JUMP JUMPDEST SWAP2 POP PUSH2 0x2488 DUP3 PUSH2 0x31C1 JUMP JUMPDEST PUSH1 0x20 DUP3 ADD SWAP1 POP SWAP2 SWAP1 POP JUMP JUMPDEST PUSH1 0x0 PUSH2 0x24A0 PUSH1 0x1F DUP4 PUSH2 0x2945 JUMP JUMPDEST SWAP2 POP PUSH2 0x24AB DUP3 PUSH2 0x31EA JUMP JUMPDEST PUSH1 0x20 DUP3 ADD SWAP1 POP SWAP2 SWAP1 POP JUMP JUMPDEST PUSH1 0x0 PUSH1 0x80 DUP4 ADD PUSH1 0x0 DUP4 ADD MLOAD DUP5 DUP3 SUB PUSH1 0x0 DUP7 ADD MSTORE PUSH2 0x24D3 DUP3 DUP3 PUSH2 0x224C JUMP JUMPDEST SWAP2 POP POP PUSH1 0x20 DUP4 ADD MLOAD PUSH2 0x24E8 PUSH1 0x20 DUP7 ADD DUP3 PUSH2 0x2520 JUMP JUMPDEST POP PUSH1 0x40 DUP4 ADD MLOAD DUP5 DUP3 SUB PUSH1 0x40 DUP7 ADD MSTORE PUSH2 0x2500 DUP3 DUP3 PUSH2 0x224C JUMP JUMPDEST SWAP2 POP POP PUSH1 0x60 DUP4 ADD MLOAD PUSH2 0x2515 PUSH1 0x60 DUP7 ADD DUP3 PUSH2 0x218C JUMP JUMPDEST POP DUP1 SWAP2 POP POP SWAP3 SWAP2 POP POP JUMP JUMPDEST PUSH2 0x2529 DUP2 PUSH2 0x2D32 JUMP JUMPDEST DUP3 MSTORE POP POP JUMP JUMPDEST PUSH2 0x2538 DUP2 PUSH2 0x2D32 JUMP JUMPDEST DUP3 MSTORE POP POP JUMP JUMPDEST PUSH2 0x254F PUSH2 0x254A DUP3 PUSH2 0x2D32 JUMP JUMPDEST PUSH2 0x2E4E JUMP JUMPDEST DUP3 MSTORE POP POP JUMP JUMPDEST PUSH1 0x0 PUSH2 0x2561 DUP3 DUP6 PUSH2 0x2210 JUMP JUMPDEST PUSH1 0x14 DUP3 ADD SWAP2 POP PUSH2 0x2571 DUP3 DUP5 PUSH2 0x253E JUMP JUMPDEST PUSH1 0x20 DUP3 ADD SWAP2 POP DUP2 SWAP1 POP SWAP4 SWAP3 POP POP POP JUMP JUMPDEST PUSH1 0x0 PUSH2 0x258E DUP3 DUP5 DUP7 PUSH2 0x2227 JUMP JUMPDEST SWAP2 POP DUP2 SWAP1 POP SWAP4 SWAP3 POP POP POP JUMP JUMPDEST PUSH1 0x0 PUSH2 0x25A6 DUP3 DUP5 PUSH2 0x22B6 JUMP JUMPDEST SWAP2 POP DUP2 SWAP1 POP SWAP3 SWAP2 POP POP JUMP JUMPDEST PUSH1 0x0 PUSH2 0x25BD DUP3 DUP10 PUSH2 0x22B6 JUMP JUMPDEST SWAP2 POP PUSH2 0x25C9 DUP3 DUP9 PUSH2 0x2285 JUMP JUMPDEST SWAP2 POP PUSH2 0x25D5 DUP3 DUP8 PUSH2 0x2285 JUMP JUMPDEST SWAP2 POP PUSH2 0x25E0 DUP3 PUSH2 0x2358 JUMP JUMPDEST SWAP2 POP PUSH2 0x25EC DUP3 DUP7 PUSH2 0x2285 JUMP JUMPDEST SWAP2 POP PUSH2 0x25F8 DUP3 DUP6 PUSH2 0x2285 JUMP JUMPDEST SWAP2 POP PUSH2 0x2604 DUP3 DUP5 PUSH2 0x2285 JUMP JUMPDEST SWAP2 POP DUP2 SWAP1 POP SWAP8 SWAP7 POP POP POP POP POP POP POP JUMP JUMPDEST PUSH1 0x0 PUSH1 0x20 DUP3 ADD SWAP1 POP PUSH2 0x2629 PUSH1 0x0 DUP4 ADD DUP5 PUSH2 0x219B JUMP JUMPDEST SWAP3 SWAP2 POP POP JUMP JUMPDEST PUSH1 0x0 PUSH1 0x60 DUP3 ADD SWAP1 POP PUSH2 0x2644 PUSH1 0x0 DUP4 ADD DUP7 PUSH2 0x219B JUMP JUMPDEST PUSH2 0x2651 PUSH1 0x20 DUP4 ADD DUP6 PUSH2 0x219B JUMP JUMPDEST PUSH2 0x265E PUSH1 0x40 DUP4 ADD DUP5 PUSH2 0x252F JUMP JUMPDEST SWAP5 SWAP4 POP POP POP POP JUMP JUMPDEST PUSH1 0x0 PUSH1 0x40 DUP3 ADD SWAP1 POP PUSH2 0x267B PUSH1 0x0 DUP4 ADD DUP6 PUSH2 0x219B JUMP JUMPDEST PUSH2 0x2688 PUSH1 0x20 DUP4 ADD DUP5 PUSH2 0x252F JUMP JUMPDEST SWAP4 SWAP3 POP POP POP JUMP JUMPDEST PUSH1 0x0 PUSH2 0x100 DUP3 ADD SWAP1 POP PUSH2 0x26A5 PUSH1 0x0 DUP4 ADD DUP12 PUSH2 0x219B JUMP JUMPDEST PUSH2 0x26B2 PUSH1 0x20 DUP4 ADD DUP11 PUSH2 0x252F JUMP JUMPDEST PUSH2 0x26BF PUSH1 0x40 DUP4 ADD DUP10 PUSH2 0x21B9 JUMP JUMPDEST PUSH2 0x26CC PUSH1 0x60 DUP4 ADD DUP9 PUSH2 0x219B JUMP JUMPDEST PUSH2 0x26D9 PUSH1 0x80 DUP4 ADD DUP8 PUSH2 0x21C8 JUMP JUMPDEST PUSH2 0x26E6 PUSH1 0xA0 DUP4 ADD DUP7 PUSH2 0x252F JUMP JUMPDEST PUSH2 0x26F3 PUSH1 0xC0 DUP4 ADD DUP6 PUSH2 0x252F JUMP JUMPDEST DUP2 DUP2 SUB PUSH1 0xE0 DUP4 ADD MSTORE PUSH2 0x2705 DUP2 DUP5 PUSH2 0x21D7 JUMP JUMPDEST SWAP1 POP SWAP10 SWAP9 POP POP POP POP POP POP POP POP POP JUMP JUMPDEST PUSH1 0x0 PUSH1 0x60 DUP3 ADD SWAP1 POP PUSH2 0x2729 PUSH1 0x0 DUP4 ADD DUP7 PUSH2 0x219B JUMP JUMPDEST PUSH2 0x2736 PUSH1 0x20 DUP4 ADD DUP6 PUSH2 0x252F JUMP JUMPDEST DUP2 DUP2 SUB PUSH1 0x40 DUP4 ADD MSTORE PUSH2 0x2748 DUP2 DUP5 PUSH2 0x21D7 JUMP JUMPDEST SWAP1 POP SWAP5 SWAP4 POP POP POP POP JUMP JUMPDEST PUSH1 0x0 PUSH1 0x40 DUP3 ADD SWAP1 POP PUSH2 0x2767 PUSH1 0x0 DUP4 ADD DUP5 PUSH2 0x21AA JUMP JUMPDEST DUP2 DUP2 SUB PUSH1 0x20 DUP4 ADD MSTORE PUSH2 0x2778 DUP2 PUSH2 0x23E4 JUMP JUMPDEST SWAP1 POP SWAP3 SWAP2 POP POP JUMP JUMPDEST PUSH1 0x0 PUSH1 0x20 DUP3 ADD SWAP1 POP PUSH2 0x2795 PUSH1 0x0 DUP4 ADD DUP5 PUSH2 0x21B9 JUMP JUMPDEST SWAP3 SWAP2 POP POP JUMP JUMPDEST PUSH1 0x0 PUSH1 0x20 DUP3 ADD SWAP1 POP DUP2 DUP2 SUB PUSH1 0x0 DUP4 ADD MSTORE PUSH2 0x27B4 DUP2 PUSH2 0x2335 JUMP JUMPDEST SWAP1 POP SWAP2 SWAP1 POP JUMP JUMPDEST PUSH1 0x0 PUSH1 0x20 DUP3 ADD SWAP1 POP DUP2 DUP2 SUB PUSH1 0x0 DUP4 ADD MSTORE PUSH2 0x27D4 DUP2 PUSH2 0x237B JUMP JUMPDEST SWAP1 POP SWAP2 SWAP1 POP JUMP JUMPDEST PUSH1 0x0 PUSH1 0x20 DUP3 ADD SWAP1 POP DUP2 DUP2 SUB PUSH1 0x0 DUP4 ADD MSTORE PUSH2 0x27F4 DUP2 PUSH2 0x239E JUMP JUMPDEST SWAP1 POP SWAP2 SWAP1 POP JUMP JUMPDEST PUSH1 0x0 PUSH1 0x20 DUP3 ADD SWAP1 POP DUP2 DUP2 SUB PUSH1 0x0 DUP4 ADD MSTORE PUSH2 0x2814 DUP2 PUSH2 0x23C1 JUMP JUMPDEST SWAP1 POP SWAP2 SWAP1 POP JUMP JUMPDEST PUSH1 0x0 PUSH1 0x20 DUP3 ADD SWAP1 POP DUP2 DUP2 SUB PUSH1 0x0 DUP4 ADD MSTORE PUSH2 0x2834 DUP2 PUSH2 0x2407 JUMP JUMPDEST SWAP1 POP SWAP2 SWAP1 POP JUMP JUMPDEST PUSH1 0x0 PUSH1 0x20 DUP3 ADD SWAP1 POP DUP2 DUP2 SUB PUSH1 0x0 DUP4 ADD MSTORE PUSH2 0x2854 DUP2 PUSH2 0x242A JUMP JUMPDEST SWAP1 POP SWAP2 SWAP1 POP JUMP JUMPDEST PUSH1 0x0 PUSH1 0x20 DUP3 ADD SWAP1 POP DUP2 DUP2 SUB PUSH1 0x0 DUP4 ADD MSTORE PUSH2 0x2874 DUP2 PUSH2 0x244D JUMP JUMPDEST SWAP1 POP SWAP2 SWAP1 POP JUMP JUMPDEST PUSH1 0x0 PUSH1 0x20 DUP3 ADD SWAP1 POP DUP2 DUP2 SUB PUSH1 0x0 DUP4 ADD MSTORE PUSH2 0x2894 DUP2 PUSH2 0x2470 JUMP JUMPDEST SWAP1 POP SWAP2 SWAP1 POP JUMP JUMPDEST PUSH1 0x0 PUSH1 0x20 DUP3 ADD SWAP1 POP DUP2 DUP2 SUB PUSH1 0x0 DUP4 ADD MSTORE PUSH2 0x28B4 DUP2 PUSH2 0x2493 JUMP JUMPDEST SWAP1 POP SWAP2 SWAP1 POP JUMP JUMPDEST PUSH1 0x0 PUSH1 0x20 DUP3 ADD SWAP1 POP DUP2 DUP2 SUB PUSH1 0x0 DUP4 ADD MSTORE PUSH2 0x28D5 DUP2 DUP5 PUSH2 0x24B6 JUMP JUMPDEST SWAP1 POP SWAP3 SWAP2 POP POP JUMP JUMPDEST PUSH1 0x0 PUSH1 0x20 DUP3 ADD SWAP1 POP PUSH2 0x28F2 PUSH1 0x0 DUP4 ADD DUP5 PUSH2 0x252F JUMP JUMPDEST SWAP3 SWAP2 POP POP JUMP JUMPDEST PUSH1 0x0 DUP2 SWAP1 POP DUP2 PUSH1 0x0 MSTORE PUSH1 0x20 PUSH1 0x0 KECCAK256 SWAP1 POP SWAP2 SWAP1 POP JUMP JUMPDEST PUSH1 0x0 DUP2 MLOAD SWAP1 POP SWAP2 SWAP1 POP JUMP JUMPDEST PUSH1 0x0 DUP2 MLOAD SWAP1 POP SWAP2 SWAP1 POP JUMP JUMPDEST PUSH1 0x0 DUP3 DUP3 MSTORE PUSH1 0x20 DUP3 ADD SWAP1 POP SWAP3 SWAP2 POP POP JUMP JUMPDEST PUSH1 0x0 DUP3 DUP3 MSTORE PUSH1 0x20 DUP3 ADD SWAP1 POP SWAP3 SWAP2 POP POP JUMP JUMPDEST PUSH1 0x0 DUP3 DUP3 MSTORE PUSH1 0x20 DUP3 ADD SWAP1 POP SWAP3 SWAP2 POP POP JUMP JUMPDEST PUSH1 0x0 DUP2 SWAP1 POP SWAP3 SWAP2 POP POP JUMP JUMPDEST PUSH1 0x0 PUSH2 0x296C DUP3 PUSH2 0x2D32 JUMP JUMPDEST SWAP2 POP PUSH2 0x2977 DUP4 PUSH2 0x2D32 JUMP JUMPDEST SWAP3 POP DUP3 PUSH32 0xFFFFFFFFFFFFFFFFFFFFFFFFFFFFFFFFFFFFFFFFFFFFFFFFFFFFFFFFFFFFFFFF SUB DUP3 GT ISZERO PUSH2 0x29AC JUMPI PUSH2 0x29AB PUSH2 0x2E89 JUMP JUMPDEST JUMPDEST DUP3 DUP3 ADD SWAP1 POP SWAP3 SWAP2 POP POP JUMP JUMPDEST PUSH1 0x0 PUSH2 0x29C2 DUP3 PUSH2 0x2D3C JUMP JUMPDEST SWAP2 POP PUSH2 0x29CD DUP4 PUSH2 0x2D3C JUMP JUMPDEST SWAP3 POP DUP3 PUSH1 0xFF SUB DUP3 GT ISZERO PUSH2 0x29E3 JUMPI PUSH2 0x29E2 PUSH2 0x2E89 JUMP JUMPDEST JUMPDEST DUP3 DUP3 ADD SWAP1 POP SWAP3 SWAP2 POP POP JUMP JUMPDEST PUSH1 0x0 PUSH2 0x29F9 DUP3 PUSH2 0x2D32 JUMP JUMPDEST SWAP2 POP PUSH2 0x2A04 DUP4 PUSH2 0x2D32 JUMP JUMPDEST SWAP3 POP DUP3 PUSH2 0x2A14 JUMPI PUSH2 0x2A13 PUSH2 0x2EB8 JUMP JUMPDEST JUMPDEST DUP3 DUP3 DIV SWAP1 POP SWAP3 SWAP2 POP POP JUMP JUMPDEST PUSH1 0x0 PUSH2 0x2A2A DUP3 PUSH2 0x2D3C JUMP JUMPDEST SWAP2 POP PUSH2 0x2A35 DUP4 PUSH2 0x2D3C JUMP JUMPDEST SWAP3 POP DUP3 PUSH2 0x2A45 JUMPI PUSH2 0x2A44 PUSH2 0x2EB8 JUMP JUMPDEST JUMPDEST DUP3 DUP3 DIV SWAP1 POP SWAP3 SWAP2 POP POP JUMP JUMPDEST PUSH1 0x0 DUP1 DUP3 SWAP2 POP DUP4 SWAP1 POP JUMPDEST PUSH1 0x1 DUP6 GT ISZERO PUSH2 0x2A9A JUMPI DUP1 DUP7 DIV DUP2 GT ISZERO PUSH2 0x2A76 JUMPI PUSH2 0x2A75 PUSH2 0x2E89 JUMP JUMPDEST JUMPDEST PUSH1 0x1 DUP6 AND ISZERO PUSH2 0x2A85 JUMPI DUP1 DUP3 MUL SWAP2 POP JUMPDEST DUP1 DUP2 MUL SWAP1 POP PUSH2 0x2A93 DUP6 PUSH2 0x2FAB JUMP JUMPDEST SWAP5 POP PUSH2 0x2A5A JUMP JUMPDEST SWAP5 POP SWAP5 SWAP3 POP POP POP JUMP JUMPDEST PUSH1 0x0 PUSH2 0x2AAE DUP3 PUSH2 0x2D32 JUMP JUMPDEST SWAP2 POP PUSH2 0x2AB9 DUP4 PUSH2 0x2D32 JUMP JUMPDEST SWAP3 POP PUSH2 0x2AE6 PUSH32 0xFFFFFFFFFFFFFFFFFFFFFFFFFFFFFFFFFFFFFFFFFFFFFFFFFFFFFFFFFFFFFFFF DUP5 DUP5 PUSH2 0x2AEE JUMP JUMPDEST SWAP1 POP SWAP3 SWAP2 POP POP JUMP JUMPDEST PUSH1 0x0 DUP3 PUSH2 0x2AFE JUMPI PUSH1 0x1 SWAP1 POP PUSH2 0x2BBA JUMP JUMPDEST DUP2 PUSH2 0x2B0C JUMPI PUSH1 0x0 SWAP1 POP PUSH2 0x2BBA JUMP JUMPDEST DUP2 PUSH1 0x1 DUP2 EQ PUSH2 0x2B22 JUMPI PUSH1 0x2 DUP2 EQ PUSH2 0x2B2C JUMPI PUSH2 0x2B5B JUMP JUMPDEST PUSH1 0x1 SWAP2 POP POP PUSH2 0x2BBA JUMP JUMPDEST PUSH1 0xFF DUP5 GT ISZERO PUSH2 0x2B3E JUMPI PUSH2 0x2B3D PUSH2 0x2E89 JUMP JUMPDEST JUMPDEST DUP4 PUSH1 0x2 EXP SWAP2 POP DUP5 DUP3 GT ISZERO PUSH2 0x2B55 JUMPI PUSH2 0x2B54 PUSH2 0x2E89 JUMP JUMPDEST JUMPDEST POP PUSH2 0x2BBA JUMP JUMPDEST POP PUSH1 0x20 DUP4 LT PUSH2 0x133 DUP4 LT AND PUSH1 0x4E DUP5 LT PUSH1 0xB DUP5 LT AND OR ISZERO PUSH2 0x2B90 JUMPI DUP3 DUP3 EXP SWAP1 POP DUP4 DUP2 GT ISZERO PUSH2 0x2B8B JUMPI PUSH2 0x2B8A PUSH2 0x2E89 JUMP JUMPDEST JUMPDEST PUSH2 0x2BBA JUMP JUMPDEST PUSH2 0x2B9D DUP5 DUP5 DUP5 PUSH1 0x1 PUSH2 0x2A50 JUMP JUMPDEST SWAP3 POP SWAP1 POP DUP2 DUP5 DIV DUP2 GT ISZERO PUSH2 0x2BB4 JUMPI PUSH2 0x2BB3 PUSH2 0x2E89 JUMP JUMPDEST JUMPDEST DUP2 DUP2 MUL SWAP1 POP JUMPDEST SWAP4 SWAP3 POP POP POP JUMP JUMPDEST PUSH1 0x0 PUSH2 0x2BCC DUP3 PUSH2 0x2D32 JUMP JUMPDEST SWAP2 POP PUSH2 0x2BD7 DUP4 PUSH2 0x2D32 JUMP JUMPDEST SWAP3 POP DUP2 PUSH32 0xFFFFFFFFFFFFFFFFFFFFFFFFFFFFFFFFFFFFFFFFFFFFFFFFFFFFFFFFFFFFFFFF DIV DUP4 GT DUP3 ISZERO ISZERO AND ISZERO PUSH2 0x2C10 JUMPI PUSH2 0x2C0F PUSH2 0x2E89 JUMP JUMPDEST JUMPDEST DUP3 DUP3 MUL SWAP1 POP SWAP3 SWAP2 POP POP JUMP JUMPDEST PUSH1 0x0 PUSH2 0x2C26 DUP3 PUSH2 0x2D3C JUMP JUMPDEST SWAP2 POP PUSH2 0x2C31 DUP4 PUSH2 0x2D3C JUMP JUMPDEST SWAP3 POP DUP2 PUSH1 0xFF DIV DUP4 GT DUP3 ISZERO ISZERO AND ISZERO PUSH2 0x2C4B JUMPI PUSH2 0x2C4A PUSH2 0x2E89 JUMP JUMPDEST JUMPDEST DUP3 DUP3 MUL SWAP1 POP SWAP3 SWAP2 POP POP JUMP JUMPDEST PUSH1 0x0 PUSH2 0x2C61 DUP3 PUSH2 0x2D32 JUMP JUMPDEST SWAP2 POP PUSH2 0x2C6C DUP4 PUSH2 0x2D32 JUMP JUMPDEST SWAP3 POP DUP3 DUP3 LT ISZERO PUSH2 0x2C7F JUMPI PUSH2 0x2C7E PUSH2 0x2E89 JUMP JUMPDEST JUMPDEST DUP3 DUP3 SUB SWAP1 POP SWAP3 SWAP2 POP POP JUMP JUMPDEST PUSH1 0x0 PUSH2 0x2C95 DUP3 PUSH2 0x2D3C JUMP JUMPDEST SWAP2 POP PUSH2 0x2CA0 DUP4 PUSH2 0x2D3C JUMP JUMPDEST SWAP3 POP DUP3 DUP3 LT ISZERO PUSH2 0x2CB3 JUMPI PUSH2 0x2CB2 PUSH2 0x2E89 JUMP JUMPDEST JUMPDEST DUP3 DUP3 SUB SWAP1 POP SWAP3 SWAP2 POP POP JUMP JUMPDEST PUSH1 0x0 PUSH2 0x2CC9 DUP3 PUSH2 0x2D12 JUMP JUMPDEST SWAP1 POP SWAP2 SWAP1 POP JUMP JUMPDEST PUSH1 0x0 DUP2 ISZERO ISZERO SWAP1 POP SWAP2 SWAP1 POP JUMP JUMPDEST PUSH1 0x0 DUP2 SWAP1 POP SWAP2 SWAP1 POP JUMP JUMPDEST PUSH1 0x0 PUSH32 0xFFFFFFFF00000000000000000000000000000000000000000000000000000000 DUP3 AND SWAP1 POP SWAP2 SWAP1 POP JUMP JUMPDEST PUSH1 0x0 PUSH20 0xFFFFFFFFFFFFFFFFFFFFFFFFFFFFFFFFFFFFFFFF DUP3 AND SWAP1 POP SWAP2 SWAP1 POP JUMP JUMPDEST PUSH1 0x0 DUP2 SWAP1 POP SWAP2 SWAP1 POP JUMP JUMPDEST PUSH1 0x0 PUSH1 0xFF DUP3 AND SWAP1 POP SWAP2 SWAP1 POP JUMP JUMPDEST PUSH1 0x0 PUSH2 0x2D54 DUP3 PUSH2 0x2D5B JUMP JUMPDEST SWAP1 POP SWAP2 SWAP1 POP JUMP JUMPDEST PUSH1 0x0 PUSH2 0x2D66 DUP3 PUSH2 0x2D12 JUMP JUMPDEST SWAP1 POP SWAP2 SWAP1 POP JUMP JUMPDEST DUP3 DUP2 DUP4 CALLDATACOPY PUSH1 0x0 DUP4 DUP4 ADD MSTORE POP POP POP JUMP JUMPDEST PUSH1 0x0 JUMPDEST DUP4 DUP2 LT ISZERO PUSH2 0x2D9A JUMPI DUP1 DUP3 ADD MLOAD DUP2 DUP5 ADD MSTORE PUSH1 0x20 DUP2 ADD SWAP1 POP PUSH2 0x2D7F JUMP JUMPDEST DUP4 DUP2 GT ISZERO PUSH2 0x2DA9 JUMPI PUSH1 0x0 DUP5 DUP5 ADD MSTORE JUMPDEST POP POP POP POP JUMP JUMPDEST PUSH1 0x0 PUSH1 0x2 DUP3 DIV SWAP1 POP PUSH1 0x1 DUP3 AND DUP1 PUSH2 0x2DC7 JUMPI PUSH1 0x7F DUP3 AND SWAP2 POP JUMPDEST PUSH1 0x20 DUP3 LT DUP2 EQ ISZERO PUSH2 0x2DDB JUMPI PUSH2 0x2DDA PUSH2 0x2EE7 JUMP JUMPDEST JUMPDEST POP SWAP2 SWAP1 POP JUMP JUMPDEST PUSH1 0x0 PUSH2 0x2DEC DUP3 PUSH2 0x2D32 JUMP JUMPDEST SWAP2 POP PUSH32 0xFFFFFFFFFFFFFFFFFFFFFFFFFFFFFFFFFFFFFFFFFFFFFFFFFFFFFFFFFFFFFFFF DUP3 EQ ISZERO PUSH2 0x2E1F JUMPI PUSH2 0x2E1E PUSH2 0x2E89 JUMP JUMPDEST JUMPDEST PUSH1 0x1 DUP3 ADD SWAP1 POP SWAP2 SWAP1 POP JUMP JUMPDEST PUSH1 0x0 PUSH2 0x2E35 DUP3 PUSH2 0x2E3C JUMP JUMPDEST SWAP1 POP SWAP2 SWAP1 POP JUMP JUMPDEST PUSH1 0x0 PUSH2 0x2E47 DUP3 PUSH2 0x2F9E JUMP JUMPDEST SWAP1 POP SWAP2 SWAP1 POP JUMP JUMPDEST PUSH1 0x0 DUP2 SWAP1 POP SWAP2 SWAP1 POP JUMP JUMPDEST PUSH1 0x0 PUSH2 0x2E63 DUP3 PUSH2 0x2D32 JUMP JUMPDEST SWAP2 POP PUSH2 0x2E6E DUP4 PUSH2 0x2D32 JUMP JUMPDEST SWAP3 POP DUP3 PUSH2 0x2E7E JUMPI PUSH2 0x2E7D PUSH2 0x2EB8 JUMP JUMPDEST JUMPDEST DUP3 DUP3 MOD SWAP1 POP SWAP3 SWAP2 POP POP JUMP JUMPDEST PUSH32 0x4E487B7100000000000000000000000000000000000000000000000000000000 PUSH1 0x0 MSTORE PUSH1 0x11 PUSH1 0x4 MSTORE PUSH1 0x24 PUSH1 0x0 REVERT JUMPDEST PUSH32 0x4E487B7100000000000000000000000000000000000000000000000000000000 PUSH1 0x0 MSTORE PUSH1 0x12 PUSH1 0x4 MSTORE PUSH1 0x24 PUSH1 0x0 REVERT JUMPDEST PUSH32 0x4E487B7100000000000000000000000000000000000000000000000000000000 PUSH1 0x0 MSTORE PUSH1 0x22 PUSH1 0x4 MSTORE PUSH1 0x24 PUSH1 0x0 REVERT JUMPDEST PUSH32 0x4E487B7100000000000000000000000000000000000000000000000000000000 PUSH1 0x0 MSTORE PUSH1 0x32 PUSH1 0x4 MSTORE PUSH1 0x24 PUSH1 0x0 REVERT JUMPDEST PUSH32 0x4E487B7100000000000000000000000000000000000000000000000000000000 PUSH1 0x0 MSTORE PUSH1 0x41 PUSH1 0x4 MSTORE PUSH1 0x24 PUSH1 0x0 REVERT JUMPDEST PUSH1 0x0 DUP1 REVERT JUMPDEST PUSH1 0x0 DUP1 REVERT JUMPDEST PUSH1 0x0 DUP1 REVERT JUMPDEST PUSH1 0x0 DUP1 REVERT JUMPDEST PUSH1 0x0 DUP1 REVERT JUMPDEST PUSH1 0x0 PUSH1 0x1F NOT PUSH1 0x1F DUP4 ADD AND SWAP1 POP SWAP2 SWAP1 POP JUMP JUMPDEST PUSH1 0x0 DUP2 PUSH1 0x60 SHL SWAP1 POP SWAP2 SWAP1 POP JUMP JUMPDEST PUSH1 0x0 DUP2 PUSH1 0x1 SHR SWAP1 POP SWAP2 SWAP1 POP JUMP JUMPDEST PUSH32 0x596F7520646F6E74206861766520656E6F7567682062616C616E636500000000 PUSH1 0x0 DUP3 ADD MSTORE POP JUMP JUMPDEST PUSH32 0x3078000000000000000000000000000000000000000000000000000000000000 PUSH1 0x0 DUP3 ADD MSTORE POP JUMP JUMPDEST PUSH32 0x756E61626C6520746F207472616E73666572416E6443616C6C20746F206F7261 PUSH1 0x0 DUP3 ADD MSTORE PUSH32 0x636C650000000000000000000000000000000000000000000000000000000000 PUSH1 0x20 DUP3 ADD MSTORE POP JUMP JUMPDEST PUSH32 0x5769746864726177616C207472616E73616374696F6E206E6F7420666F756E64 PUSH1 0x0 DUP3 ADD MSTORE POP JUMP JUMPDEST PUSH32 0x5769746864726177616C207472616E73616374696F6E20616C72656164792065 PUSH1 0x0 DUP3 ADD MSTORE PUSH32 0x7869737473000000000000000000000000000000000000000000000000000000 PUSH1 0x20 DUP3 ADD MSTORE POP JUMP JUMPDEST PUSH32 0x436F6E6669726D65640000000000000000000000000000000000000000000000 PUSH1 0x0 DUP3 ADD MSTORE POP JUMP JUMPDEST PUSH32 0x4465706F736974207472616E73616374696F6E73206E6F7420666F756E640000 PUSH1 0x0 DUP3 ADD MSTORE POP JUMP JUMPDEST PUSH32 0x536F75726365206D75737420626520746865206F7261636C65206F6620746865 PUSH1 0x0 DUP3 ADD MSTORE PUSH32 0x2072657175657374000000000000000000000000000000000000000000000000 PUSH1 0x20 DUP3 ADD MSTORE POP JUMP JUMPDEST PUSH32 0x4465706F736974207472616E73616374696F6E20616C72656164792065786973 PUSH1 0x0 DUP3 ADD MSTORE PUSH32 0x7473000000000000000000000000000000000000000000000000000000000000 PUSH1 0x20 DUP3 ADD MSTORE POP JUMP JUMPDEST PUSH32 0x6E6F742076616C6964207769746864726177616C000000000000000000000000 PUSH1 0x0 DUP3 ADD MSTORE POP JUMP JUMPDEST PUSH32 0x5265656E7472616E637947756172643A207265656E7472616E742063616C6C00 PUSH1 0x0 DUP3 ADD MSTORE POP JUMP JUMPDEST PUSH2 0x321C DUP2 PUSH2 0x2CD0 JUMP JUMPDEST DUP2 EQ PUSH2 0x3227 JUMPI PUSH1 0x0 DUP1 REVERT JUMPDEST POP JUMP JUMPDEST PUSH2 0x3233 DUP2 PUSH2 0x2CDC JUMP JUMPDEST DUP2 EQ PUSH2 0x323E JUMPI PUSH1 0x0 DUP1 REVERT JUMPDEST POP JUMP JUMPDEST PUSH2 0x324A DUP2 PUSH2 0x2D32 JUMP JUMPDEST DUP2 EQ PUSH2 0x3255 JUMPI PUSH1 0x0 DUP1 REVERT JUMPDEST POP JUMP INVALID LOG2 PUSH5 0x6970667358 0x22 SLT KECCAK256 0x26 0xB2 SWAP14 0x21 PUSH14 0x5B2F216BA8A2D3C1AD053018B761 DUP7 0xC1 0xAE RETURN PUSH23 0xD37AB1A6B82DDE7A64736F6C6343000806003368747470 PUSH20 0x3A2F2F62757374616269742D6170692E6B617961 PUSH12 0x2D73747564696F2E636F6D2F PUSH2 0x7069 0x2F PUSH23 0x312F7472616E73616374696F6E732F76616C6964617465 EXTCODEHASH PUSH21 0x72616E73616374696F6E49643D0000000000000000 "
		},
		"gasEstimates": {
			"creation": {
				"codeDepositCost": "2588400",
				"executionCost": "infinite",
				"totalCost": "infinite"
			},
			"external": {
				"deposit(string,uint256)": "infinite",
				"fulfill(bytes32,uint256)": "infinite",
				"getDepositTransaction(string)": "infinite",
				"getVolume()": "2459",
				"getWithdrawTransaction(string)": "infinite",
				"userAddress()": "451",
				"volume()": "2429",
				"withdrawal(string,uint256)": "infinite"
			},
			"internal": {
				"createUrl(string memory,uint256)": "infinite"
			}
		},
		"methodIdentifiers": {
			"deposit(string,uint256)": "8e27d719",
			"fulfill(bytes32,uint256)": "4357855e",
			"getDepositTransaction(string)": "d0becb39",
			"getVolume()": "c67bbc24",
			"getWithdrawTransaction(string)": "4fa933ef",
			"userAddress()": "e4128fb3",
			"volume()": "c618a1e4",
			"withdrawal(string,uint256)": "9df09d92"
		}
	},
	"abi": [
		{
			"inputs": [],
			"stateMutability": "nonpayable",
			"type": "constructor"
		},
		{
			"anonymous": false,
			"inputs": [
				{
					"indexed": true,
					"internalType": "bytes32",
					"name": "id",
					"type": "bytes32"
				}
			],
			"name": "ChainlinkCancelled",
			"type": "event"
		},
		{
			"anonymous": false,
			"inputs": [
				{
					"indexed": true,
					"internalType": "bytes32",
					"name": "id",
					"type": "bytes32"
				}
			],
			"name": "ChainlinkFulfilled",
			"type": "event"
		},
		{
			"anonymous": false,
			"inputs": [
				{
					"indexed": true,
					"internalType": "bytes32",
					"name": "id",
					"type": "bytes32"
				}
			],
			"name": "ChainlinkRequested",
			"type": "event"
		},
		{
			"anonymous": false,
			"inputs": [
				{
					"indexed": false,
					"internalType": "bool",
					"name": "submited",
					"type": "bool"
				},
				{
					"indexed": false,
					"internalType": "string",
					"name": "message",
					"type": "string"
				}
			],
			"name": "TransactionCreated",
			"type": "event"
		},
		{
			"inputs": [
				{
					"internalType": "string",
					"name": "_tid",
					"type": "string"
				},
				{
					"internalType": "uint256",
					"name": "_amount",
					"type": "uint256"
				}
			],
			"name": "deposit",
			"outputs": [],
			"stateMutability": "nonpayable",
			"type": "function"
		},
		{
			"inputs": [
				{
					"internalType": "bytes32",
					"name": "_requestId",
					"type": "bytes32"
				},
				{
					"internalType": "uint256",
					"name": "_volume",
					"type": "uint256"
				}
			],
			"name": "fulfill",
			"outputs": [],
			"stateMutability": "nonpayable",
			"type": "function"
		},
		{
			"inputs": [
				{
					"internalType": "string",
					"name": "_tid",
					"type": "string"
				}
			],
			"name": "getDepositTransaction",
			"outputs": [
				{
					"components": [
						{
							"internalType": "string",
							"name": "tid",
							"type": "string"
						},
						{
							"internalType": "uint256",
							"name": "amount",
							"type": "uint256"
						},
						{
							"internalType": "string",
							"name": "operation",
							"type": "string"
						},
						{
							"internalType": "address",
							"name": "sender",
							"type": "address"
						}
					],
					"internalType": "struct Transfers.Transaction",
					"name": "",
					"type": "tuple"
				}
			],
			"stateMutability": "view",
			"type": "function"
		},
		{
			"inputs": [],
			"name": "getVolume",
			"outputs": [
				{
					"internalType": "uint256",
					"name": "",
					"type": "uint256"
				}
			],
			"stateMutability": "view",
			"type": "function"
		},
		{
			"inputs": [
				{
					"internalType": "string",
					"name": "_tid",
					"type": "string"
				}
			],
			"name": "getWithdrawTransaction",
			"outputs": [
				{
					"components": [
						{
							"internalType": "string",
							"name": "tid",
							"type": "string"
						},
						{
							"internalType": "uint256",
							"name": "amount",
							"type": "uint256"
						},
						{
							"internalType": "string",
							"name": "operation",
							"type": "string"
						},
						{
							"internalType": "address",
							"name": "sender",
							"type": "address"
						}
					],
					"internalType": "struct Transfers.Transaction",
					"name": "",
					"type": "tuple"
				}
			],
			"stateMutability": "view",
			"type": "function"
		},
		{
			"inputs": [],
			"name": "userAddress",
			"outputs": [
				{
					"internalType": "address",
					"name": "",
					"type": "address"
				}
			],
			"stateMutability": "view",
			"type": "function"
		},
		{
			"inputs": [],
			"name": "volume",
			"outputs": [
				{
					"internalType": "uint256",
					"name": "",
					"type": "uint256"
				}
			],
			"stateMutability": "view",
			"type": "function"
		},
		{
			"inputs": [
				{
					"internalType": "string",
					"name": "_tid",
					"type": "string"
				},
				{
					"internalType": "uint256",
					"name": "_amount",
					"type": "uint256"
				}
			],
			"name": "withdrawal",
			"outputs": [
				{
					"internalType": "bytes32",
					"name": "requestId",
					"type": "bytes32"
				}
			],
			"stateMutability": "nonpayable",
			"type": "function"
		}
	]
}