{
  "contractName": "Transfers",
  "abi": [
    {
      "inputs": [],
      "stateMutability": "nonpayable",
      "type": "constructor"
    },
    {
      "anonymous": false,
      "inputs": [
        {
          "indexed": false,
          "internalType": "string",
          "name": "tid",
          "type": "string"
        },
        {
          "indexed": false,
          "internalType": "uint256",
          "name": "amount",
          "type": "uint256"
        },
        {
          "indexed": false,
          "internalType": "bool",
          "name": "submited",
          "type": "bool"
        },
        {
          "indexed": false,
          "internalType": "string",
          "name": "message",
          "type": "string"
        },
        {
          "indexed": false,
          "internalType": "string",
          "name": "currency",
          "type": "string"
        }
      ],
      "name": "TransactionCreated",
      "type": "event"
    },
    {
      "inputs": [],
      "name": "BUSD",
      "outputs": [
        {
          "internalType": "address",
          "name": "",
          "type": "address"
        }
      ],
      "stateMutability": "view",
      "type": "function",
      "constant": true
    },
    {
      "inputs": [],
      "name": "owner",
      "outputs": [
        {
          "internalType": "address",
          "name": "",
          "type": "address"
        }
      ],
      "stateMutability": "view",
      "type": "function",
      "constant": true
    },
    {
      "inputs": [
        {
          "internalType": "string",
          "name": "_tid",
          "type": "string"
        },
        {
          "internalType": "uint256",
          "name": "_amount",
          "type": "uint256"
        }
      ],
      "name": "deposit",
      "outputs": [],
      "stateMutability": "nonpayable",
      "type": "function"
    },
    {
      "inputs": [
        {
          "internalType": "string",
          "name": "_tid",
          "type": "string"
        }
      ],
      "name": "getDepositTransaction",
      "outputs": [
        {
          "components": [
            {
              "internalType": "string",
              "name": "tid",
              "type": "string"
            },
            {
              "internalType": "uint256",
              "name": "amount",
              "type": "uint256"
            },
            {
              "internalType": "string",
              "name": "operation",
              "type": "string"
            },
            {
              "internalType": "address",
              "name": "userAddress",
              "type": "address"
            },
            {
              "internalType": "string",
              "name": "currency",
              "type": "string"
            }
          ],
          "internalType": "struct Transfers.Transaction",
          "name": "",
          "type": "tuple"
        }
      ],
      "stateMutability": "view",
      "type": "function",
      "constant": true
    },
    {
      "inputs": [
        {
          "internalType": "string",
          "name": "_tid",
          "type": "string"
        },
        {
          "internalType": "uint256",
          "name": "_amount",
          "type": "uint256"
        },
        {
          "internalType": "address",
          "name": "_receiver",
          "type": "address"
        }
      ],
      "name": "withdraw",
      "outputs": [],
      "stateMutability": "nonpayable",
      "type": "function"
    },
    {
      "inputs": [],
      "name": "contractBUSDs",
      "outputs": [
        {
          "internalType": "uint256",
          "name": "",
          "type": "uint256"
        }
      ],
      "stateMutability": "view",
      "type": "function",
      "constant": true
    },
    {
      "inputs": [],
      "name": "enablePause",
      "outputs": [],
      "stateMutability": "nonpayable",
      "type": "function"
    },
    {
      "inputs": [],
      "name": "disablePause",
      "outputs": [],
      "stateMutability": "nonpayable",
      "type": "function"
    },
    {
      "inputs": [
        {
          "internalType": "address",
          "name": "receiver",
          "type": "address"
        },
        {
          "internalType": "uint256",
          "name": "_amount",
          "type": "uint256"
        }
      ],
      "name": "withdrawBUSD",
      "outputs": [],
      "stateMutability": "nonpayable",
      "type": "function"
    }
  ],
  "bytecode": "0x608060405234801561001057600080fd5b50600160008190555073e9e7cea3dedca5984780bafc599bd69add087d56600160006101000a81548173ffffffffffffffffffffffffffffffffffffffff021916908373ffffffffffffffffffffffffffffffffffffffff16021790555073c03d0af74cf3d08d92a236f0691cbab0b8c8830d600260006101000a81548173ffffffffffffffffffffffffffffffffffffffff021916908373ffffffffffffffffffffffffffffffffffffffff1602179055506000600260146101000a81548160ff021916908315150217905550612368806100ed6000396000f3fe608060405234801561001057600080fd5b50600436106100935760003560e01c80637804e707116100665780637804e707146100e85780638da5cb5b146101045780638e27d71914610122578063d0becb391461013e578063f22417381461016e57610093565b8063117b2e4f14610098578063367fe722146100b6578063484f4ea9146100c0578063584f969a146100de575b600080fd5b6100a061018a565b6040516100ad9190611347565b60405180910390f35b6100be610232565b005b6100c86102df565b6040516100d591906113a3565b60405180910390f35b6100e6610305565b005b61010260048036038101906100fd9190611485565b6103b2565b005b61010c61076f565b60405161011991906113a3565b60405180910390f35b61013c600480360381019061013791906114f9565b610795565b005b61015860048036038101906101539190611559565b610be1565b60405161016591906116e1565b60405180910390f35b61018860048036038101906101839190611703565b610e9c565b005b600080600160009054906101000a900473ffffffffffffffffffffffffffffffffffffffff1673ffffffffffffffffffffffffffffffffffffffff166370a08231306040518263ffffffff1660e01b81526004016101e891906113a3565b602060405180830381865afa158015610205573d6000803e3d6000fd5b505050506040513d601f19601f820116820180604052508101906102299190611758565b90508091505090565b600260009054906101000a900473ffffffffffffffffffffffffffffffffffffffff1673ffffffffffffffffffffffffffffffffffffffff163373ffffffffffffffffffffffffffffffffffffffff16146102c2576040517f08c379a00000000000000000000000000000000000000000000000000000000081526004016102b990611808565b60405180910390fd5b6001600260146101000a81548160ff021916908315150217905550565b600160009054906101000a900473ffffffffffffffffffffffffffffffffffffffff1681565b600260009054906101000a900473ffffffffffffffffffffffffffffffffffffffff1673ffffffffffffffffffffffffffffffffffffffff163373ffffffffffffffffffffffffffffffffffffffff1614610395576040517f08c379a000000000000000000000000000000000000000000000000000000000815260040161038c90611808565b60405180910390fd5b6000600260146101000a81548160ff021916908315150217905550565b60001515600260149054906101000a900460ff16151514610408576040517f08c379a00000000000000000000000000000000000000000000000000000000081526004016103ff90611874565b60405180910390fd5b838360006004838360405161041e9291906118d3565b90815260200160405180910390206001015414610470576040517f08c379a00000000000000000000000000000000000000000000000000000000081526004016104679061195e565b60405180910390fd5b6002600054036104b5576040517f08c379a00000000000000000000000000000000000000000000000000000000081526004016104ac906119ca565b60405180910390fd5b6002600081905550600260009054906101000a900473ffffffffffffffffffffffffffffffffffffffff1673ffffffffffffffffffffffffffffffffffffffff163373ffffffffffffffffffffffffffffffffffffffff161461054d576040517f08c379a000000000000000000000000000000000000000000000000000000000815260040161054490611808565b60405180910390fd5b60006040518060a0016040528088888080601f016020809104026020016040519081016040528093929190818152602001838380828437600081840152601f19601f8201169050808301925050505050505081526020018681526020016040518060400160405280600381526020017f646563000000000000000000000000000000000000000000000000000000000081525081526020018573ffffffffffffffffffffffffffffffffffffffff1681526020016040518060400160405280600481526020017f42555344000000000000000000000000000000000000000000000000000000008152508152509050806004888860405161064f9291906118d3565b908152602001604051809103902060008201518160000190816106729190611c25565b506020820151816001015560408201518160020190816106929190611c25565b5060608201518160030160006101000a81548173ffffffffffffffffffffffffffffffffffffffff021916908373ffffffffffffffffffffffffffffffffffffffff16021790555060808201518160040190816106ef9190611c25565b50905050610720600160009054906101000a900473ffffffffffffffffffffffffffffffffffffffff168587610f5d565b7f99777f049a048c883595501c959b56b00129db41f58d42a717a315077a43ca7c87878760016040516107569493929190611dd7565b60405180910390a1506001600081905550505050505050565b600260009054906101000a900473ffffffffffffffffffffffffffffffffffffffff1681565b60001515600260149054906101000a900460ff161515146107eb576040517f08c379a00000000000000000000000000000000000000000000000000000000081526004016107e290611874565b60405180910390fd5b806000600160009054906101000a900473ffffffffffffffffffffffffffffffffffffffff1673ffffffffffffffffffffffffffffffffffffffff166370a08231336040518263ffffffff1660e01b815260040161084991906113a3565b602060405180830381865afa158015610866573d6000803e3d6000fd5b505050506040513d601f19601f8201168201806040525081019061088a9190611758565b90506000670de0b6b3a7640000836108a29190611e6c565b90508082101580156108b5575060008114155b6108f4576040517f08c379a00000000000000000000000000000000000000000000000000000000081526004016108eb90611f12565b60405180910390fd5b858560006003838360405161090a9291906118d3565b9081526020016040518091039020600101541461095c576040517f08c379a000000000000000000000000000000000000000000000000000000000815260040161095390611fa4565b60405180910390fd5b6002600054036109a1576040517f08c379a0000000000000000000000000000000000000000000000000000000008152600401610998906119ca565b60405180910390fd5b60026000819055506109ea600160009054906101000a900473ffffffffffffffffffffffffffffffffffffffff163330670de0b6b3a76400008a6109e59190611e6c565b610fe3565b60006040518060a001604052808a8a8080601f016020809104026020016040519081016040528093929190818152602001838380828437600081840152601f19601f8201169050808301925050505050505081526020018881526020016040518060400160405280600381526020017f696e63000000000000000000000000000000000000000000000000000000000081525081526020013373ffffffffffffffffffffffffffffffffffffffff1681526020016040518060400160405280600481526020017f425553440000000000000000000000000000000000000000000000000000000081525081525090508060038a8a604051610aec9291906118d3565b90815260200160405180910390206000820151816000019081610b0f9190611c25565b50602082015181600101556040820151816002019081610b2f9190611c25565b5060608201518160030160006101000a81548173ffffffffffffffffffffffffffffffffffffffff021916908373ffffffffffffffffffffffffffffffffffffffff1602179055506080820151816004019081610b8c9190611c25565b509050507f99777f049a048c883595501c959b56b00129db41f58d42a717a315077a43ca7c8989896001604051610bc69493929190611dd7565b60405180910390a15060016000819055505050505050505050565b610be96112e9565b8282600060038383604051610bff9291906118d3565b90815260200160405180910390206001015403610c51576040517f08c379a0000000000000000000000000000000000000000000000000000000008152600401610c4890612010565b60405180910390fd5b60038585604051610c639291906118d3565b90815260200160405180910390206040518060a0016040529081600082018054610c8c90611a48565b80601f0160208091040260200160405190810160405280929190818152602001828054610cb890611a48565b8015610d055780601f10610cda57610100808354040283529160200191610d05565b820191906000526020600020905b815481529060010190602001808311610ce857829003601f168201915b5050505050815260200160018201548152602001600282018054610d2890611a48565b80601f0160208091040260200160405190810160405280929190818152602001828054610d5490611a48565b8015610da15780601f10610d7657610100808354040283529160200191610da1565b820191906000526020600020905b815481529060010190602001808311610d8457829003601f168201915b505050505081526020016003820160009054906101000a900473ffffffffffffffffffffffffffffffffffffffff1673ffffffffffffffffffffffffffffffffffffffff1673ffffffffffffffffffffffffffffffffffffffff168152602001600482018054610e1090611a48565b80601f0160208091040260200160405190810160405280929190818152602001828054610e3c90611a48565b8015610e895780601f10610e5e57610100808354040283529160200191610e89565b820191906000526020600020905b815481529060010190602001808311610e6c57829003601f168201915b5050505050815250509250505092915050565b600260009054906101000a900473ffffffffffffffffffffffffffffffffffffffff1673ffffffffffffffffffffffffffffffffffffffff163373ffffffffffffffffffffffffffffffffffffffff1614610f2c576040517f08c379a0000000000000000000000000000000000000000000000000000000008152600401610f2390611808565b60405180910390fd5b610f59600160009054906101000a900473ffffffffffffffffffffffffffffffffffffffff168383610f5d565b5050565b610fde8363a9059cbb60e01b8484604051602401610f7c929190612030565b604051602081830303815290604052907bffffffffffffffffffffffffffffffffffffffffffffffffffffffff19166020820180517bffffffffffffffffffffffffffffffffffffffffffffffffffffffff838183161783525050505061106c565b505050565b611066846323b872dd60e01b85858560405160240161100493929190612059565b604051602081830303815290604052907bffffffffffffffffffffffffffffffffffffffffffffffffffffffff19166020820180517bffffffffffffffffffffffffffffffffffffffffffffffffffffffff838183161783525050505061106c565b50505050565b60006110ce826040518060400160405280602081526020017f5361666545524332303a206c6f772d6c6576656c2063616c6c206661696c65648152508573ffffffffffffffffffffffffffffffffffffffff166111339092919063ffffffff16565b905060008151111561112e57808060200190518101906110ee91906120bc565b61112d576040517f08c379a00000000000000000000000000000000000000000000000000000000081526004016111249061215b565b60405180910390fd5b5b505050565b6060611142848460008561114b565b90509392505050565b606082471015611190576040517f08c379a0000000000000000000000000000000000000000000000000000000008152600401611187906121ed565b60405180910390fd5b6111998561125f565b6111d8576040517f08c379a00000000000000000000000000000000000000000000000000000000081526004016111cf90612259565b60405180910390fd5b6000808673ffffffffffffffffffffffffffffffffffffffff16858760405161120191906122c0565b60006040518083038185875af1925050503d806000811461123e576040519150601f19603f3d011682016040523d82523d6000602084013e611243565b606091505b5091509150611253828286611282565b92505050949350505050565b6000808273ffffffffffffffffffffffffffffffffffffffff163b119050919050565b60608315611292578290506112e2565b6000835111156112a55782518084602001fd5b816040517f08c379a00000000000000000000000000000000000000000000000000000000081526004016112d99190612310565b60405180910390fd5b9392505050565b6040518060a00160405280606081526020016000815260200160608152602001600073ffffffffffffffffffffffffffffffffffffffff168152602001606081525090565b6000819050919050565b6113418161132e565b82525050565b600060208201905061135c6000830184611338565b92915050565b600073ffffffffffffffffffffffffffffffffffffffff82169050919050565b600061138d82611362565b9050919050565b61139d81611382565b82525050565b60006020820190506113b86000830184611394565b92915050565b600080fd5b600080fd5b600080fd5b600080fd5b600080fd5b60008083601f8401126113ed576113ec6113c8565b5b8235905067ffffffffffffffff81111561140a576114096113cd565b5b602083019150836001820283011115611426576114256113d2565b5b9250929050565b6114368161132e565b811461144157600080fd5b50565b6000813590506114538161142d565b92915050565b61146281611382565b811461146d57600080fd5b50565b60008135905061147f81611459565b92915050565b6000806000806060858703121561149f5761149e6113be565b5b600085013567ffffffffffffffff8111156114bd576114bc6113c3565b5b6114c9878288016113d7565b945094505060206114dc87828801611444565b92505060406114ed87828801611470565b91505092959194509250565b600080600060408486031215611512576115116113be565b5b600084013567ffffffffffffffff8111156115305761152f6113c3565b5b61153c868287016113d7565b9350935050602061154f86828701611444565b9150509250925092565b600080602083850312156115705761156f6113be565b5b600083013567ffffffffffffffff81111561158e5761158d6113c3565b5b61159a858286016113d7565b92509250509250929050565b600081519050919050565b600082825260208201905092915050565b60005b838110156115e05780820151818401526020810190506115c5565b838111156115ef576000848401525b50505050565b6000601f19601f8301169050919050565b6000611611826115a6565b61161b81856115b1565b935061162b8185602086016115c2565b611634816115f5565b840191505092915050565b6116488161132e565b82525050565b61165781611382565b82525050565b600060a083016000830151848203600086015261167a8282611606565b915050602083015161168f602086018261163f565b50604083015184820360408601526116a78282611606565b91505060608301516116bc606086018261164e565b50608083015184820360808601526116d48282611606565b9150508091505092915050565b600060208201905081810360008301526116fb818461165d565b905092915050565b6000806040838503121561171a576117196113be565b5b600061172885828601611470565b925050602061173985828601611444565b9150509250929050565b6000815190506117528161142d565b92915050565b60006020828403121561176e5761176d6113be565b5b600061177c84828501611743565b91505092915050565b600082825260208201905092915050565b7f596f7520617265206e6f74206f776e6572206f66207468697320636f6e74726160008201527f6374000000000000000000000000000000000000000000000000000000000000602082015250565b60006117f2602283611785565b91506117fd82611796565b604082019050919050565b60006020820190508181036000830152611821816117e5565b9050919050565b7f74686520636f6e747261637420686173206265656e2070617573656400000000600082015250565b600061185e601c83611785565b915061186982611828565b602082019050919050565b6000602082019050818103600083015261188d81611851565b9050919050565b600081905092915050565b82818337600083830152505050565b60006118ba8385611894565b93506118c783858461189f565b82840190509392505050565b60006118e08284866118ae565b91508190509392505050565b7f5769746864726177616c207472616e73616374696f6e20616c7265616479206560008201527f7869737473000000000000000000000000000000000000000000000000000000602082015250565b6000611948602583611785565b9150611953826118ec565b604082019050919050565b600060208201905081810360008301526119778161193b565b9050919050565b7f5265656e7472616e637947756172643a207265656e7472616e742063616c6c00600082015250565b60006119b4601f83611785565b91506119bf8261197e565b602082019050919050565b600060208201905081810360008301526119e3816119a7565b9050919050565b7f4e487b7100000000000000000000000000000000000000000000000000000000600052604160045260246000fd5b7f4e487b7100000000000000000000000000000000000000000000000000000000600052602260045260246000fd5b60006002820490506001821680611a6057607f821691505b602082108103611a7357611a72611a19565b5b50919050565b60008190508160005260206000209050919050565b60006020601f8301049050919050565b600082821b905092915050565b600060088302611adb7fffffffffffffffffffffffffffffffffffffffffffffffffffffffffffffffff82611a9e565b611ae58683611a9e565b95508019841693508086168417925050509392505050565b6000819050919050565b6000611b22611b1d611b188461132e565b611afd565b61132e565b9050919050565b6000819050919050565b611b3c83611b07565b611b50611b4882611b29565b848454611aab565b825550505050565b600090565b611b65611b58565b611b70818484611b33565b505050565b5b81811015611b9457611b89600082611b5d565b600181019050611b76565b5050565b601f821115611bd957611baa81611a79565b611bb384611a8e565b81016020851015611bc2578190505b611bd6611bce85611a8e565b830182611b75565b50505b505050565b600082821c905092915050565b6000611bfc60001984600802611bde565b1980831691505092915050565b6000611c158383611beb565b9150826002028217905092915050565b611c2e826115a6565b67ffffffffffffffff811115611c4757611c466119ea565b5b611c518254611a48565b611c5c828285611b98565b600060209050601f831160018114611c8f5760008415611c7d578287015190505b611c878582611c09565b865550611cef565b601f198416611c9d86611a79565b60005b82811015611cc557848901518255600182019150602085019450602081019050611ca0565b86831015611ce25784890151611cde601f891682611beb565b8355505b6001600288020188555050505b505050505050565b6000611d038385611785565b9350611d1083858461189f565b611d19836115f5565b840190509392505050565b60008115159050919050565b611d3981611d24565b82525050565b7f436f6e6669726d65640000000000000000000000000000000000000000000000600082015250565b6000611d75600983611785565b9150611d8082611d3f565b602082019050919050565b7f4255534400000000000000000000000000000000000000000000000000000000600082015250565b6000611dc1600483611785565b9150611dcc82611d8b565b602082019050919050565b600060a0820190508181036000830152611df2818688611cf7565b9050611e016020830185611338565b611e0e6040830184611d30565b8181036060830152611e1f81611d68565b90508181036080830152611e3281611db4565b905095945050505050565b7f4e487b7100000000000000000000000000000000000000000000000000000000600052601160045260246000fd5b6000611e778261132e565b9150611e828361132e565b9250817fffffffffffffffffffffffffffffffffffffffffffffffffffffffffffffffff0483118215151615611ebb57611eba611e3d565b5b828202905092915050565b7f596f7520646f6e74206861766520656e6f7567682062616c616e636500000000600082015250565b6000611efc601c83611785565b9150611f0782611ec6565b602082019050919050565b60006020820190508181036000830152611f2b81611eef565b9050919050565b7f4465706f736974207472616e73616374696f6e20616c7265616479206578697360008201527f7473000000000000000000000000000000000000000000000000000000000000602082015250565b6000611f8e602283611785565b9150611f9982611f32565b604082019050919050565b60006020820190508181036000830152611fbd81611f81565b9050919050565b7f4465706f736974207472616e73616374696f6e73206e6f7420666f756e640000600082015250565b6000611ffa601e83611785565b915061200582611fc4565b602082019050919050565b6000602082019050818103600083015261202981611fed565b9050919050565b60006040820190506120456000830185611394565b6120526020830184611338565b9392505050565b600060608201905061206e6000830186611394565b61207b6020830185611394565b6120886040830184611338565b949350505050565b61209981611d24565b81146120a457600080fd5b50565b6000815190506120b681612090565b92915050565b6000602082840312156120d2576120d16113be565b5b60006120e0848285016120a7565b91505092915050565b7f5361666545524332303a204552433230206f7065726174696f6e20646964206e60008201527f6f74207375636365656400000000000000000000000000000000000000000000602082015250565b6000612145602a83611785565b9150612150826120e9565b604082019050919050565b6000602082019050818103600083015261217481612138565b9050919050565b7f416464726573733a20696e73756666696369656e742062616c616e636520666f60008201527f722063616c6c0000000000000000000000000000000000000000000000000000602082015250565b60006121d7602683611785565b91506121e28261217b565b604082019050919050565b60006020820190508181036000830152612206816121ca565b9050919050565b7f416464726573733a2063616c6c20746f206e6f6e2d636f6e7472616374000000600082015250565b6000612243601d83611785565b915061224e8261220d565b602082019050919050565b6000602082019050818103600083015261227281612236565b9050919050565b600081519050919050565b600081905092915050565b600061229a82612279565b6122a48185612284565b93506122b48185602086016115c2565b80840191505092915050565b60006122cc828461228f565b915081905092915050565b60006122e2826115a6565b6122ec8185611785565b93506122fc8185602086016115c2565b612305816115f5565b840191505092915050565b6000602082019050818103600083015261232a81846122d7565b90509291505056fea264697066735822122086076b2f9c6b36ab6702cb38bca9d656164fc729412683833321fd9aa10c63c664736f6c634300080f0033",
  "immutableReferences": {},
  "source": "// SPDX-License-Identifier: MIT\npragma solidity ^0.8.0;\n\nimport \"@openzeppelin/contracts/token/ERC20/utils/SafeERC20.sol\";\nimport \"@openzeppelin/contracts/security/ReentrancyGuard.sol\";\n\ncontract Transfers is ReentrancyGuard {\n    using SafeERC20 for IERC20;\n\n    struct Transaction {\n        string tid;\n        uint256 amount;\n        string operation;\n        address userAddress;\n        string currency;\n    }\n    address public BUSD;\n    address public owner;\n    bool pause;\n    mapping(string => Transaction) private depositTransactions;\n    mapping(string => Transaction) private withdrawTransactions;\n\n    event TransactionCreated(\n        string tid,\n        uint256 amount,\n        bool submited,\n        string message,\n        string currency\n    );\n\n    constructor() {\n        BUSD = 0xe9e7CEA3DedcA5984780Bafc599bD69ADd087D56; \n        owner = 0xC03d0aF74cf3d08D92A236F0691CbAb0b8C8830d;\n        pause = false;\n    }\n\n    modifier isPause() {\n        require(pause == false, \"the contract has been paused\");\n        _;\n    }\n\n    modifier findDeposit_TX(string calldata _tid) {\n        require(\n            depositTransactions[_tid].amount != 0,\n            \"Deposit transactions not found\"\n        );\n        _;\n    }\n\n    modifier isValidDeposit_TX(string calldata _tid) {\n        require(\n            depositTransactions[_tid].amount == 0,\n            \"Deposit transaction already exists\"\n        );\n        _;\n    }\n\n    modifier isValidWithdraw_TX(string calldata _tid) {\n        require(\n            withdrawTransactions[_tid].amount == 0,\n            \"Withdrawal transaction already exists\"\n        );\n        _;\n    }\n\n    modifier enoughDeposit(uint256 _amount) {\n        uint256 balance = IERC20(BUSD).balanceOf(msg.sender);\n        uint256 amount = _amount * 10**18;\n        require(\n            balance >= amount && amount != 0,\n            \"You dont have enough balance\"\n        );\n        _;\n    }\n\n    modifier onlyOwner() {\n        require(msg.sender == owner, \"You are not owner of this contract\");\n        _;\n    }\n\n    function deposit(string calldata _tid, uint256 _amount)\n        external\n        isPause\n        enoughDeposit(_amount)\n        isValidDeposit_TX(_tid)\n        nonReentrant\n    {\n        SafeERC20.safeTransferFrom(\n            IERC20(BUSD),\n            msg.sender,\n            address(this),\n            _amount * 10**18\n        );\n        Transaction memory newTransaction = Transaction(\n            _tid,\n            _amount,\n            \"inc\",\n            msg.sender,\n            \"BUSD\"\n        );\n        depositTransactions[_tid] = newTransaction;\n        emit TransactionCreated(_tid, _amount, true, \"Confirmed\" , \"BUSD\");\n    }\n\n    function getDepositTransaction(string calldata _tid)\n        external\n        view\n        findDeposit_TX(_tid)\n        returns (Transaction memory)\n    {\n        return depositTransactions[_tid];\n    }\n    \n    function withdraw(string calldata _tid, uint256 _amount , address _receiver)\n        public\n        isPause\n        isValidWithdraw_TX(_tid)\n        nonReentrant\n        onlyOwner\n    {\n        Transaction memory newTransaction = Transaction(\n            _tid,\n            _amount,\n            \"dec\",\n            _receiver,\n            \"BUSD\"\n        );\n        withdrawTransactions[_tid] = newTransaction;\n        SafeERC20.safeTransfer(\n            IERC20(BUSD),\n            _receiver,\n            _amount\n        );\n        emit TransactionCreated(_tid, _amount, true, \"Confirmed\" , \"BUSD\");\n    }\n\n    function contractBUSDs() external view returns (uint256) {\n        uint256 balance = IERC20(BUSD).balanceOf(address(this));\n        return balance;\n    }\n\n    function enablePause() external onlyOwner {\n        pause = true;\n    }\n\n    function disablePause() external onlyOwner {\n        pause = false;\n    }\n\n    function withdrawBUSD(address receiver , uint256 _amount) public onlyOwner {\n        SafeERC20.safeTransfer(\n            IERC20(BUSD),\n            receiver,\n            _amount\n        );\n    }\n}",
  "sourcePath": "/Users/istore/Desktop/Blockchain Projects/kayak/Bustabit/contracts/Transfers.sol",
  "compiler": {
    "name": "solc",
    "version": "0.8.15+commit.e14f2714.Emscripten.clang"
  },
  "schemaVersion": "3.4.3",
  "updatedAt": "2022-08-03T14:36:59.782Z",
  "networkType": "ethereum",
  "devdoc": {
    "kind": "dev",
    "methods": {},
    "version": 1
  },
  "userdoc": {
    "kind": "user",
    "methods": {},
    "version": 1
  }
}