{
  "contractName": "Transfers2",
  "abi": [
    {
      "inputs": [],
      "stateMutability": "nonpayable",
      "type": "constructor"
    },
    {
      "anonymous": false,
      "inputs": [
        {
          "indexed": false,
          "internalType": "string",
          "name": "tid",
          "type": "string"
        },
        {
          "indexed": false,
          "internalType": "uint256",
          "name": "amount",
          "type": "uint256"
        },
        {
          "indexed": false,
          "internalType": "bool",
          "name": "submited",
          "type": "bool"
        },
        {
          "indexed": false,
          "internalType": "string",
          "name": "message",
          "type": "string"
        },
        {
          "indexed": false,
          "internalType": "string",
          "name": "currency",
          "type": "string"
        }
      ],
      "name": "TransactionCreated",
      "type": "event"
    },
    {
      "inputs": [],
      "name": "USDC",
      "outputs": [
        {
          "internalType": "address",
          "name": "",
          "type": "address"
        }
      ],
      "stateMutability": "view",
      "type": "function",
      "constant": true
    },
    {
      "inputs": [],
      "name": "owner",
      "outputs": [
        {
          "internalType": "address",
          "name": "",
          "type": "address"
        }
      ],
      "stateMutability": "view",
      "type": "function",
      "constant": true
    },
    {
      "inputs": [
        {
          "internalType": "string",
          "name": "_tid",
          "type": "string"
        },
        {
          "internalType": "uint256",
          "name": "_amount",
          "type": "uint256"
        }
      ],
      "name": "deposit",
      "outputs": [],
      "stateMutability": "nonpayable",
      "type": "function"
    },
    {
      "inputs": [
        {
          "internalType": "string",
          "name": "_tid",
          "type": "string"
        }
      ],
      "name": "getDepositTransaction",
      "outputs": [
        {
          "components": [
            {
              "internalType": "string",
              "name": "tid",
              "type": "string"
            },
            {
              "internalType": "uint256",
              "name": "amount",
              "type": "uint256"
            },
            {
              "internalType": "string",
              "name": "operation",
              "type": "string"
            },
            {
              "internalType": "address",
              "name": "userAddress",
              "type": "address"
            },
            {
              "internalType": "string",
              "name": "currency",
              "type": "string"
            }
          ],
          "internalType": "struct Transfers2.Transaction",
          "name": "",
          "type": "tuple"
        }
      ],
      "stateMutability": "view",
      "type": "function",
      "constant": true
    },
    {
      "inputs": [
        {
          "internalType": "string",
          "name": "_tid",
          "type": "string"
        },
        {
          "internalType": "uint256",
          "name": "_amount",
          "type": "uint256"
        },
        {
          "internalType": "address",
          "name": "_receiver",
          "type": "address"
        }
      ],
      "name": "withdraw",
      "outputs": [],
      "stateMutability": "nonpayable",
      "type": "function"
    },
    {
      "inputs": [],
      "name": "contractUSDCs",
      "outputs": [
        {
          "internalType": "uint256",
          "name": "",
          "type": "uint256"
        }
      ],
      "stateMutability": "view",
      "type": "function",
      "constant": true
    },
    {
      "inputs": [],
      "name": "enablePause",
      "outputs": [],
      "stateMutability": "nonpayable",
      "type": "function"
    },
    {
      "inputs": [],
      "name": "disablePause",
      "outputs": [],
      "stateMutability": "nonpayable",
      "type": "function"
    },
    {
      "inputs": [
        {
          "internalType": "address",
          "name": "receiver",
          "type": "address"
        },
        {
          "internalType": "uint256",
          "name": "_amount",
          "type": "uint256"
        }
      ],
      "name": "withdrawUSDC",
      "outputs": [],
      "stateMutability": "nonpayable",
      "type": "function"
    }
  ],
  "bytecode": "0x608060405234801561001057600080fd5b50600160008190555073a0b86991c6218b36c1d19d4a2e9eb0ce3606eb48600160006101000a81548173ffffffffffffffffffffffffffffffffffffffff021916908373ffffffffffffffffffffffffffffffffffffffff16021790555073c03d0af74cf3d08d92a236f0691cbab0b8c8830d600260006101000a81548173ffffffffffffffffffffffffffffffffffffffff021916908373ffffffffffffffffffffffffffffffffffffffff1602179055506000600260146101000a81548160ff021916908315150217905550612368806100ed6000396000f3fe608060405234801561001057600080fd5b50600436106100935760003560e01c806389a302711161006657806389a30271146100e45780638da5cb5b146101025780638e27d71914610120578063d0becb391461013c578063f6e998841461016c57610093565b8063367fe7221461009857806344471fd9146100a2578063584f969a146100be5780637804e707146100c8575b600080fd5b6100a061018a565b005b6100bc60048036038101906100b791906113cc565b610237565b005b6100c66102f8565b005b6100e260048036038101906100dd9190611471565b6103a5565b005b6100ec610762565b6040516100f991906114f4565b60405180910390f35b61010a610788565b60405161011791906114f4565b60405180910390f35b61013a6004803603810190610135919061150f565b6107ae565b005b6101566004803603810190610151919061156f565b610bfa565b60405161016391906116f7565b60405180910390f35b610174610eb5565b6040516101819190611728565b60405180910390f35b600260009054906101000a900473ffffffffffffffffffffffffffffffffffffffff1673ffffffffffffffffffffffffffffffffffffffff163373ffffffffffffffffffffffffffffffffffffffff161461021a576040517f08c379a0000000000000000000000000000000000000000000000000000000008152600401610211906117c6565b60405180910390fd5b6001600260146101000a81548160ff021916908315150217905550565b600260009054906101000a900473ffffffffffffffffffffffffffffffffffffffff1673ffffffffffffffffffffffffffffffffffffffff163373ffffffffffffffffffffffffffffffffffffffff16146102c7576040517f08c379a00000000000000000000000000000000000000000000000000000000081526004016102be906117c6565b60405180910390fd5b6102f4600160009054906101000a900473ffffffffffffffffffffffffffffffffffffffff168383610f5d565b5050565b600260009054906101000a900473ffffffffffffffffffffffffffffffffffffffff1673ffffffffffffffffffffffffffffffffffffffff163373ffffffffffffffffffffffffffffffffffffffff1614610388576040517f08c379a000000000000000000000000000000000000000000000000000000000815260040161037f906117c6565b60405180910390fd5b6000600260146101000a81548160ff021916908315150217905550565b60001515600260149054906101000a900460ff161515146103fb576040517f08c379a00000000000000000000000000000000000000000000000000000000081526004016103f290611832565b60405180910390fd5b8383600060048383604051610411929190611891565b90815260200160405180910390206001015414610463576040517f08c379a000000000000000000000000000000000000000000000000000000000815260040161045a9061191c565b60405180910390fd5b6002600054036104a8576040517f08c379a000000000000000000000000000000000000000000000000000000000815260040161049f90611988565b60405180910390fd5b6002600081905550600260009054906101000a900473ffffffffffffffffffffffffffffffffffffffff1673ffffffffffffffffffffffffffffffffffffffff163373ffffffffffffffffffffffffffffffffffffffff1614610540576040517f08c379a0000000000000000000000000000000000000000000000000000000008152600401610537906117c6565b60405180910390fd5b60006040518060a0016040528088888080601f016020809104026020016040519081016040528093929190818152602001838380828437600081840152601f19601f8201169050808301925050505050505081526020018681526020016040518060400160405280600381526020017f646563000000000000000000000000000000000000000000000000000000000081525081526020018573ffffffffffffffffffffffffffffffffffffffff1681526020016040518060400160405280600481526020017f555344430000000000000000000000000000000000000000000000000000000081525081525090508060048888604051610642929190611891565b908152602001604051809103902060008201518160000190816106659190611be3565b506020820151816001015560408201518160020190816106859190611be3565b5060608201518160030160006101000a81548173ffffffffffffffffffffffffffffffffffffffff021916908373ffffffffffffffffffffffffffffffffffffffff16021790555060808201518160040190816106e29190611be3565b50905050610713600160009054906101000a900473ffffffffffffffffffffffffffffffffffffffff168587610f5d565b7f99777f049a048c883595501c959b56b00129db41f58d42a717a315077a43ca7c87878760016040516107499493929190611d95565b60405180910390a1506001600081905550505050505050565b600160009054906101000a900473ffffffffffffffffffffffffffffffffffffffff1681565b600260009054906101000a900473ffffffffffffffffffffffffffffffffffffffff1681565b60001515600260149054906101000a900460ff16151514610804576040517f08c379a00000000000000000000000000000000000000000000000000000000081526004016107fb90611832565b60405180910390fd5b806000600160009054906101000a900473ffffffffffffffffffffffffffffffffffffffff1673ffffffffffffffffffffffffffffffffffffffff166370a08231336040518263ffffffff1660e01b815260040161086291906114f4565b602060405180830381865afa15801561087f573d6000803e3d6000fd5b505050506040513d601f19601f820116820180604052508101906108a39190611e10565b90506000670de0b6b3a7640000836108bb9190611e6c565b90508082101580156108ce575060008114155b61090d576040517f08c379a000000000000000000000000000000000000000000000000000000000815260040161090490611f12565b60405180910390fd5b8585600060038383604051610923929190611891565b90815260200160405180910390206001015414610975576040517f08c379a000000000000000000000000000000000000000000000000000000000815260040161096c90611fa4565b60405180910390fd5b6002600054036109ba576040517f08c379a00000000000000000000000000000000000000000000000000000000081526004016109b190611988565b60405180910390fd5b6002600081905550610a03600160009054906101000a900473ffffffffffffffffffffffffffffffffffffffff163330670de0b6b3a76400008a6109fe9190611e6c565b610fe3565b60006040518060a001604052808a8a8080601f016020809104026020016040519081016040528093929190818152602001838380828437600081840152601f19601f8201169050808301925050505050505081526020018881526020016040518060400160405280600381526020017f696e63000000000000000000000000000000000000000000000000000000000081525081526020013373ffffffffffffffffffffffffffffffffffffffff1681526020016040518060400160405280600481526020017f555344430000000000000000000000000000000000000000000000000000000081525081525090508060038a8a604051610b05929190611891565b90815260200160405180910390206000820151816000019081610b289190611be3565b50602082015181600101556040820151816002019081610b489190611be3565b5060608201518160030160006101000a81548173ffffffffffffffffffffffffffffffffffffffff021916908373ffffffffffffffffffffffffffffffffffffffff1602179055506080820151816004019081610ba59190611be3565b509050507f99777f049a048c883595501c959b56b00129db41f58d42a717a315077a43ca7c8989896001604051610bdf9493929190611d95565b60405180910390a15060016000819055505050505050505050565b610c026112e9565b8282600060038383604051610c18929190611891565b90815260200160405180910390206001015403610c6a576040517f08c379a0000000000000000000000000000000000000000000000000000000008152600401610c6190612010565b60405180910390fd5b60038585604051610c7c929190611891565b90815260200160405180910390206040518060a0016040529081600082018054610ca590611a06565b80601f0160208091040260200160405190810160405280929190818152602001828054610cd190611a06565b8015610d1e5780601f10610cf357610100808354040283529160200191610d1e565b820191906000526020600020905b815481529060010190602001808311610d0157829003601f168201915b5050505050815260200160018201548152602001600282018054610d4190611a06565b80601f0160208091040260200160405190810160405280929190818152602001828054610d6d90611a06565b8015610dba5780601f10610d8f57610100808354040283529160200191610dba565b820191906000526020600020905b815481529060010190602001808311610d9d57829003601f168201915b505050505081526020016003820160009054906101000a900473ffffffffffffffffffffffffffffffffffffffff1673ffffffffffffffffffffffffffffffffffffffff1673ffffffffffffffffffffffffffffffffffffffff168152602001600482018054610e2990611a06565b80601f0160208091040260200160405190810160405280929190818152602001828054610e5590611a06565b8015610ea25780601f10610e7757610100808354040283529160200191610ea2565b820191906000526020600020905b815481529060010190602001808311610e8557829003601f168201915b5050505050815250509250505092915050565b600080600160009054906101000a900473ffffffffffffffffffffffffffffffffffffffff1673ffffffffffffffffffffffffffffffffffffffff166370a08231306040518263ffffffff1660e01b8152600401610f1391906114f4565b602060405180830381865afa158015610f30573d6000803e3d6000fd5b505050506040513d601f19601f82011682018060405250810190610f549190611e10565b90508091505090565b610fde8363a9059cbb60e01b8484604051602401610f7c929190612030565b604051602081830303815290604052907bffffffffffffffffffffffffffffffffffffffffffffffffffffffff19166020820180517bffffffffffffffffffffffffffffffffffffffffffffffffffffffff838183161783525050505061106c565b505050565b611066846323b872dd60e01b85858560405160240161100493929190612059565b604051602081830303815290604052907bffffffffffffffffffffffffffffffffffffffffffffffffffffffff19166020820180517bffffffffffffffffffffffffffffffffffffffffffffffffffffffff838183161783525050505061106c565b50505050565b60006110ce826040518060400160405280602081526020017f5361666545524332303a206c6f772d6c6576656c2063616c6c206661696c65648152508573ffffffffffffffffffffffffffffffffffffffff166111339092919063ffffffff16565b905060008151111561112e57808060200190518101906110ee91906120bc565b61112d576040517f08c379a00000000000000000000000000000000000000000000000000000000081526004016111249061215b565b60405180910390fd5b5b505050565b6060611142848460008561114b565b90509392505050565b606082471015611190576040517f08c379a0000000000000000000000000000000000000000000000000000000008152600401611187906121ed565b60405180910390fd5b6111998561125f565b6111d8576040517f08c379a00000000000000000000000000000000000000000000000000000000081526004016111cf90612259565b60405180910390fd5b6000808673ffffffffffffffffffffffffffffffffffffffff16858760405161120191906122c0565b60006040518083038185875af1925050503d806000811461123e576040519150601f19603f3d011682016040523d82523d6000602084013e611243565b606091505b5091509150611253828286611282565b92505050949350505050565b6000808273ffffffffffffffffffffffffffffffffffffffff163b119050919050565b60608315611292578290506112e2565b6000835111156112a55782518084602001fd5b816040517f08c379a00000000000000000000000000000000000000000000000000000000081526004016112d99190612310565b60405180910390fd5b9392505050565b6040518060a00160405280606081526020016000815260200160608152602001600073ffffffffffffffffffffffffffffffffffffffff168152602001606081525090565b600080fd5b600080fd5b600073ffffffffffffffffffffffffffffffffffffffff82169050919050565b600061136382611338565b9050919050565b61137381611358565b811461137e57600080fd5b50565b6000813590506113908161136a565b92915050565b6000819050919050565b6113a981611396565b81146113b457600080fd5b50565b6000813590506113c6816113a0565b92915050565b600080604083850312156113e3576113e261132e565b5b60006113f185828601611381565b9250506020611402858286016113b7565b9150509250929050565b600080fd5b600080fd5b600080fd5b60008083601f8401126114315761143061140c565b5b8235905067ffffffffffffffff81111561144e5761144d611411565b5b60208301915083600182028301111561146a57611469611416565b5b9250929050565b6000806000806060858703121561148b5761148a61132e565b5b600085013567ffffffffffffffff8111156114a9576114a8611333565b5b6114b58782880161141b565b945094505060206114c8878288016113b7565b92505060406114d987828801611381565b91505092959194509250565b6114ee81611358565b82525050565b600060208201905061150960008301846114e5565b92915050565b6000806000604084860312156115285761152761132e565b5b600084013567ffffffffffffffff81111561154657611545611333565b5b6115528682870161141b565b93509350506020611565868287016113b7565b9150509250925092565b600080602083850312156115865761158561132e565b5b600083013567ffffffffffffffff8111156115a4576115a3611333565b5b6115b08582860161141b565b92509250509250929050565b600081519050919050565b600082825260208201905092915050565b60005b838110156115f65780820151818401526020810190506115db565b83811115611605576000848401525b50505050565b6000601f19601f8301169050919050565b6000611627826115bc565b61163181856115c7565b93506116418185602086016115d8565b61164a8161160b565b840191505092915050565b61165e81611396565b82525050565b61166d81611358565b82525050565b600060a0830160008301518482036000860152611690828261161c565b91505060208301516116a56020860182611655565b50604083015184820360408601526116bd828261161c565b91505060608301516116d26060860182611664565b50608083015184820360808601526116ea828261161c565b9150508091505092915050565b600060208201905081810360008301526117118184611673565b905092915050565b61172281611396565b82525050565b600060208201905061173d6000830184611719565b92915050565b600082825260208201905092915050565b7f596f7520617265206e6f74206f776e6572206f66207468697320636f6e74726160008201527f6374000000000000000000000000000000000000000000000000000000000000602082015250565b60006117b0602283611743565b91506117bb82611754565b604082019050919050565b600060208201905081810360008301526117df816117a3565b9050919050565b7f74686520636f6e747261637420686173206265656e2070617573656400000000600082015250565b600061181c601c83611743565b9150611827826117e6565b602082019050919050565b6000602082019050818103600083015261184b8161180f565b9050919050565b600081905092915050565b82818337600083830152505050565b60006118788385611852565b935061188583858461185d565b82840190509392505050565b600061189e82848661186c565b91508190509392505050565b7f5769746864726177616c207472616e73616374696f6e20616c7265616479206560008201527f7869737473000000000000000000000000000000000000000000000000000000602082015250565b6000611906602583611743565b9150611911826118aa565b604082019050919050565b60006020820190508181036000830152611935816118f9565b9050919050565b7f5265656e7472616e637947756172643a207265656e7472616e742063616c6c00600082015250565b6000611972601f83611743565b915061197d8261193c565b602082019050919050565b600060208201905081810360008301526119a181611965565b9050919050565b7f4e487b7100000000000000000000000000000000000000000000000000000000600052604160045260246000fd5b7f4e487b7100000000000000000000000000000000000000000000000000000000600052602260045260246000fd5b60006002820490506001821680611a1e57607f821691505b602082108103611a3157611a306119d7565b5b50919050565b60008190508160005260206000209050919050565b60006020601f8301049050919050565b600082821b905092915050565b600060088302611a997fffffffffffffffffffffffffffffffffffffffffffffffffffffffffffffffff82611a5c565b611aa38683611a5c565b95508019841693508086168417925050509392505050565b6000819050919050565b6000611ae0611adb611ad684611396565b611abb565b611396565b9050919050565b6000819050919050565b611afa83611ac5565b611b0e611b0682611ae7565b848454611a69565b825550505050565b600090565b611b23611b16565b611b2e818484611af1565b505050565b5b81811015611b5257611b47600082611b1b565b600181019050611b34565b5050565b601f821115611b9757611b6881611a37565b611b7184611a4c565b81016020851015611b80578190505b611b94611b8c85611a4c565b830182611b33565b50505b505050565b600082821c905092915050565b6000611bba60001984600802611b9c565b1980831691505092915050565b6000611bd38383611ba9565b9150826002028217905092915050565b611bec826115bc565b67ffffffffffffffff811115611c0557611c046119a8565b5b611c0f8254611a06565b611c1a828285611b56565b600060209050601f831160018114611c4d5760008415611c3b578287015190505b611c458582611bc7565b865550611cad565b601f198416611c5b86611a37565b60005b82811015611c8357848901518255600182019150602085019450602081019050611c5e565b86831015611ca05784890151611c9c601f891682611ba9565b8355505b6001600288020188555050505b505050505050565b6000611cc18385611743565b9350611cce83858461185d565b611cd78361160b565b840190509392505050565b60008115159050919050565b611cf781611ce2565b82525050565b7f436f6e6669726d65640000000000000000000000000000000000000000000000600082015250565b6000611d33600983611743565b9150611d3e82611cfd565b602082019050919050565b7f5553444300000000000000000000000000000000000000000000000000000000600082015250565b6000611d7f600483611743565b9150611d8a82611d49565b602082019050919050565b600060a0820190508181036000830152611db0818688611cb5565b9050611dbf6020830185611719565b611dcc6040830184611cee565b8181036060830152611ddd81611d26565b90508181036080830152611df081611d72565b905095945050505050565b600081519050611e0a816113a0565b92915050565b600060208284031215611e2657611e2561132e565b5b6000611e3484828501611dfb565b91505092915050565b7f4e487b7100000000000000000000000000000000000000000000000000000000600052601160045260246000fd5b6000611e7782611396565b9150611e8283611396565b9250817fffffffffffffffffffffffffffffffffffffffffffffffffffffffffffffffff0483118215151615611ebb57611eba611e3d565b5b828202905092915050565b7f596f7520646f6e74206861766520656e6f7567682062616c616e636500000000600082015250565b6000611efc601c83611743565b9150611f0782611ec6565b602082019050919050565b60006020820190508181036000830152611f2b81611eef565b9050919050565b7f4465706f736974207472616e73616374696f6e20616c7265616479206578697360008201527f7473000000000000000000000000000000000000000000000000000000000000602082015250565b6000611f8e602283611743565b9150611f9982611f32565b604082019050919050565b60006020820190508181036000830152611fbd81611f81565b9050919050565b7f4465706f736974207472616e73616374696f6e73206e6f7420666f756e640000600082015250565b6000611ffa601e83611743565b915061200582611fc4565b602082019050919050565b6000602082019050818103600083015261202981611fed565b9050919050565b600060408201905061204560008301856114e5565b6120526020830184611719565b9392505050565b600060608201905061206e60008301866114e5565b61207b60208301856114e5565b6120886040830184611719565b949350505050565b61209981611ce2565b81146120a457600080fd5b50565b6000815190506120b681612090565b92915050565b6000602082840312156120d2576120d161132e565b5b60006120e0848285016120a7565b91505092915050565b7f5361666545524332303a204552433230206f7065726174696f6e20646964206e60008201527f6f74207375636365656400000000000000000000000000000000000000000000602082015250565b6000612145602a83611743565b9150612150826120e9565b604082019050919050565b6000602082019050818103600083015261217481612138565b9050919050565b7f416464726573733a20696e73756666696369656e742062616c616e636520666f60008201527f722063616c6c0000000000000000000000000000000000000000000000000000602082015250565b60006121d7602683611743565b91506121e28261217b565b604082019050919050565b60006020820190508181036000830152612206816121ca565b9050919050565b7f416464726573733a2063616c6c20746f206e6f6e2d636f6e7472616374000000600082015250565b6000612243601d83611743565b915061224e8261220d565b602082019050919050565b6000602082019050818103600083015261227281612236565b9050919050565b600081519050919050565b600081905092915050565b600061229a82612279565b6122a48185612284565b93506122b48185602086016115d8565b80840191505092915050565b60006122cc828461228f565b915081905092915050565b60006122e2826115bc565b6122ec8185611743565b93506122fc8185602086016115d8565b6123058161160b565b840191505092915050565b6000602082019050818103600083015261232a81846122d7565b90509291505056fea2646970667358221220137de49dc0603566d481f1bb5839b2fcf54acca6381774b508fa0a2e133810a164736f6c634300080f0033",
  "immutableReferences": {},
  "source": "// SPDX-License-Identifier: MIT\npragma solidity ^0.8.0;\n\nimport \"@openzeppelin/contracts/token/ERC20/utils/SafeERC20.sol\";\nimport \"@openzeppelin/contracts/security/ReentrancyGuard.sol\";\n\ncontract Transfers2 is ReentrancyGuard {\n    using SafeERC20 for IERC20;\n\n    struct Transaction {\n        string tid;\n        uint256 amount;\n        string operation;\n        address userAddress;\n        string currency;\n    }\n    address public USDC;\n    address public owner;\n    bool pause;\n    mapping(string => Transaction) private depositTransactions;\n    mapping(string => Transaction) private withdrawTransactions;\n\n    event TransactionCreated(\n        string tid,\n        uint256 amount,\n        bool submited,\n        string message,\n        string currency\n    );\n\n    constructor() {\n        USDC = 0xA0b86991c6218b36c1d19D4a2e9Eb0cE3606eB48; \n        owner = 0xC03d0aF74cf3d08D92A236F0691CbAb0b8C8830d;\n        pause = false;\n    }\n\n    modifier isPause() {\n        require(pause == false, \"the contract has been paused\");\n        _;\n    }\n\n    modifier findDeposit_TX(string calldata _tid) {\n        require(\n            depositTransactions[_tid].amount != 0,\n            \"Deposit transactions not found\"\n        );\n        _;\n    }\n\n    modifier isValidDeposit_TX(string calldata _tid) {\n        require(\n            depositTransactions[_tid].amount == 0,\n            \"Deposit transaction already exists\"\n        );\n        _;\n    }\n\n    modifier isValidWithdraw_TX(string calldata _tid) {\n        require(\n            withdrawTransactions[_tid].amount == 0,\n            \"Withdrawal transaction already exists\"\n        );\n        _;\n    }\n\n    modifier enoughDeposit(uint256 _amount) {\n        uint256 balance = IERC20(USDC).balanceOf(msg.sender);\n        uint256 amount = _amount * 10**18;\n        require(\n            balance >= amount && amount != 0,\n            \"You dont have enough balance\"\n        );\n        _;\n    }\n\n    modifier onlyOwner() {\n        require(msg.sender == owner, \"You are not owner of this contract\");\n        _;\n    }\n\n    function deposit(string calldata _tid, uint256 _amount)\n        external\n        isPause\n        enoughDeposit(_amount)\n        isValidDeposit_TX(_tid)\n        nonReentrant\n    {\n        SafeERC20.safeTransferFrom(\n            IERC20(USDC),\n            msg.sender,\n            address(this),\n            _amount * 10**18\n        );\n        Transaction memory newTransaction = Transaction(\n            _tid,\n            _amount,\n            \"inc\",\n            msg.sender,\n            \"USDC\"\n        );\n        depositTransactions[_tid] = newTransaction;\n        emit TransactionCreated(_tid, _amount, true, \"Confirmed\" , \"USDC\");\n    }\n\n    function getDepositTransaction(string calldata _tid)\n        external\n        view\n        findDeposit_TX(_tid)\n        returns (Transaction memory)\n    {\n        return depositTransactions[_tid];\n    }\n    \n    function withdraw(string calldata _tid, uint256 _amount , address _receiver)\n        public\n        isPause\n        isValidWithdraw_TX(_tid)\n        nonReentrant\n        onlyOwner\n    {\n        Transaction memory newTransaction = Transaction(\n            _tid,\n            _amount,\n            \"dec\",\n            _receiver,\n            \"USDC\"\n        );\n        withdrawTransactions[_tid] = newTransaction;\n        SafeERC20.safeTransfer(\n            IERC20(USDC),\n            _receiver,\n            _amount \n        );\n        emit TransactionCreated(_tid, _amount, true, \"Confirmed\", \"USDC\");\n    }\n\n    function contractUSDCs() external view returns (uint256) {\n        uint256 balance = IERC20(USDC).balanceOf(address(this));\n        return balance;\n    }\n\n    function enablePause() external onlyOwner {\n        pause = true;\n    }\n\n    function disablePause() external onlyOwner {\n        pause = false;\n    }\n\n    function withdrawUSDC(address receiver , uint256 _amount) public onlyOwner {\n        SafeERC20.safeTransfer(\n            IERC20(USDC),\n            receiver,\n            _amount \n        );\n    }\n}\n",
  "sourcePath": "/Users/istore/Desktop/Blockchain Projects/kayak/Bustabit/contracts/Transfers2.sol",
  "compiler": {
    "name": "solc",
    "version": "0.8.15+commit.e14f2714.Emscripten.clang"
  },
  "schemaVersion": "3.4.3",
  "updatedAt": "2022-08-03T14:56:29.530Z",
  "networkType": "ethereum",
  "devdoc": {
    "kind": "dev",
    "methods": {},
    "version": 1
  },
  "userdoc": {
    "kind": "user",
    "methods": {},
    "version": 1
  }
}